{
  "_format": "hh-sol-artifact-1",
  "contractName": "SmartInvoice",
  "sourceName": "contracts/SmartInvoice.sol",
  "abi": [
    {
      "anonymous": false,
      "inputs": [
        {
          "indexed": true,
          "internalType": "address",
          "name": "sender",
          "type": "address"
        },
        {
          "indexed": false,
          "internalType": "uint256",
          "name": "amount",
          "type": "uint256"
        }
      ],
      "name": "Deposit",
      "type": "event"
    },
    {
      "anonymous": false,
      "inputs": [
        {
          "indexed": false,
          "internalType": "uint8",
          "name": "version",
          "type": "uint8"
        }
      ],
      "name": "Initialized",
      "type": "event"
    },
    {
      "anonymous": false,
      "inputs": [
        {
          "indexed": true,
          "internalType": "address",
          "name": "sender",
          "type": "address"
        },
        {
          "indexed": false,
          "internalType": "bytes32",
          "name": "details",
          "type": "bytes32"
        }
      ],
      "name": "Lock",
      "type": "event"
    },
    {
      "anonymous": false,
      "inputs": [
        {
          "indexed": true,
          "internalType": "address",
          "name": "client",
          "type": "address"
        },
        {
          "indexed": true,
          "internalType": "address",
          "name": "invoice",
          "type": "address"
        },
        {
          "indexed": false,
          "internalType": "uint256[]",
          "name": "milestones",
          "type": "uint256[]"
        }
      ],
      "name": "MilestonesAdded",
      "type": "event"
    },
    {
      "anonymous": false,
      "inputs": [
        {
          "indexed": true,
          "internalType": "address",
          "name": "client",
          "type": "address"
        },
        {
          "indexed": true,
          "internalType": "address",
          "name": "provider",
          "type": "address"
        },
        {
          "indexed": false,
          "internalType": "uint256[]",
          "name": "amounts",
          "type": "uint256[]"
        }
      ],
      "name": "Register",
      "type": "event"
    },
    {
      "anonymous": false,
      "inputs": [
        {
          "indexed": false,
          "internalType": "uint256",
          "name": "milestone",
          "type": "uint256"
        },
        {
          "indexed": false,
          "internalType": "uint256",
          "name": "amount",
          "type": "uint256"
        }
      ],
      "name": "Release",
      "type": "event"
    },
    {
      "anonymous": false,
      "inputs": [
        {
          "indexed": true,
          "internalType": "address",
          "name": "resolver",
          "type": "address"
        },
        {
          "indexed": false,
          "internalType": "uint256",
          "name": "clientAward",
          "type": "uint256"
        },
        {
          "indexed": false,
          "internalType": "uint256",
          "name": "providerAward",
          "type": "uint256"
        },
        {
          "indexed": false,
          "internalType": "uint256",
          "name": "resolutionFee",
          "type": "uint256"
        },
        {
          "indexed": false,
          "internalType": "bytes32",
          "name": "details",
          "type": "bytes32"
        }
      ],
      "name": "Resolve",
      "type": "event"
    },
    {
      "anonymous": false,
      "inputs": [
        {
          "indexed": true,
          "internalType": "address",
          "name": "resolver",
          "type": "address"
        },
        {
          "indexed": false,
          "internalType": "uint256",
          "name": "clientAward",
          "type": "uint256"
        },
        {
          "indexed": false,
          "internalType": "uint256",
          "name": "providerAward",
          "type": "uint256"
        },
        {
          "indexed": false,
          "internalType": "uint256",
          "name": "ruling",
          "type": "uint256"
        }
      ],
      "name": "Rule",
      "type": "event"
    },
    {
      "anonymous": false,
      "inputs": [
        {
          "indexed": true,
          "internalType": "address",
          "name": "_arbitrator",
          "type": "address"
        },
        {
          "indexed": true,
          "internalType": "uint256",
          "name": "_disputeID",
          "type": "uint256"
        },
        {
          "indexed": false,
          "internalType": "uint256",
          "name": "_ruling",
          "type": "uint256"
        }
      ],
      "name": "Ruling",
      "type": "event"
    },
    {
      "anonymous": false,
      "inputs": [
        {
          "indexed": true,
          "internalType": "address",
          "name": "client",
          "type": "address"
        },
        {
          "indexed": true,
          "internalType": "address",
          "name": "invoice",
          "type": "address"
        }
      ],
      "name": "Verified",
      "type": "event"
    },
    {
      "anonymous": false,
      "inputs": [
        {
          "indexed": false,
          "internalType": "uint256",
          "name": "balance",
          "type": "uint256"
        }
      ],
      "name": "Withdraw",
      "type": "event"
    },
    {
      "inputs": [],
      "name": "MAX_TERMINATION_TIME",
      "outputs": [
        {
          "internalType": "uint256",
          "name": "",
          "type": "uint256"
        }
      ],
      "stateMutability": "view",
      "type": "function"
    },
    {
      "inputs": [],
      "name": "NUM_RULING_OPTIONS",
      "outputs": [
        {
          "internalType": "uint256",
          "name": "",
          "type": "uint256"
        }
      ],
      "stateMutability": "view",
      "type": "function"
    },
    {
      "inputs": [
        {
          "internalType": "uint256",
          "name": "",
          "type": "uint256"
        },
        {
          "internalType": "uint256",
          "name": "",
          "type": "uint256"
        }
      ],
      "name": "RULINGS",
      "outputs": [
        {
          "internalType": "uint8",
          "name": "",
          "type": "uint8"
        }
      ],
      "stateMutability": "view",
      "type": "function"
    },
    {
      "inputs": [
        {
          "internalType": "uint256[]",
          "name": "_milestones",
          "type": "uint256[]"
        }
      ],
      "name": "addMilestones",
      "outputs": [],
      "stateMutability": "nonpayable",
      "type": "function"
    },
    {
      "inputs": [
        {
          "internalType": "uint256",
          "name": "",
          "type": "uint256"
        }
      ],
      "name": "amounts",
      "outputs": [
        {
          "internalType": "uint256",
          "name": "",
          "type": "uint256"
        }
      ],
      "stateMutability": "view",
      "type": "function"
    },
    {
      "inputs": [],
      "name": "client",
      "outputs": [
        {
          "internalType": "address",
          "name": "",
          "type": "address"
        }
      ],
      "stateMutability": "view",
      "type": "function"
    },
    {
      "inputs": [],
      "name": "details",
      "outputs": [
        {
          "internalType": "bytes32",
          "name": "",
          "type": "bytes32"
        }
      ],
      "stateMutability": "view",
      "type": "function"
    },
    {
      "inputs": [],
      "name": "disputeId",
      "outputs": [
        {
          "internalType": "uint256",
          "name": "",
          "type": "uint256"
        }
      ],
      "stateMutability": "view",
      "type": "function"
    },
    {
      "inputs": [],
      "name": "getAmounts",
      "outputs": [
        {
          "internalType": "uint256[]",
          "name": "",
          "type": "uint256[]"
        }
      ],
      "stateMutability": "view",
      "type": "function"
    },
    {
      "inputs": [
        {
          "internalType": "address",
          "name": "_client",
          "type": "address"
        },
        {
          "internalType": "address",
          "name": "_provider",
          "type": "address"
        },
        {
          "internalType": "uint8",
          "name": "_resolverType",
          "type": "uint8"
        },
        {
          "internalType": "address",
          "name": "_resolver",
          "type": "address"
        },
        {
          "internalType": "address",
          "name": "_token",
          "type": "address"
        },
        {
          "internalType": "uint256[]",
          "name": "_amounts",
          "type": "uint256[]"
        },
        {
          "internalType": "uint256",
          "name": "_terminationTime",
          "type": "uint256"
        },
        {
          "internalType": "uint256",
          "name": "_resolutionRate",
          "type": "uint256"
        },
        {
          "internalType": "bytes32",
          "name": "_details",
          "type": "bytes32"
        },
        {
          "internalType": "address",
          "name": "_wrappedNativeToken",
          "type": "address"
        },
        {
          "internalType": "bool",
          "name": "_requireVerification",
          "type": "bool"
        }
      ],
      "name": "init",
      "outputs": [],
      "stateMutability": "nonpayable",
      "type": "function"
    },
    {
      "inputs": [],
      "name": "initLock",
      "outputs": [],
      "stateMutability": "nonpayable",
      "type": "function"
    },
    {
      "inputs": [
        {
          "internalType": "bytes32",
          "name": "_details",
          "type": "bytes32"
        }
      ],
      "name": "lock",
      "outputs": [],
      "stateMutability": "payable",
      "type": "function"
    },
    {
      "inputs": [],
      "name": "locked",
      "outputs": [
        {
          "internalType": "bool",
          "name": "",
          "type": "bool"
        }
      ],
      "stateMutability": "view",
      "type": "function"
    },
    {
      "inputs": [],
      "name": "milestone",
      "outputs": [
        {
          "internalType": "uint256",
          "name": "",
          "type": "uint256"
        }
      ],
      "stateMutability": "view",
      "type": "function"
    },
    {
      "inputs": [],
      "name": "provider",
      "outputs": [
        {
          "internalType": "address",
          "name": "",
          "type": "address"
        }
      ],
      "stateMutability": "view",
      "type": "function"
    },
    {
      "inputs": [
        {
          "internalType": "uint256",
          "name": "_milestone",
          "type": "uint256"
        }
      ],
      "name": "release",
      "outputs": [],
      "stateMutability": "nonpayable",
      "type": "function"
    },
    {
      "inputs": [],
      "name": "release",
      "outputs": [],
      "stateMutability": "nonpayable",
      "type": "function"
    },
    {
      "inputs": [
        {
          "internalType": "address",
          "name": "_token",
          "type": "address"
        }
      ],
      "name": "releaseTokens",
      "outputs": [],
      "stateMutability": "nonpayable",
      "type": "function"
    },
    {
      "inputs": [],
      "name": "released",
      "outputs": [
        {
          "internalType": "uint256",
          "name": "",
          "type": "uint256"
        }
      ],
      "stateMutability": "view",
      "type": "function"
    },
    {
      "inputs": [],
      "name": "resolutionRate",
      "outputs": [
        {
          "internalType": "uint256",
          "name": "",
          "type": "uint256"
        }
      ],
      "stateMutability": "view",
      "type": "function"
    },
    {
      "inputs": [
        {
          "internalType": "uint256",
          "name": "_clientAward",
          "type": "uint256"
        },
        {
          "internalType": "uint256",
          "name": "_providerAward",
          "type": "uint256"
        },
        {
          "internalType": "bytes32",
          "name": "_details",
          "type": "bytes32"
        }
      ],
      "name": "resolve",
      "outputs": [],
      "stateMutability": "nonpayable",
      "type": "function"
    },
    {
      "inputs": [],
      "name": "resolver",
      "outputs": [
        {
          "internalType": "address",
          "name": "",
          "type": "address"
        }
      ],
      "stateMutability": "view",
      "type": "function"
    },
    {
      "inputs": [],
      "name": "resolverType",
      "outputs": [
        {
          "internalType": "enum SmartInvoice.ADR",
          "name": "",
          "type": "uint8"
        }
      ],
      "stateMutability": "view",
      "type": "function"
    },
    {
      "inputs": [
        {
          "internalType": "uint256",
          "name": "_disputeId",
          "type": "uint256"
        },
        {
          "internalType": "uint256",
          "name": "_ruling",
          "type": "uint256"
        }
      ],
      "name": "rule",
      "outputs": [],
      "stateMutability": "nonpayable",
      "type": "function"
    },
    {
      "inputs": [],
      "name": "terminationTime",
      "outputs": [
        {
          "internalType": "uint256",
          "name": "",
          "type": "uint256"
        }
      ],
      "stateMutability": "view",
      "type": "function"
    },
    {
      "inputs": [],
      "name": "token",
      "outputs": [
        {
          "internalType": "address",
          "name": "",
          "type": "address"
        }
      ],
      "stateMutability": "view",
      "type": "function"
    },
    {
      "inputs": [],
      "name": "total",
      "outputs": [
        {
          "internalType": "uint256",
          "name": "",
          "type": "uint256"
        }
      ],
      "stateMutability": "view",
      "type": "function"
    },
    {
      "inputs": [],
      "name": "verify",
      "outputs": [],
      "stateMutability": "nonpayable",
      "type": "function"
    },
    {
      "inputs": [],
      "name": "withdraw",
      "outputs": [],
      "stateMutability": "nonpayable",
      "type": "function"
    },
    {
      "inputs": [
        {
          "internalType": "address",
          "name": "_token",
          "type": "address"
        }
      ],
      "name": "withdrawTokens",
      "outputs": [],
      "stateMutability": "nonpayable",
      "type": "function"
    },
    {
      "inputs": [],
      "name": "wrappedNativeToken",
      "outputs": [
        {
          "internalType": "address",
          "name": "",
          "type": "address"
        }
      ],
      "stateMutability": "view",
      "type": "function"
    },
    {
      "stateMutability": "payable",
      "type": "receive"
    }
  ],
  "bytecode": "0x6001610140818152610160829052608090815261018082815260006101a081905260a09190915260036101c08181526101e085905260c05261020084815261022085905260e05261024084815261026091909152610100526102c06040526102809081526102a0929092526101209190915262000081906002906006620000a9565b506000601155600060135560006014553480156200009e57600080fd5b5060018055620001bc565b8260068101928215620000e8579160200282015b82811115620000e8578251620000d79083906002620000fa565b5091602001919060010190620000bd565b50620000f692915062000190565b5090565b600183019183908215620001825791602002820160005b838211156200015157835183826101000a81548160ff021916908360ff160217905550926020019260010160208160000104928301926001030262000111565b8015620001805782816101000a81549060ff021916905560010160208160000104928301926001030262000151565b505b50620000f6929150620001a6565b80821115620000f6576000815560010162000190565b80821115620000f6576000815560010162000190565b612e2f80620001cc6000396000f3fe6080604052600436106101dc5760003560e01c80635ce6288c11610102578063ce4254ce11610095578063e86dad2411610064578063e86dad2414610644578063f51cf9271461065c578063fc0c546a1461068e578063fc735e99146106ae57610317565b8063ce4254ce146105d9578063cf309012146105ef578063dbac780614610619578063e38f48611461062f57610317565b806387b0be48116100d157806387b0be481461056d578063946f2e481461058d57806396132521146105a3578063a7d07c82146105b957610317565b80635ce6288c146104f557806370ff6bd71461050a578063868af2241461053857806386d1a69f1461055857610317565b80632e77c8d21161017a5780633d370b4e116101495780633d370b4e1461047d57806345f0a44f1461049f57806349df728c146104bf578063565974d3146104df57610317565b80632e77c8d214610412578063311a6c561461042857806337bdc99b146104485780633ccfd60b1461046857610317565b8063109e94cf116101b6578063109e94cf1461038e57806317fcb39b146103ae578063185472ef146103ce5780632ddbd13a146103ee57610317565b806301670ba91461031c57806304f3bcec14610331578063085d48831461036e57610317565b366103175760125460ff161561020d5760405162461bcd60e51b815260040161020490612c41565b60405180910390fd5b600854600c546001600160a01b039081169116146102635760405162461bcd60e51b815260206004820152601360248201527210bbb930b83832b22730ba34bb32aa37b5b2b760691b6044820152606401610204565b600860009054906101000a90046001600160a01b03166001600160a01b031663d0e30db0346040518263ffffffff1660e01b81526004016000604051808303818588803b1580156102b357600080fd5b505af11580156102c7573d6000803e3d6000fd5b50505050506102d33390565b6001600160a01b03167fe1fffcc4923d04b559f4d29a8bfc6cda04eb5b0d3c460751c2402c5c5cc9109c3460405161030d91815260200190565b60405180910390a2005b600080fd5b61032f61032a366004612a1a565b6106c3565b005b34801561033d57600080fd5b50600b54610351906001600160a01b031681565b6040516001600160a01b0390911681526020015b60405180910390f35b34801561037a57600080fd5b50600a54610351906001600160a01b031681565b34801561039a57600080fd5b50600954610351906001600160a01b031681565b3480156103ba57600080fd5b50600854610351906001600160a01b031681565b3480156103da57600080fd5b5061032f6103e93660046128e1565b610998565b3480156103fa57600080fd5b5061040460115481565b604051908152602001610365565b34801561041e57600080fd5b5061040460155481565b34801561043457600080fd5b5061032f610443366004612a4a565b610e9d565b34801561045457600080fd5b5061032f610463366004612a1a565b6112c4565b34801561047457600080fd5b5061032f611615565b34801561048957600080fd5b5061049261164b565b6040516103659190612b18565b3480156104ab57600080fd5b506104046104ba366004612a1a565b6116a3565b3480156104cb57600080fd5b5061032f6104da3660046128c7565b6116c4565b3480156104eb57600080fd5b50610404600f5481565b34801561050157600080fd5b50610404600581565b34801561051657600080fd5b50600a5461052b90600160a01b900460ff1681565b6040516103659190612b97565b34801561054457600080fd5b5061032f6105533660046129be565b61180d565b34801561056457600080fd5b5061032f611b83565b34801561057957600080fd5b5061032f6105883660046128c7565b611bb3565b34801561059957600080fd5b50610404600e5481565b3480156105af57600080fd5b5061040460145481565b3480156105c557600080fd5b5061032f6105d4366004612a6b565b611cc3565b3480156105e557600080fd5b50610404600d5481565b3480156105fb57600080fd5b506012546106099060ff1681565b6040519015158152602001610365565b34801561062557600080fd5b5061040460135481565b34801561063b57600080fd5b5061032f611fc7565b34801561065057600080fd5b506104046303c30ab081565b34801561066857600080fd5b5061067c610677366004612a4a565b612035565b60405160ff9091168152602001610365565b34801561069a57600080fd5b50600c54610351906001600160a01b031681565b3480156106ba57600080fd5b5061032f612071565b600260015414156106e65760405162461bcd60e51b815260040161020490612c87565b600260015560125460ff161561070e5760405162461bcd60e51b815260040161020490612c41565b600c546040516370a0823160e01b81523060048201526000916001600160a01b0316906370a082319060240160206040518083038186803b15801561075257600080fd5b505afa158015610766573d6000803e3d6000fd5b505050506040513d601f19601f8201168201806040525081019061078a9190612a32565b9050600081116107ac5760405162461bcd60e51b815260040161020490612c61565b600d5442106107ea5760405162461bcd60e51b815260206004820152600a6024820152691d195c9b5a5b985d195960b21b6044820152606401610204565b6009546001600160a01b0316336001600160a01b0316148061081f5750600a546001600160a01b0316336001600160a01b0316145b6108545760405162461bcd60e51b815260206004820152600660248201526521706172747960d01b6044820152606401610204565b6001600a54600160a01b900460ff16600181111561088257634e487b7160e01b600052602160045260246000fd5b141561093a57600b54600f546040516001600160a01b039092169163c13517e19134916005916108b89160200190815260200190565b6040516020818303038152906040526040518463ffffffff1660e01b81526004016108e4929190612cbe565b6020604051808303818588803b1580156108fd57600080fd5b505af1158015610911573d6000803e3d6000fd5b50505050506040513d601f19601f820116820180604052508101906109369190612a32565b6015555b6012805460ff1916600117905561094e3390565b6001600160a01b03167fe55f8011a92f4874f2b5795bfe755853e25c72d78f99ce599a78e505178ba2408360405161098891815260200190565b60405180910390a2505060018055565b60006109a460016120d5565b905080156109bc576000805461ff0019166101001790555b6001600160a01b038d16610a035760405162461bcd60e51b815260206004820152600e60248201526d1a5b9d985b1a590818db1a595b9d60921b6044820152606401610204565b6001600160a01b038c16610a4c5760405162461bcd60e51b815260206004820152601060248201526f34b73b30b634b210383937bb34b232b960811b6044820152606401610204565b600160ff8c161115610a975760405162461bcd60e51b8152602060048201526014602482015273696e76616c6964207265736f6c7665725479706560601b6044820152606401610204565b6001600160a01b038a16610ae05760405162461bcd60e51b815260206004820152601060248201526f34b73b30b634b2103932b9b7b63b32b960811b6044820152606401610204565b6001600160a01b038916610b265760405162461bcd60e51b815260206004820152600d60248201526c34b73b30b634b2103a37b5b2b760991b6044820152606401610204565b428611610b665760405162461bcd60e51b815260206004820152600e60248201526d191d5c985d1a5bdb88195b99195960921b6044820152606401610204565b610b746303c30ab042612cd7565b861115610bb75760405162461bcd60e51b81526020600482015260116024820152706475726174696f6e20746f6f206c6f6e6760781b6044820152606401610204565b60008511610c005760405162461bcd60e51b8152602060048201526016602482015275696e76616c6964207265736f6c7574696f6e5261746560501b6044820152606401610204565b6001600160a01b038316610c565760405162461bcd60e51b815260206004820152601a60248201527f696e76616c696420777261707065644e6174697665546f6b656e0000000000006044820152606401610204565b8c600960006101000a8154816001600160a01b0302191690836001600160a01b031602179055508b600a60006101000a8154816001600160a01b0302191690836001600160a01b031602179055508a60ff166001811115610cc757634e487b7160e01b600052602160045260246000fd5b600a805460ff60a01b1916600160a01b836001811115610cf757634e487b7160e01b600052602160045260246000fd5b0217905550600b80546001600160a01b03808d166001600160a01b031992831617909255600c8054928c1692909116919091179055610d38601089896127c0565b5060005b601054811015610d945760108181548110610d6757634e487b7160e01b600052603260045260246000fd5b9060005260206000200154601154610d7f9190612cd7565b60115580610d8c81612d9a565b915050610d3c565b50600d869055600e859055600f849055600880546001600160a01b0319166001600160a01b0385161790558115610dfc5760405130906001600160a01b038f16907f78a953f3f0d92abc078a34e5d4fedf8708e788e1b29300b3d6170e97f88a13fc90600090a35b8b6001600160a01b03168d6001600160a01b03167f43e5ba57af2a3f1229a242de4441239d77270342ff0fae068bdd64676b0ffd1f6010604051610e409190612b5c565b60405180910390a38015610e8e576000805461ff0019169055604051600181527f7f26b83ff96e1f2b6a682f133852f6798a09c465da95921460cefb38474024989060200160405180910390a15b50505050505050505050505050565b60026001541415610ec05760405162461bcd60e51b815260040161020490612c87565b60026001908155600a54600160a01b900460ff166001811115610ef357634e487b7160e01b600052602160045260246000fd5b14610f375760405162461bcd60e51b815260206004820152601460248201527310b0b93134ba3930ba37b9103932b9b7b63b32b960611b6044820152606401610204565b60125460ff16610f735760405162461bcd60e51b8152602060048201526007602482015266085b1bd8dad95960ca1b6044820152606401610204565b600b546001600160a01b0316336001600160a01b031614610fc25760405162461bcd60e51b815260206004820152600960248201526810b932b9b7b63b32b960b91b6044820152606401610204565b60155482146110095760405162461bcd60e51b81526020600482015260136024820152721a5b98dbdc9c9958dd08191a5cdc1d5d195259606a1b6044820152606401610204565b600581111561104b5760405162461bcd60e51b815260206004820152600e60248201526d696e76616c69642072756c696e6760901b6044820152606401610204565b600c546040516370a0823160e01b81523060048201526000916001600160a01b0316906370a082319060240160206040518083038186803b15801561108f57600080fd5b505afa1580156110a3573d6000803e3d6000fd5b505050506040513d601f19601f820116820180604052508101906110c79190612a32565b9050600081116110e95760405162461bcd60e51b815260040161020490612c61565b60006002836006811061110c57634e487b7160e01b600052603260045260246000fd5b6040805180820191829052929190910190600290826000855b825461010083900a900460ff168152602060019283018181049485019490930390920291018084116111255790505050505050905060008160006002811061117d57634e487b7160e01b600052603260045260246000fd5b60200201519050600082600160200201519050600061119c8284612cef565b905060008160ff168360ff16876111b39190612d34565b6111bd9190612d14565b905060006111cb8288612d53565b905081156111f057600a54600c546111f0916001600160a01b0391821691168461215b565b801561121357600954600c54611213916001600160a01b0391821691168361215b565b6010546013556012805460ff19169055600b5460408051838152602081018590529081018a90526001600160a01b03909116907ff08a08afe8a39853d7db7dd0a42f0cdb68a64ee36a554e68c32219f381e5669e9060600160405180910390a2600b546040518981528a916001600160a01b0316907f394027a5fa6e098a1191094d1719d6929b9abc535fcc0c8f448d6a4e756222769060200160405180910390a350506001805550505050505050565b600260015414156112e75760405162461bcd60e51b815260040161020490612c87565b600260015560125460ff161561130f5760405162461bcd60e51b815260040161020490612c41565b6009546001600160a01b0316336001600160a01b0316146113425760405162461bcd60e51b815260040161020490612c20565b6013548110156113875760405162461bcd60e51b815260206004820152601060248201526f1b5a5b195cdd1bdb99481c185cdcd95960821b6044820152606401610204565b60105481106113cc5760405162461bcd60e51b8152602060048201526011602482015270696e76616c6964206d696c6573746f6e6560781b6044820152606401610204565b600c546040516370a0823160e01b81523060048201526000916001600160a01b0316906370a082319060240160206040518083038186803b15801561141057600080fd5b505afa158015611424573d6000803e3d6000fd5b505050506040513d601f19601f820116820180604052508101906114489190612a32565b6013549091506000905b8381116115885760105461146890600190612d53565b811480156114ab5750826010828154811061149357634e487b7160e01b600052603260045260246000fd5b9060005260206000200154836114a99190612cd7565b105b156114ea57600080516020612dda833981519152816114ca8486612d53565b6040805192835260208301919091520160405180910390a1829150611576565b600080516020612dda833981519152816010838154811061151b57634e487b7160e01b600052603260045260246000fd5b6000918252602091829020015460408051938452918301520160405180910390a16010818154811061155d57634e487b7160e01b600052603260045260246000fd5b9060005260206000200154826115739190612cd7565b91505b8061158081612d9a565b915050611452565b50808210156115d05760405162461bcd60e51b8152602060048201526014602482015273696e73756666696369656e742062616c616e636560601b6044820152606401610204565b600a54600c546115ed916001600160a01b0391821691168361215b565b806014546115fb9190612cd7565b601455611609836001612cd7565b60135550506001805550565b600260015414156116385760405162461bcd60e51b815260040161020490612c87565b60026001556116456121b2565b60018055565b6060601080548060200260200160405190810160405280929190818152602001828054801561169957602002820191906000526020600020905b815481526020019060010190808311611685575b5050505050905090565b601081815481106116b357600080fd5b600091825260209091200154905081565b600260015414156116e75760405162461bcd60e51b815260040161020490612c87565b6002600155600c546001600160a01b038281169116141561170f5761170a6121b2565b611806565b600d54421161174e5760405162461bcd60e51b815260206004820152600b60248201526a085d195c9b5a5b985d195960aa1b6044820152606401610204565b6040516370a0823160e01b81523060048201526000906001600160a01b038316906370a082319060240160206040518083038186803b15801561179057600080fd5b505afa1580156117a4573d6000803e3d6000fd5b505050506040513d601f19601f820116820180604052508101906117c89190612a32565b9050600081116117ea5760405162461bcd60e51b815260040161020490612c61565b600954611804906001600160a01b0384811691168361215b565b505b5060018055565b60125460ff16156118305760405162461bcd60e51b815260040161020490612c41565b600d54421061186e5760405162461bcd60e51b815260206004820152600a6024820152691d195c9b5a5b985d195960b21b6044820152606401610204565b6009546001600160a01b0316336001600160a01b031614806118a35750600a546001600160a01b0316336001600160a01b0316145b6118d85760405162461bcd60e51b815260206004820152600660248201526521706172747960d01b6044820152606401610204565b806119255760405162461bcd60e51b815260206004820152601d60248201527f6e6f206d696c6573746f6e657320617265206265696e672061646465640000006044820152606401610204565b600a8111156119765760405162461bcd60e51b815260206004820181905260248201527f6f6e6c79203130206e6577206d696c6573746f6e657320617420612074696d656044820152606401610204565b601054600090611987908390612cd7565b905060008167ffffffffffffffff8111156119b257634e487b7160e01b600052604160045260246000fd5b6040519080825280602002602001820160405280156119db578160200160208202803683370190505b5060115490915060005b601054811015611a585760108181548110611a1057634e487b7160e01b600052603260045260246000fd5b9060005260206000200154838281518110611a3b57634e487b7160e01b600052603260045260246000fd5b602090810291909101015280611a5081612d9a565b9150506119e5565b506010545b83811015611b195760105486908690611a769084612d53565b818110611a9357634e487b7160e01b600052603260045260246000fd5b90506020020135838281518110611aba57634e487b7160e01b600052603260045260246000fd5b602090810291909101015260105486908690611ad69084612d53565b818110611af357634e487b7160e01b600052603260045260246000fd5b9050602002013582611b059190612cd7565b915080611b1181612d9a565b915050611a5d565b5060118190558151611b3290601090602085019061280b565b5060095460405130916001600160a01b0316907f526d23025be18fff4f70c0855a5d4a85c210a6b4f7d98067aade79c06563667a90611b749089908990612ade565b60405180910390a35050505050565b60026001541415611ba65760405162461bcd60e51b815260040161020490612c87565b6002600155611645612305565b60026001541415611bd65760405162461bcd60e51b815260040161020490612c87565b6002600155600c546001600160a01b0382811691161415611bf95761170a612305565b6009546001600160a01b0316336001600160a01b031614611c2c5760405162461bcd60e51b815260040161020490612c20565b6040516370a0823160e01b81523060048201526000906001600160a01b038316906370a082319060240160206040518083038186803b158015611c6e57600080fd5b505afa158015611c82573d6000803e3d6000fd5b505050506040513d601f19601f82011682018060405250810190611ca69190612a32565b600a54909150611804906001600160a01b0384811691168361215b565b60026001541415611ce65760405162461bcd60e51b815260040161020490612c87565b60026001556000600a54600160a01b900460ff166001811115611d1957634e487b7160e01b600052602160045260246000fd5b14611d5d5760405162461bcd60e51b815260206004820152601460248201527310b4b73234bb34b23ab0b6103932b9b7b63b32b960611b6044820152606401610204565b60125460ff16611d995760405162461bcd60e51b8152602060048201526007602482015266085b1bd8dad95960ca1b6044820152606401610204565b600c546040516370a0823160e01b81523060048201526000916001600160a01b0316906370a082319060240160206040518083038186803b158015611ddd57600080fd5b505afa158015611df1573d6000803e3d6000fd5b505050506040513d601f19601f82011682018060405250810190611e159190612a32565b905060008111611e375760405162461bcd60e51b815260040161020490612c61565b600b546001600160a01b0316336001600160a01b031614611e865760405162461bcd60e51b815260206004820152600960248201526810b932b9b7b63b32b960b91b6044820152606401610204565b6000600e5482611e969190612d14565b9050611ea28183612d53565b611eac8587612cd7565b14611ef95760405162461bcd60e51b815260206004820152601760248201527f7265736f6c7574696f6e20213d2072656d61696e6465720000000000000000006044820152606401610204565b8315611f1c57600a54600c54611f1c916001600160a01b0391821691168661215b565b8415611f3f57600954600c54611f3f916001600160a01b0391821691168761215b565b8015611f6257600b54600c54611f62916001600160a01b0391821691168361215b565b6010546013556012805460ff19169055604080518681526020810186905280820183905260608101859052905133917f27035e6ed643518ecfca2b08593fd24d4ae4caba6ce5bab683e9b31a12a5b299919081900360800190a2505060018055505050565b6000611fd360016120d5565b90508015611feb576000805461ff0019166101001790555b8015612032576000805461ff0019169055604051600181527f7f26b83ff96e1f2b6a682f133852f6798a09c465da95921460cefb3847402498906020015b60405180910390a15b50565b6002826006811061204557600080fd5b01816002811061205457600080fd5b602081049091015460ff601f9092166101000a9004169150829050565b6009546001600160a01b0316331461209b5760405162461bcd60e51b815260040161020490612c20565b60095460405130916001600160a01b0316907f78a953f3f0d92abc078a34e5d4fedf8708e788e1b29300b3d6170e97f88a13fc90600090a3565b60008054610100900460ff161561211c578160ff1660011480156120f85750303b155b6121145760405162461bcd60e51b815260040161020490612bd2565b506000612156565b60005460ff8084169116106121435760405162461bcd60e51b815260040161020490612bd2565b506000805460ff191660ff831617905560015b919050565b604080516001600160a01b038416602482015260448082018490528251808303909101815260649091019091526020810180516001600160e01b031663a9059cbb60e01b1790526121ad90849061256b565b505050565b60125460ff16156121d55760405162461bcd60e51b815260040161020490612c41565b600d5442116122145760405162461bcd60e51b815260206004820152600b60248201526a085d195c9b5a5b985d195960aa1b6044820152606401610204565b600c546040516370a0823160e01b81523060048201526000916001600160a01b0316906370a082319060240160206040518083038186803b15801561225857600080fd5b505afa15801561226c573d6000803e3d6000fd5b505050506040513d601f19601f820116820180604052508101906122909190612a32565b9050600081116122b25760405162461bcd60e51b815260040161020490612c61565b600954600c546122cf916001600160a01b0391821691168361215b565b6010546013556040518181527f5b6b431d4476a211bb7d41c20d1aab9ae2321deee0d20be3d9fc9b1093fa6e3d90602001612029565b60125460ff16156123285760405162461bcd60e51b815260040161020490612c41565b6009546001600160a01b0316336001600160a01b03161461235b5760405162461bcd60e51b815260040161020490612c20565b601354600c546040516370a0823160e01b81523060048201526000916001600160a01b0316906370a082319060240160206040518083038186803b1580156123a257600080fd5b505afa1580156123b6573d6000803e3d6000fd5b505050506040513d601f19601f820116820180604052508101906123da9190612a32565b6010549091508210156124f15760006010838154811061240a57634e487b7160e01b600052603260045260246000fd5b9060005260206000200154905060016010805490506124299190612d53565b8314801561243657508181105b1561243e5750805b808210156124855760405162461bcd60e51b8152602060048201526014602482015273696e73756666696369656e742062616c616e636560601b6044820152606401610204565b601354612493906001612cd7565b601355600a54600c546124b3916001600160a01b0391821691168361215b565b806014546124c19190612cd7565b6014556040805184815260208101839052600080516020612dda833981519152910160405180910390a150612567565b600081116125115760405162461bcd60e51b815260040161020490612c61565b600a54600c5461252e916001600160a01b0391821691168361215b565b8060145461253c9190612cd7565b6014556040805183815260208101839052600080516020612dda833981519152910160405180910390a15b5050565b60006125c0826040518060400160405280602081526020017f5361666545524332303a206c6f772d6c6576656c2063616c6c206661696c6564815250856001600160a01b031661263d9092919063ffffffff16565b8051909150156121ad57808060200190518101906125de91906129fe565b6121ad5760405162461bcd60e51b815260206004820152602a60248201527f5361666545524332303a204552433230206f7065726174696f6e20646964206e6044820152691bdd081cdd58d8d9595960b21b6064820152608401610204565b606061264c8484600085612656565b90505b9392505050565b6060824710156126b75760405162461bcd60e51b815260206004820152602660248201527f416464726573733a20696e73756666696369656e742062616c616e636520666f6044820152651c8818d85b1b60d21b6064820152608401610204565b6001600160a01b0385163b61270e5760405162461bcd60e51b815260206004820152601d60248201527f416464726573733a2063616c6c20746f206e6f6e2d636f6e74726163740000006044820152606401610204565b600080866001600160a01b0316858760405161272a9190612ac2565b60006040518083038185875af1925050503d8060008114612767576040519150601f19603f3d011682016040523d82523d6000602084013e61276c565b606091505b509150915061277c828286612787565b979650505050505050565b6060831561279657508161264f565b8251156127a65782518084602001fd5b8160405162461bcd60e51b81526004016102049190612bbf565b8280548282559060005260206000209081019282156127fb579160200282015b828111156127fb5782358255916020019190600101906127e0565b50612807929150612846565b5090565b8280548282559060005260206000209081019282156127fb579160200282015b828111156127fb57825182559160200191906001019061282b565b5b808211156128075760008155600101612847565b80356001600160a01b038116811461215657600080fd5b60008083601f840112612883578182fd5b50813567ffffffffffffffff81111561289a578182fd5b6020830191508360208260051b85010111156128b557600080fd5b9250929050565b803561215681612dcb565b6000602082840312156128d8578081fd5b61264f8261285b565b6000806000806000806000806000806000806101608d8f031215612903578788fd5b61290c8d61285b565b9b5061291a60208e0161285b565b9a5060408d013560ff8116811461292f578889fd5b995061293d60608e0161285b565b985061294b60808e0161285b565b975067ffffffffffffffff60a08e01351115612965578687fd5b6129758e60a08f01358f01612872565b909750955060c08d0135945060e08d013593506101008d0135925061299d6101208e0161285b565b91506129ac6101408e016128bc565b90509295989b509295989b509295989b565b600080602083850312156129d0578182fd5b823567ffffffffffffffff8111156129e6578283fd5b6129f285828601612872565b90969095509350505050565b600060208284031215612a0f578081fd5b815161264f81612dcb565b600060208284031215612a2b578081fd5b5035919050565b600060208284031215612a43578081fd5b5051919050565b60008060408385031215612a5c578182fd5b50508035926020909101359150565b600080600060608486031215612a7f578283fd5b505081359360208301359350604090920135919050565b60008151808452612aae816020860160208601612d6a565b601f01601f19169290920160200192915050565b60008251612ad4818460208701612d6a565b9190910192915050565b6020808252810182905260006001600160fb1b03831115612afd578081fd5b8260051b808560408501379190910160400190815292915050565b6020808252825182820181905260009190848201906040850190845b81811015612b5057835183529284019291840191600101612b34565b50909695505050505050565b6020808252825482820181905260008481528281209092916040850190845b81811015612b5057835483526001938401939285019201612b7b565b6020810160028310612bb957634e487b7160e01b600052602160045260246000fd5b91905290565b60006020825261264f6020830184612a96565b6020808252602e908201527f496e697469616c697a61626c653a20636f6e747261637420697320616c72656160408201526d191e481a5b9a5d1a585b1a5e995960921b606082015260800190565b6020808252600790820152660858db1a595b9d60ca1b604082015260600190565b6020808252600690820152651b1bd8dad95960d21b604082015260600190565b6020808252600c908201526b062616c616e636520697320360a41b604082015260600190565b6020808252601f908201527f5265656e7472616e637947756172643a207265656e7472616e742063616c6c00604082015260600190565b60008382526040602083015261264c6040830184612a96565b60008219821115612cea57612cea612db5565b500190565b600060ff821660ff84168060ff03821115612d0c57612d0c612db5565b019392505050565b600082612d2f57634e487b7160e01b81526012600452602481fd5b500490565b6000816000190483118215151615612d4e57612d4e612db5565b500290565b600082821015612d6557612d65612db5565b500390565b60005b83811015612d85578181015183820152602001612d6d565b83811115612d94576000848401525b50505050565b6000600019821415612dae57612dae612db5565b5060010190565b634e487b7160e01b600052601160045260246000fd5b801515811461203257600080fdfe99f6215451102cb496830dfd718a41ae7fb7d92607137ea8961d076bea55c5d3a2646970667358221220d9b1058cb081d9ea8548ddae7ea2c355696ad4f42d3018e6eeb16e770e0024aa64736f6c63430008030033",
  "linkReferences": {},
  "deployedLinkReferences": {}
}