{
  "_format": "hh-sol-artifact-1",
  "contractName": "SmartInvoiceFactory01",
  "sourceName": "contracts/SmartInvoiceFactory.sol",
  "abi": [
    {
      "inputs": [
        {
          "internalType": "address",
          "name": "_wrappedNativeToken",
          "type": "address"
        }
      ],
      "stateMutability": "nonpayable",
      "type": "constructor"
    },
    {
      "anonymous": false,
      "inputs": [
        {
          "indexed": true,
          "internalType": "bytes32",
          "name": "name",
          "type": "bytes32"
        },
        {
          "indexed": true,
          "internalType": "uint256",
          "name": "version",
          "type": "uint256"
        },
        {
          "indexed": false,
          "internalType": "address",
          "name": "implementation",
          "type": "address"
        }
      ],
      "name": "AddImplementation",
      "type": "event"
    },
    {
      "anonymous": false,
      "inputs": [
        {
          "indexed": true,
          "internalType": "uint256",
          "name": "index",
          "type": "uint256"
        },
        {
          "indexed": true,
          "internalType": "address",
          "name": "invoice",
          "type": "address"
        },
        {
          "indexed": false,
          "internalType": "uint256[]",
          "name": "amounts",
          "type": "uint256[]"
        },
        {
          "indexed": false,
          "internalType": "bytes32",
          "name": "invoiceType",
          "type": "bytes32"
        },
        {
          "indexed": false,
          "internalType": "uint256",
          "name": "version",
          "type": "uint256"
        }
      ],
      "name": "LogNewInvoice",
      "type": "event"
    },
    {
      "anonymous": false,
      "inputs": [
        {
          "indexed": true,
          "internalType": "bytes32",
          "name": "role",
          "type": "bytes32"
        },
        {
          "indexed": true,
          "internalType": "bytes32",
          "name": "previousAdminRole",
          "type": "bytes32"
        },
        {
          "indexed": true,
          "internalType": "bytes32",
          "name": "newAdminRole",
          "type": "bytes32"
        }
      ],
      "name": "RoleAdminChanged",
      "type": "event"
    },
    {
      "anonymous": false,
      "inputs": [
        {
          "indexed": true,
          "internalType": "bytes32",
          "name": "role",
          "type": "bytes32"
        },
        {
          "indexed": true,
          "internalType": "address",
          "name": "account",
          "type": "address"
        },
        {
          "indexed": true,
          "internalType": "address",
          "name": "sender",
          "type": "address"
        }
      ],
      "name": "RoleGranted",
      "type": "event"
    },
    {
      "anonymous": false,
      "inputs": [
        {
          "indexed": true,
          "internalType": "bytes32",
          "name": "role",
          "type": "bytes32"
        },
        {
          "indexed": true,
          "internalType": "address",
          "name": "account",
          "type": "address"
        },
        {
          "indexed": true,
          "internalType": "address",
          "name": "sender",
          "type": "address"
        }
      ],
      "name": "RoleRevoked",
      "type": "event"
    },
    {
      "anonymous": false,
      "inputs": [
        {
          "indexed": true,
          "internalType": "address",
          "name": "resolver",
          "type": "address"
        },
        {
          "indexed": true,
          "internalType": "uint256",
          "name": "resolutionRate",
          "type": "uint256"
        },
        {
          "indexed": false,
          "internalType": "bytes32",
          "name": "details",
          "type": "bytes32"
        }
      ],
      "name": "UpdateResolutionRate",
      "type": "event"
    },
    {
      "inputs": [],
      "name": "ADMIN",
      "outputs": [
        {
          "internalType": "bytes32",
          "name": "",
          "type": "bytes32"
        }
      ],
      "stateMutability": "view",
      "type": "function"
    },
    {
      "inputs": [],
      "name": "DEFAULT_ADMIN_ROLE",
      "outputs": [
        {
          "internalType": "bytes32",
          "name": "",
          "type": "bytes32"
        }
      ],
      "stateMutability": "view",
      "type": "function"
    },
    {
      "inputs": [
        {
          "internalType": "bytes32",
          "name": "_type",
          "type": "bytes32"
        },
        {
          "internalType": "address",
          "name": "_implementation",
          "type": "address"
        }
      ],
      "name": "addImplementation",
      "outputs": [],
      "stateMutability": "nonpayable",
      "type": "function"
    },
    {
      "inputs": [
        {
          "internalType": "address",
          "name": "_recipient",
          "type": "address"
        },
        {
          "internalType": "uint256[]",
          "name": "_amounts",
          "type": "uint256[]"
        },
        {
          "internalType": "bytes",
          "name": "_data",
          "type": "bytes"
        },
        {
          "internalType": "bytes32",
          "name": "_type",
          "type": "bytes32"
        }
      ],
      "name": "create",
      "outputs": [
        {
          "internalType": "address",
          "name": "",
          "type": "address"
        }
      ],
      "stateMutability": "nonpayable",
      "type": "function"
    },
    {
      "inputs": [
        {
          "internalType": "address",
          "name": "_recipient",
          "type": "address"
        },
        {
          "internalType": "uint256[]",
          "name": "_amounts",
          "type": "uint256[]"
        },
        {
          "internalType": "bytes",
          "name": "_data",
          "type": "bytes"
        },
        {
          "internalType": "bytes32",
          "name": "_type",
          "type": "bytes32"
        },
        {
          "internalType": "bytes32",
          "name": "_salt",
          "type": "bytes32"
        }
      ],
      "name": "createDeterministic",
      "outputs": [
        {
          "internalType": "address",
          "name": "",
          "type": "address"
        }
      ],
      "stateMutability": "nonpayable",
      "type": "function"
    },
    {
      "inputs": [
        {
          "internalType": "bytes32",
          "name": "",
          "type": "bytes32"
        }
      ],
      "name": "currentVersions",
      "outputs": [
        {
          "internalType": "uint256",
          "name": "",
          "type": "uint256"
        }
      ],
      "stateMutability": "view",
      "type": "function"
    },
    {
      "inputs": [
        {
          "internalType": "bytes32",
          "name": "_implementationType",
          "type": "bytes32"
        },
        {
          "internalType": "uint256",
          "name": "_implementationVersion",
          "type": "uint256"
        }
      ],
      "name": "getImplementation",
      "outputs": [
        {
          "internalType": "address",
          "name": "",
          "type": "address"
        }
      ],
      "stateMutability": "view",
      "type": "function"
    },
    {
      "inputs": [
        {
          "internalType": "uint256",
          "name": "index",
          "type": "uint256"
        }
      ],
      "name": "getInvoiceAddress",
      "outputs": [
        {
          "internalType": "address",
          "name": "",
          "type": "address"
        }
      ],
      "stateMutability": "view",
      "type": "function"
    },
    {
      "inputs": [
        {
          "internalType": "bytes32",
          "name": "role",
          "type": "bytes32"
        }
      ],
      "name": "getRoleAdmin",
      "outputs": [
        {
          "internalType": "bytes32",
          "name": "",
          "type": "bytes32"
        }
      ],
      "stateMutability": "view",
      "type": "function"
    },
    {
      "inputs": [
        {
          "internalType": "bytes32",
          "name": "role",
          "type": "bytes32"
        },
        {
          "internalType": "address",
          "name": "account",
          "type": "address"
        }
      ],
      "name": "grantRole",
      "outputs": [],
      "stateMutability": "nonpayable",
      "type": "function"
    },
    {
      "inputs": [
        {
          "internalType": "bytes32",
          "name": "role",
          "type": "bytes32"
        },
        {
          "internalType": "address",
          "name": "account",
          "type": "address"
        }
      ],
      "name": "hasRole",
      "outputs": [
        {
          "internalType": "bool",
          "name": "",
          "type": "bool"
        }
      ],
      "stateMutability": "view",
      "type": "function"
    },
    {
      "inputs": [
        {
          "internalType": "bytes32",
          "name": "",
          "type": "bytes32"
        },
        {
          "internalType": "uint256",
          "name": "",
          "type": "uint256"
        }
      ],
      "name": "implementations",
      "outputs": [
        {
          "internalType": "address",
          "name": "",
          "type": "address"
        }
      ],
      "stateMutability": "view",
      "type": "function"
    },
    {
      "inputs": [],
      "name": "invoiceCount",
      "outputs": [
        {
          "internalType": "uint256",
          "name": "",
          "type": "uint256"
        }
      ],
      "stateMutability": "view",
      "type": "function"
    },
    {
      "inputs": [
        {
          "internalType": "bytes32",
          "name": "_type",
          "type": "bytes32"
        },
        {
          "internalType": "bytes32",
          "name": "_salt",
          "type": "bytes32"
        }
      ],
      "name": "predictDeterministicAddress",
      "outputs": [
        {
          "internalType": "address",
          "name": "",
          "type": "address"
        }
      ],
      "stateMutability": "view",
      "type": "function"
    },
    {
      "inputs": [
        {
          "internalType": "bytes32",
          "name": "role",
          "type": "bytes32"
        },
        {
          "internalType": "address",
          "name": "account",
          "type": "address"
        }
      ],
      "name": "renounceRole",
      "outputs": [],
      "stateMutability": "nonpayable",
      "type": "function"
    },
    {
      "inputs": [
        {
          "internalType": "address",
          "name": "_resolver",
          "type": "address"
        }
      ],
      "name": "resolutionRateOf",
      "outputs": [
        {
          "internalType": "uint256",
          "name": "",
          "type": "uint256"
        }
      ],
      "stateMutability": "view",
      "type": "function"
    },
    {
      "inputs": [
        {
          "internalType": "address",
          "name": "",
          "type": "address"
        }
      ],
      "name": "resolutionRates",
      "outputs": [
        {
          "internalType": "uint256",
          "name": "",
          "type": "uint256"
        }
      ],
      "stateMutability": "view",
      "type": "function"
    },
    {
      "inputs": [
        {
          "internalType": "bytes32",
          "name": "role",
          "type": "bytes32"
        },
        {
          "internalType": "address",
          "name": "account",
          "type": "address"
        }
      ],
      "name": "revokeRole",
      "outputs": [],
      "stateMutability": "nonpayable",
      "type": "function"
    },
    {
      "inputs": [
        {
          "internalType": "bytes4",
          "name": "interfaceId",
          "type": "bytes4"
        }
      ],
      "name": "supportsInterface",
      "outputs": [
        {
          "internalType": "bool",
          "name": "",
          "type": "bool"
        }
      ],
      "stateMutability": "view",
      "type": "function"
    },
    {
      "inputs": [
        {
          "internalType": "uint256",
          "name": "_resolutionRate",
          "type": "uint256"
        },
        {
          "internalType": "bytes32",
          "name": "_details",
          "type": "bytes32"
        }
      ],
      "name": "updateResolutionRate",
      "outputs": [],
      "stateMutability": "nonpayable",
      "type": "function"
    },
    {
      "inputs": [],
      "name": "wrappedNativeToken",
      "outputs": [
        {
          "internalType": "address",
          "name": "",
          "type": "address"
        }
      ],
      "stateMutability": "view",
      "type": "function"
    }
  ],
  "bytecode": "0x60a060405260006001553480156200001657600080fd5b506040516200146b3803806200146b833981016040819052620000399162000187565b6001600160a01b038116620000945760405162461bcd60e51b815260206004820152601a60248201527f696e76616c696420777261707065644e6174697665546f6b656e000000000000604482015260640160405180910390fd5b6001600160601b0319606082901b16608052620000b3600033620000e6565b620000df7fdf8b4c520ffe197c5343c6f5aec59570151ef9a492f2c624fd45ddde6135ec4233620000e6565b50620001b7565b6000828152602081815260408083206001600160a01b038516845290915290205460ff1662000183576000828152602081815260408083206001600160a01b03851684529091529020805460ff19166001179055620001423390565b6001600160a01b0316816001600160a01b0316837f2f8788117e7eff1d82e926ec794901d17c78024a50270940304540a733656f0d60405160405180910390a45b5050565b60006020828403121562000199578081fd5b81516001600160a01b0381168114620001b0578182fd5b9392505050565b60805160601c611295620001d6600039600061018001526112956000f3fe608060405234801561001057600080fd5b50600436106101375760003560e01c80636d07dbf8116100b8578063a217fddf1161007c578063a217fddf1461032b578063a4ffe01314610333578063d0c1c37814610346578063d547741f14610359578063dd47595a1461036c578063fc2b2c5b146103a057610137565b80636d07dbf81461029357806375d94fea146102a657806385652d1f146102cf57806391d14854146102f85780639cc3f4e31461030b57610137565b80632f2ff15d116100ff5780632f2ff15d146102045780633054b76e1461021957806330d33e261461024d57806336568abe146102605780633d98842e1461027357610137565b806301ffc9a71461013c5780631346f0c41461016457806317fcb39b1461017b578063248a9ca3146101ba5780632a0acc6a146101dd575b600080fd5b61014f61014a366004611047565b6103b3565b60405190151581526020015b60405180910390f35b61016d60015481565b60405190815260200161015b565b6101a27f000000000000000000000000000000000000000000000000000000000000000081565b6040516001600160a01b03909116815260200161015b565b61016d6101c8366004610fe3565b60009081526020819052604090206001015490565b61016d7fdf8b4c520ffe197c5343c6f5aec59570151ef9a492f2c624fd45ddde6135ec4281565b610217610212366004610ffb565b6103ec565b005b6101a2610227366004611026565b60046020908152600092835260408084209091529082529020546001600160a01b031681565b6101a261025b366004610f56565b610416565b61021761026e366004610ffb565b6104bf565b61016d610281366004610fe3565b60056020526000908152604090205481565b6101a26102a1366004611026565b61053d565b61016d6102b4366004610eb6565b6001600160a01b031660009081526003602052604090205490565b6101a26102dd366004610fe3565b6000908152600260205260409020546001600160a01b031690565b61014f610306366004610ffb565b61057d565b61016d610319366004610eb6565b60036020526000908152604090205481565b61016d600081565b610217610341366004610ffb565b6105a6565b610217610354366004611026565b610722565b610217610367366004610ffb565b610775565b6101a261037a366004611026565b60009182526004602090815260408084209284529190529020546001600160a01b031690565b6101a26103ae366004610ed0565b61079a565b60006001600160e01b03198216637965db0b60e01b14806103e457506301ffc9a760e01b6001600160e01b03198316145b90505b919050565b6000828152602081905260409020600101546104078161083c565b6104118383610849565b505050565b600082815260056020908152604080832054600483528184208185529092528220546001600160a01b0316806104935760405162461bcd60e51b815260206004820152601d60248201527f496d706c656d656e746174696f6e20646f6573206e6f7420657869737400000060448201526064015b60405180910390fd5b600061049f82866108cd565b90506104b1818c8c8c8c8c8c8a61096d565b9a9950505050505050505050565b6001600160a01b038116331461052f5760405162461bcd60e51b815260206004820152602f60248201527f416363657373436f6e74726f6c3a2063616e206f6e6c792072656e6f756e636560448201526e103937b632b9903337b91039b2b63360891b606482015260840161048a565b6105398282610a65565b5050565b600082815260056020908152604080832054600483528184208185529092528220546001600160a01b03166105728185610aca565b925050505b92915050565b6000918252602082815260408084206001600160a01b0393909316845291905290205460ff1690565b7fdf8b4c520ffe197c5343c6f5aec59570151ef9a492f2c624fd45ddde6135ec426105d08161083c565b6001600160a01b0382166106265760405162461bcd60e51b815260206004820152601d60248201527f696d706c656d656e6174696f6e206973207a65726f2061646472657373000000604482015260640161048a565b60008381526005602090815260408083205460048352818420818552909252909120546001600160a01b03168061068e576000858152600460209081526040808320858452909152902080546001600160a01b0319166001600160a01b0386161790556106db565b6106996001836111cb565b6000868152600460209081526040808320848452825280832080546001600160a01b0319166001600160a01b038a161790558883526005909152902081905591505b6040516001600160a01b0385168152829086907fdf33d8ec3c232078d03c9971ce2b28bf0128f4ced182e73141ac8532e7d135cd9060200160405180910390a35050505050565b3360008181526003602052604090819020849055518391907f468f3544f9eb5e13d48cbf0ca5e97c47dcdc9d1639571b5da03085225426f69c906107699085815260200190565b60405180910390a35050565b6000828152602081905260409020600101546107908161083c565b6104118383610a65565b600081815260056020908152604080832054600483528184208185529092528220546001600160a01b0316806108125760405162461bcd60e51b815260206004820152601d60248201527f496d706c656d656e746174696f6e20646f6573206e6f74206578697374000000604482015260640161048a565b600061081d82610b37565b905061082f818b8b8b8b8b8b8a61096d565b9998505050505050505050565b6108468133610bcf565b50565b610853828261057d565b610539576000828152602081815260408083206001600160a01b03851684529091529020805460ff191660011790556108893390565b6001600160a01b0316816001600160a01b0316837f2f8788117e7eff1d82e926ec794901d17c78024a50270940304540a733656f0d60405160405180910390a45050565b6000604051733d602d80600a3d3981f3363d3d373d3d3d363d7360601b81528360601b60148201526e5af43d82803e903d91602b57fd5bf360881b6028820152826037826000f59150506001600160a01b0381166105775760405162461bcd60e51b815260206004820152601760248201527f455243313136373a2063726561746532206661696c6564000000000000000000604482015260640161048a565b604051630721711d60e01b81526001600160a01b03891690630721711d906109a1908a908a908a908a908a90600401611118565b600060405180830381600087803b1580156109bb57600080fd5b505af11580156109cf573d6000803e3d6000fd5b505060018054600081815260026020526040902080546001600160a01b0319166001600160a01b038e161790558154909350610a0c9250906111cb565b600181905550886001600160a01b0316817f478b7e372b26e7aaf1fed3561ef32e864f6e7940f269036921e8bc17e64f6cf189898787604051610a529493929190611171565b60405180910390a3505050505050505050565b610a6f828261057d565b15610539576000828152602081815260408083206001600160a01b0385168085529252808320805460ff1916905551339285917ff6391f5c32d9c69d2a47ea670b442974b53935d1edc7fd64eb21e047a839171b9190a45050565b6000610b30838330604051733d602d80600a3d3981f3363d3d373d3d3d363d7360601b8152606093841b60148201526f5af43d82803e903d91602b57fd5bf3ff60801b6028820152921b6038830152604c8201526037808220606c830152605591012090565b9392505050565b6000604051733d602d80600a3d3981f3363d3d373d3d3d363d7360601b81528260601b60148201526e5af43d82803e903d91602b57fd5bf360881b60288201526037816000f09150506001600160a01b0381166103e75760405162461bcd60e51b8152602060048201526016602482015275115490cc4c4d8dce8818dc99585d194819985a5b195960521b604482015260640161048a565b610bd9828261057d565b61053957610bf1816001600160a01b03166014610c33565b610bfc836020610c33565b604051602001610c0d9291906110a3565b60408051601f198184030181529082905262461bcd60e51b825261048a91600401611198565b60606000610c428360026111e3565b610c4d9060026111cb565b67ffffffffffffffff811115610c7357634e487b7160e01b600052604160045260246000fd5b6040519080825280601f01601f191660200182016040528015610c9d576020820181803683370190505b509050600360fc1b81600081518110610cc657634e487b7160e01b600052603260045260246000fd5b60200101906001600160f81b031916908160001a905350600f60fb1b81600181518110610d0357634e487b7160e01b600052603260045260246000fd5b60200101906001600160f81b031916908160001a9053506000610d278460026111e3565b610d329060016111cb565b90505b6001811115610dc6576f181899199a1a9b1b9c1cb0b131b232b360811b85600f1660108110610d7457634e487b7160e01b600052603260045260246000fd5b1a60f81b828281518110610d9857634e487b7160e01b600052603260045260246000fd5b60200101906001600160f81b031916908160001a90535060049490941c93610dbf81611232565b9050610d35565b508315610b305760405162461bcd60e51b815260206004820181905260248201527f537472696e67733a20686578206c656e67746820696e73756666696369656e74604482015260640161048a565b80356001600160a01b03811681146103e757600080fd5b60008083601f840112610e3d578182fd5b50813567ffffffffffffffff811115610e54578182fd5b6020830191508360208260051b8501011115610e6f57600080fd5b9250929050565b60008083601f840112610e87578182fd5b50813567ffffffffffffffff811115610e9e578182fd5b602083019150836020828501011115610e6f57600080fd5b600060208284031215610ec7578081fd5b610b3082610e15565b60008060008060008060808789031215610ee8578182fd5b610ef187610e15565b9550602087013567ffffffffffffffff80821115610f0d578384fd5b610f198a838b01610e2c565b90975095506040890135915080821115610f31578384fd5b50610f3e89828a01610e76565b979a9699509497949695606090950135949350505050565b600080600080600080600060a0888a031215610f70578081fd5b610f7988610e15565b9650602088013567ffffffffffffffff80821115610f95578283fd5b610fa18b838c01610e2c565b909850965060408a0135915080821115610fb9578283fd5b50610fc68a828b01610e76565b989b979a5095989597966060870135966080013595509350505050565b600060208284031215610ff4578081fd5b5035919050565b6000806040838503121561100d578182fd5b8235915061101d60208401610e15565b90509250929050565b60008060408385031215611038578182fd5b50508035926020909101359150565b600060208284031215611058578081fd5b81356001600160e01b031981168114610b30578182fd5b81835260006001600160fb1b03831115611087578081fd5b8260051b80836020870137939093016020019283525090919050565b60007f416363657373436f6e74726f6c3a206163636f756e7420000000000000000000825283516110db816017850160208801611202565b7001034b99036b4b9b9b4b733903937b6329607d1b601791840191820152835161110c816028840160208801611202565b01602801949350505050565b6001600160a01b038616815260606020820181905260009061113d908301868861106f565b82810360408401528381528385602083013781602085830101526020601f19601f8601168201019150509695505050505050565b60006060825261118560608301868861106f565b6020830194909452506040015292915050565b60006020825282518060208401526111b7816040850160208701611202565b601f01601f19169190910160400192915050565b600082198211156111de576111de611249565b500190565b60008160001904831182151516156111fd576111fd611249565b500290565b60005b8381101561121d578181015183820152602001611205565b8381111561122c576000848401525b50505050565b60008161124157611241611249565b506000190190565b634e487b7160e01b600052601160045260246000fdfea2646970667358221220ed94138e38a3b6e77a7eb476c0c9065c27034ba9a29f2335326023bfaebb0e0a64736f6c63430008030033",
  "linkReferences": {},
  "deployedLinkReferences": {}
}