{
  "_format": "hh-sol-artifact-1",
  "contractName": "SmartInvoice",
  "sourceName": "contracts/SmartInvoice.sol",
  "abi": [
    {
      "anonymous": false,
      "inputs": [
        {
          "indexed": true,
          "internalType": "address",
          "name": "sender",
          "type": "address"
        },
        {
          "indexed": false,
          "internalType": "uint256",
          "name": "amount",
          "type": "uint256"
        }
      ],
      "name": "Deposit",
      "type": "event"
    },
    {
      "anonymous": false,
      "inputs": [
        {
          "indexed": true,
          "internalType": "address",
          "name": "sender",
          "type": "address"
        },
        {
          "indexed": false,
          "internalType": "bytes32",
          "name": "details",
          "type": "bytes32"
        }
      ],
      "name": "DetailsUpdated",
      "type": "event"
    },
    {
      "anonymous": false,
      "inputs": [
        {
          "indexed": false,
          "internalType": "uint8",
          "name": "version",
          "type": "uint8"
        }
      ],
      "name": "Initialized",
      "type": "event"
    },
    {
      "anonymous": false,
      "inputs": [
        {
          "indexed": true,
          "internalType": "address",
          "name": "sender",
          "type": "address"
        },
        {
          "indexed": false,
          "internalType": "bytes32",
          "name": "details",
          "type": "bytes32"
        }
      ],
      "name": "Lock",
      "type": "event"
    },
    {
      "anonymous": false,
      "inputs": [
        {
          "indexed": true,
          "internalType": "address",
          "name": "sender",
          "type": "address"
        },
        {
          "indexed": true,
          "internalType": "address",
          "name": "invoice",
          "type": "address"
        },
        {
          "indexed": false,
          "internalType": "uint256[]",
          "name": "milestones",
          "type": "uint256[]"
        }
      ],
      "name": "MilestonesAdded",
      "type": "event"
    },
    {
      "anonymous": false,
      "inputs": [
        {
          "indexed": true,
          "internalType": "address",
          "name": "client",
          "type": "address"
        },
        {
          "indexed": true,
          "internalType": "address",
          "name": "provider",
          "type": "address"
        },
        {
          "indexed": false,
          "internalType": "uint256[]",
          "name": "amounts",
          "type": "uint256[]"
        }
      ],
      "name": "Register",
      "type": "event"
    },
    {
      "anonymous": false,
      "inputs": [
        {
          "indexed": false,
          "internalType": "uint256",
          "name": "milestone",
          "type": "uint256"
        },
        {
          "indexed": false,
          "internalType": "uint256",
          "name": "amount",
          "type": "uint256"
        }
      ],
      "name": "Release",
      "type": "event"
    },
    {
      "anonymous": false,
      "inputs": [
        {
          "indexed": true,
          "internalType": "address",
          "name": "resolver",
          "type": "address"
        },
        {
          "indexed": false,
          "internalType": "uint256",
          "name": "clientAward",
          "type": "uint256"
        },
        {
          "indexed": false,
          "internalType": "uint256",
          "name": "providerAward",
          "type": "uint256"
        },
        {
          "indexed": false,
          "internalType": "uint256",
          "name": "resolutionFee",
          "type": "uint256"
        },
        {
          "indexed": false,
          "internalType": "bytes32",
          "name": "details",
          "type": "bytes32"
        }
      ],
      "name": "Resolve",
      "type": "event"
    },
    {
      "anonymous": false,
      "inputs": [
        {
          "indexed": true,
          "internalType": "address",
          "name": "resolver",
          "type": "address"
        },
        {
          "indexed": false,
          "internalType": "uint256",
          "name": "clientAward",
          "type": "uint256"
        },
        {
          "indexed": false,
          "internalType": "uint256",
          "name": "providerAward",
          "type": "uint256"
        },
        {
          "indexed": false,
          "internalType": "uint256",
          "name": "ruling",
          "type": "uint256"
        }
      ],
      "name": "Rule",
      "type": "event"
    },
    {
      "anonymous": false,
      "inputs": [
        {
          "indexed": true,
          "internalType": "address",
          "name": "_arbitrator",
          "type": "address"
        },
        {
          "indexed": true,
          "internalType": "uint256",
          "name": "_disputeID",
          "type": "uint256"
        },
        {
          "indexed": false,
          "internalType": "uint256",
          "name": "_ruling",
          "type": "uint256"
        }
      ],
      "name": "Ruling",
      "type": "event"
    },
    {
      "anonymous": false,
      "inputs": [
        {
          "indexed": true,
          "internalType": "address",
          "name": "client",
          "type": "address"
        },
        {
          "indexed": true,
          "internalType": "address",
          "name": "invoice",
          "type": "address"
        }
      ],
      "name": "Verified",
      "type": "event"
    },
    {
      "anonymous": false,
      "inputs": [
        {
          "indexed": false,
          "internalType": "uint256",
          "name": "balance",
          "type": "uint256"
        }
      ],
      "name": "Withdraw",
      "type": "event"
    },
    {
      "inputs": [],
      "name": "MAX_TERMINATION_TIME",
      "outputs": [
        {
          "internalType": "uint256",
          "name": "",
          "type": "uint256"
        }
      ],
      "stateMutability": "view",
      "type": "function"
    },
    {
      "inputs": [],
      "name": "NUM_RULING_OPTIONS",
      "outputs": [
        {
          "internalType": "uint256",
          "name": "",
          "type": "uint256"
        }
      ],
      "stateMutability": "view",
      "type": "function"
    },
    {
      "inputs": [
        {
          "internalType": "uint256",
          "name": "",
          "type": "uint256"
        },
        {
          "internalType": "uint256",
          "name": "",
          "type": "uint256"
        }
      ],
      "name": "RULINGS",
      "outputs": [
        {
          "internalType": "uint8",
          "name": "",
          "type": "uint8"
        }
      ],
      "stateMutability": "view",
      "type": "function"
    },
    {
      "inputs": [
        {
          "internalType": "uint256[]",
          "name": "_milestones",
          "type": "uint256[]"
        },
        {
          "internalType": "bytes32",
          "name": "_details",
          "type": "bytes32"
        }
      ],
      "name": "addMilestones",
      "outputs": [],
      "stateMutability": "nonpayable",
      "type": "function"
    },
    {
      "inputs": [
        {
          "internalType": "uint256[]",
          "name": "_milestones",
          "type": "uint256[]"
        }
      ],
      "name": "addMilestones",
      "outputs": [],
      "stateMutability": "nonpayable",
      "type": "function"
    },
    {
      "inputs": [
        {
          "internalType": "uint256",
          "name": "",
          "type": "uint256"
        }
      ],
      "name": "amounts",
      "outputs": [
        {
          "internalType": "uint256",
          "name": "",
          "type": "uint256"
        }
      ],
      "stateMutability": "view",
      "type": "function"
    },
    {
      "inputs": [],
      "name": "client",
      "outputs": [
        {
          "internalType": "address",
          "name": "",
          "type": "address"
        }
      ],
      "stateMutability": "view",
      "type": "function"
    },
    {
      "inputs": [],
      "name": "details",
      "outputs": [
        {
          "internalType": "bytes32",
          "name": "",
          "type": "bytes32"
        }
      ],
      "stateMutability": "view",
      "type": "function"
    },
    {
      "inputs": [],
      "name": "disputeId",
      "outputs": [
        {
          "internalType": "uint256",
          "name": "",
          "type": "uint256"
        }
      ],
      "stateMutability": "view",
      "type": "function"
    },
    {
      "inputs": [],
      "name": "getAmounts",
      "outputs": [
        {
          "internalType": "uint256[]",
          "name": "",
          "type": "uint256[]"
        }
      ],
      "stateMutability": "view",
      "type": "function"
    },
    {
      "inputs": [
        {
          "internalType": "address",
          "name": "_client",
          "type": "address"
        },
        {
          "internalType": "address",
          "name": "_provider",
          "type": "address"
        },
        {
          "internalType": "uint8",
          "name": "_resolverType",
          "type": "uint8"
        },
        {
          "internalType": "address",
          "name": "_resolver",
          "type": "address"
        },
        {
          "internalType": "address",
          "name": "_token",
          "type": "address"
        },
        {
          "internalType": "uint256[]",
          "name": "_amounts",
          "type": "uint256[]"
        },
        {
          "internalType": "uint256",
          "name": "_terminationTime",
          "type": "uint256"
        },
        {
          "internalType": "uint256",
          "name": "_resolutionRate",
          "type": "uint256"
        },
        {
          "internalType": "bytes32",
          "name": "_details",
          "type": "bytes32"
        },
        {
          "internalType": "address",
          "name": "_wrappedNativeToken",
          "type": "address"
        },
        {
          "internalType": "bool",
          "name": "_requireVerification",
          "type": "bool"
        }
      ],
      "name": "init",
      "outputs": [],
      "stateMutability": "nonpayable",
      "type": "function"
    },
    {
      "inputs": [],
      "name": "initLock",
      "outputs": [],
      "stateMutability": "nonpayable",
      "type": "function"
    },
    {
      "inputs": [
        {
          "internalType": "bytes32",
          "name": "_details",
          "type": "bytes32"
        }
      ],
      "name": "lock",
      "outputs": [],
      "stateMutability": "payable",
      "type": "function"
    },
    {
      "inputs": [],
      "name": "locked",
      "outputs": [
        {
          "internalType": "bool",
          "name": "",
          "type": "bool"
        }
      ],
      "stateMutability": "view",
      "type": "function"
    },
    {
      "inputs": [],
      "name": "milestone",
      "outputs": [
        {
          "internalType": "uint256",
          "name": "",
          "type": "uint256"
        }
      ],
      "stateMutability": "view",
      "type": "function"
    },
    {
      "inputs": [],
      "name": "provider",
      "outputs": [
        {
          "internalType": "address",
          "name": "",
          "type": "address"
        }
      ],
      "stateMutability": "view",
      "type": "function"
    },
    {
      "inputs": [
        {
          "internalType": "uint256",
          "name": "_milestone",
          "type": "uint256"
        }
      ],
      "name": "release",
      "outputs": [],
      "stateMutability": "nonpayable",
      "type": "function"
    },
    {
      "inputs": [],
      "name": "release",
      "outputs": [],
      "stateMutability": "nonpayable",
      "type": "function"
    },
    {
      "inputs": [
        {
          "internalType": "address",
          "name": "_token",
          "type": "address"
        }
      ],
      "name": "releaseTokens",
      "outputs": [],
      "stateMutability": "nonpayable",
      "type": "function"
    },
    {
      "inputs": [],
      "name": "released",
      "outputs": [
        {
          "internalType": "uint256",
          "name": "",
          "type": "uint256"
        }
      ],
      "stateMutability": "view",
      "type": "function"
    },
    {
      "inputs": [],
      "name": "resolutionRate",
      "outputs": [
        {
          "internalType": "uint256",
          "name": "",
          "type": "uint256"
        }
      ],
      "stateMutability": "view",
      "type": "function"
    },
    {
      "inputs": [
        {
          "internalType": "uint256",
          "name": "_clientAward",
          "type": "uint256"
        },
        {
          "internalType": "uint256",
          "name": "_providerAward",
          "type": "uint256"
        },
        {
          "internalType": "bytes32",
          "name": "_details",
          "type": "bytes32"
        }
      ],
      "name": "resolve",
      "outputs": [],
      "stateMutability": "nonpayable",
      "type": "function"
    },
    {
      "inputs": [],
      "name": "resolver",
      "outputs": [
        {
          "internalType": "address",
          "name": "",
          "type": "address"
        }
      ],
      "stateMutability": "view",
      "type": "function"
    },
    {
      "inputs": [],
      "name": "resolverType",
      "outputs": [
        {
          "internalType": "enum SmartInvoice.ADR",
          "name": "",
          "type": "uint8"
        }
      ],
      "stateMutability": "view",
      "type": "function"
    },
    {
      "inputs": [
        {
          "internalType": "uint256",
          "name": "_disputeId",
          "type": "uint256"
        },
        {
          "internalType": "uint256",
          "name": "_ruling",
          "type": "uint256"
        }
      ],
      "name": "rule",
      "outputs": [],
      "stateMutability": "nonpayable",
      "type": "function"
    },
    {
      "inputs": [],
      "name": "terminationTime",
      "outputs": [
        {
          "internalType": "uint256",
          "name": "",
          "type": "uint256"
        }
      ],
      "stateMutability": "view",
      "type": "function"
    },
    {
      "inputs": [],
      "name": "token",
      "outputs": [
        {
          "internalType": "address",
          "name": "",
          "type": "address"
        }
      ],
      "stateMutability": "view",
      "type": "function"
    },
    {
      "inputs": [],
      "name": "total",
      "outputs": [
        {
          "internalType": "uint256",
          "name": "",
          "type": "uint256"
        }
      ],
      "stateMutability": "view",
      "type": "function"
    },
    {
      "inputs": [],
      "name": "verify",
      "outputs": [],
      "stateMutability": "nonpayable",
      "type": "function"
    },
    {
      "inputs": [],
      "name": "withdraw",
      "outputs": [],
      "stateMutability": "nonpayable",
      "type": "function"
    },
    {
      "inputs": [
        {
          "internalType": "address",
          "name": "_token",
          "type": "address"
        }
      ],
      "name": "withdrawTokens",
      "outputs": [],
      "stateMutability": "nonpayable",
      "type": "function"
    },
    {
      "inputs": [],
      "name": "wrappedNativeToken",
      "outputs": [
        {
          "internalType": "address",
          "name": "",
          "type": "address"
        }
      ],
      "stateMutability": "view",
      "type": "function"
    },
    {
      "stateMutability": "payable",
      "type": "receive"
    }
  ],
  "bytecode": "0x6001610140818152610160829052608090815261018082815260006101a081905260a09190915260036101c08181526101e085905260c05261020084815261022085905260e05261024084815261026091909152610100526102c06040526102809081526102a0929092526101209190915262000081906002906006620000a9565b506000601155600060135560006014553480156200009e57600080fd5b5060018055620001bc565b8260068101928215620000e8579160200282015b82811115620000e8578251620000d79083906002620000fa565b5091602001919060010190620000bd565b50620000f692915062000190565b5090565b600183019183908215620001825791602002820160005b838211156200015157835183826101000a81548160ff021916908360ff160217905550926020019260010160208160000104928301926001030262000111565b8015620001805782816101000a81549060ff021916905560010160208160000104928301926001030262000151565b505b50620000f6929150620001a6565b80821115620000f6576000815560010162000190565b80821115620000f6576000815560010162000190565b612eed80620001cc6000396000f3fe6080604052600436106101e75760003560e01c806370ff6bd711610102578063ce4254ce11610095578063e86dad2411610064578063e86dad241461066f578063f51cf92714610687578063fc0c546a146106b9578063fc735e99146106d957610322565b8063ce4254ce14610604578063cf3090121461061a578063dbac780614610644578063e38f48611461065a57610322565b806387b0be48116100d157806387b0be4814610598578063946f2e48146105b857806396132521146105ce578063a7d07c82146105e457610322565b806370ff6bd714610515578063786ad4eb14610543578063868af2241461056357806386d1a69f1461058357610322565b8063311a6c561161017a57806345f0a44f1161014957806345f0a44f146104aa57806349df728c146104ca578063565974d3146104ea5780635ce6288c1461050057610322565b8063311a6c561461043357806337bdc99b146104535780633ccfd60b146104735780633d370b4e1461048857610322565b806317fcb39b116101b657806317fcb39b146103b9578063185472ef146103d95780632ddbd13a146103f95780632e77c8d21461041d57610322565b806301670ba91461032757806304f3bcec1461033c578063085d488314610379578063109e94cf1461039957610322565b366103225760125460ff16156102185760405162461bcd60e51b815260040161020f90612cff565b60405180910390fd5b600854600c546001600160a01b0390811691161461026e5760405162461bcd60e51b815260206004820152601360248201527210bbb930b83832b22730ba34bb32aa37b5b2b760691b604482015260640161020f565b600860009054906101000a90046001600160a01b03166001600160a01b031663d0e30db0346040518263ffffffff1660e01b81526004016000604051808303818588803b1580156102be57600080fd5b505af11580156102d2573d6000803e3d6000fd5b50505050506102de3390565b6001600160a01b03167fe1fffcc4923d04b559f4d29a8bfc6cda04eb5b0d3c460751c2402c5c5cc9109c3460405161031891815260200190565b60405180910390a2005b600080fd5b61033a610335366004612ad8565b6106ee565b005b34801561034857600080fd5b50600b5461035c906001600160a01b031681565b6040516001600160a01b0390911681526020015b60405180910390f35b34801561038557600080fd5b50600a5461035c906001600160a01b031681565b3480156103a557600080fd5b5060095461035c906001600160a01b031681565b3480156103c557600080fd5b5060085461035c906001600160a01b031681565b3480156103e557600080fd5b5061033a6103f4366004612955565b6109c3565b34801561040557600080fd5b5061040f60115481565b604051908152602001610370565b34801561042957600080fd5b5061040f60155481565b34801561043f57600080fd5b5061033a61044e366004612b08565b610ec7565b34801561045f57600080fd5b5061033a61046e366004612ad8565b6112ee565b34801561047f57600080fd5b5061033a61163f565b34801561049457600080fd5b5061049d611675565b6040516103709190612bd6565b3480156104b657600080fd5b5061040f6104c5366004612ad8565b6116cd565b3480156104d657600080fd5b5061033a6104e536600461293b565b6116ee565b3480156104f657600080fd5b5061040f600f5481565b34801561050c57600080fd5b5061040f600581565b34801561052157600080fd5b50600a5461053690600160a01b900460ff1681565b6040516103709190612c55565b34801561054f57600080fd5b5061033a61055e366004612a72565b611837565b34801561056f57600080fd5b5061033a61057e366004612a32565b611847565b34801561058f57600080fd5b5061033a611857565b3480156105a457600080fd5b5061033a6105b336600461293b565b611887565b3480156105c457600080fd5b5061040f600e5481565b3480156105da57600080fd5b5061040f60145481565b3480156105f057600080fd5b5061033a6105ff366004612b29565b611997565b34801561061057600080fd5b5061040f600d5481565b34801561062657600080fd5b506012546106349060ff1681565b6040519015158152602001610370565b34801561065057600080fd5b5061040f60135481565b34801561066657600080fd5b5061033a611c9b565b34801561067b57600080fd5b5061040f6303c30ab081565b34801561069357600080fd5b506106a76106a2366004612b08565b611d09565b60405160ff9091168152602001610370565b3480156106c557600080fd5b50600c5461035c906001600160a01b031681565b3480156106e557600080fd5b5061033a611d45565b600260015414156107115760405162461bcd60e51b815260040161020f90612d45565b600260015560125460ff16156107395760405162461bcd60e51b815260040161020f90612cff565b600c546040516370a0823160e01b81523060048201526000916001600160a01b0316906370a082319060240160206040518083038186803b15801561077d57600080fd5b505afa158015610791573d6000803e3d6000fd5b505050506040513d601f19601f820116820180604052508101906107b59190612af0565b9050600081116107d75760405162461bcd60e51b815260040161020f90612d1f565b600d5442106108155760405162461bcd60e51b815260206004820152600a6024820152691d195c9b5a5b985d195960b21b604482015260640161020f565b6009546001600160a01b0316336001600160a01b0316148061084a5750600a546001600160a01b0316336001600160a01b0316145b61087f5760405162461bcd60e51b815260206004820152600660248201526521706172747960d01b604482015260640161020f565b6001600a54600160a01b900460ff1660018111156108ad57634e487b7160e01b600052602160045260246000fd5b141561096557600b54600f546040516001600160a01b039092169163c13517e19134916005916108e39160200190815260200190565b6040516020818303038152906040526040518463ffffffff1660e01b815260040161090f929190612d7c565b6020604051808303818588803b15801561092857600080fd5b505af115801561093c573d6000803e3d6000fd5b50505050506040513d601f19601f820116820180604052508101906109619190612af0565b6015555b6012805460ff191660011790556109793390565b6001600160a01b03167fe55f8011a92f4874f2b5795bfe755853e25c72d78f99ce599a78e505178ba240836040516109b391815260200190565b60405180910390a2505060018055565b60006109cf6001611da9565b905080156109e7576000805461ff0019166101001790555b6001600160a01b038d16610a2e5760405162461bcd60e51b815260206004820152600e60248201526d1a5b9d985b1a590818db1a595b9d60921b604482015260640161020f565b6001600160a01b038c16610a775760405162461bcd60e51b815260206004820152601060248201526f34b73b30b634b210383937bb34b232b960811b604482015260640161020f565b600160ff8c161115610ac25760405162461bcd60e51b8152602060048201526014602482015273696e76616c6964207265736f6c7665725479706560601b604482015260640161020f565b6001600160a01b038a16610b0b5760405162461bcd60e51b815260206004820152601060248201526f34b73b30b634b2103932b9b7b63b32b960811b604482015260640161020f565b6001600160a01b038916610b515760405162461bcd60e51b815260206004820152600d60248201526c34b73b30b634b2103a37b5b2b760991b604482015260640161020f565b428611610b915760405162461bcd60e51b815260206004820152600e60248201526d191d5c985d1a5bdb88195b99195960921b604482015260640161020f565b610b9f6303c30ab042612d95565b861115610be25760405162461bcd60e51b81526020600482015260116024820152706475726174696f6e20746f6f206c6f6e6760781b604482015260640161020f565b60008511610c2b5760405162461bcd60e51b8152602060048201526016602482015275696e76616c6964207265736f6c7574696f6e5261746560501b604482015260640161020f565b6001600160a01b038316610c815760405162461bcd60e51b815260206004820152601a60248201527f696e76616c696420777261707065644e6174697665546f6b656e000000000000604482015260640161020f565b8c600960006101000a8154816001600160a01b0302191690836001600160a01b031602179055508b600a60006101000a8154816001600160a01b0302191690836001600160a01b031602179055508a60ff166001811115610cf257634e487b7160e01b600052602160045260246000fd5b600a805460ff60a01b1916600160a01b836001811115610d2257634e487b7160e01b600052602160045260246000fd5b0217905550600b80546001600160a01b03808d166001600160a01b031992831617909255600c8054928c1692909116919091179055610d6360108989612834565b5060005b601054811015610dbf5760108181548110610d9257634e487b7160e01b600052603260045260246000fd5b9060005260206000200154601154610daa9190612d95565b60115580610db781612e58565b915050610d67565b50600d869055600e859055600f849055600880546001600160a01b0319166001600160a01b03851617905581610e265760405130906001600160a01b038f16907f78a953f3f0d92abc078a34e5d4fedf8708e788e1b29300b3d6170e97f88a13fc90600090a35b8b6001600160a01b03168d6001600160a01b03167f43e5ba57af2a3f1229a242de4441239d77270342ff0fae068bdd64676b0ffd1f6010604051610e6a9190612c1a565b60405180910390a38015610eb8576000805461ff0019169055604051600181527f7f26b83ff96e1f2b6a682f133852f6798a09c465da95921460cefb38474024989060200160405180910390a15b50505050505050505050505050565b60026001541415610eea5760405162461bcd60e51b815260040161020f90612d45565b60026001908155600a54600160a01b900460ff166001811115610f1d57634e487b7160e01b600052602160045260246000fd5b14610f615760405162461bcd60e51b815260206004820152601460248201527310b0b93134ba3930ba37b9103932b9b7b63b32b960611b604482015260640161020f565b60125460ff16610f9d5760405162461bcd60e51b8152602060048201526007602482015266085b1bd8dad95960ca1b604482015260640161020f565b600b546001600160a01b0316336001600160a01b031614610fec5760405162461bcd60e51b815260206004820152600960248201526810b932b9b7b63b32b960b91b604482015260640161020f565b60155482146110335760405162461bcd60e51b81526020600482015260136024820152721a5b98dbdc9c9958dd08191a5cdc1d5d195259606a1b604482015260640161020f565b60058111156110755760405162461bcd60e51b815260206004820152600e60248201526d696e76616c69642072756c696e6760901b604482015260640161020f565b600c546040516370a0823160e01b81523060048201526000916001600160a01b0316906370a082319060240160206040518083038186803b1580156110b957600080fd5b505afa1580156110cd573d6000803e3d6000fd5b505050506040513d601f19601f820116820180604052508101906110f19190612af0565b9050600081116111135760405162461bcd60e51b815260040161020f90612d1f565b60006002836006811061113657634e487b7160e01b600052603260045260246000fd5b6040805180820191829052929190910190600290826000855b825461010083900a900460ff1681526020600192830181810494850194909303909202910180841161114f579050505050505090506000816000600281106111a757634e487b7160e01b600052603260045260246000fd5b6020020151905060008260016020020151905060006111c68284612dad565b905060008160ff168360ff16876111dd9190612df2565b6111e79190612dd2565b905060006111f58288612e11565b9050811561121a57600a54600c5461121a916001600160a01b03918216911684611e2f565b801561123d57600954600c5461123d916001600160a01b03918216911683611e2f565b6010546013556012805460ff19169055600b5460408051838152602081018590529081018a90526001600160a01b03909116907ff08a08afe8a39853d7db7dd0a42f0cdb68a64ee36a554e68c32219f381e5669e9060600160405180910390a2600b546040518981528a916001600160a01b0316907f394027a5fa6e098a1191094d1719d6929b9abc535fcc0c8f448d6a4e756222769060200160405180910390a350506001805550505050505050565b600260015414156113115760405162461bcd60e51b815260040161020f90612d45565b600260015560125460ff16156113395760405162461bcd60e51b815260040161020f90612cff565b6009546001600160a01b0316336001600160a01b03161461136c5760405162461bcd60e51b815260040161020f90612cde565b6013548110156113b15760405162461bcd60e51b815260206004820152601060248201526f1b5a5b195cdd1bdb99481c185cdcd95960821b604482015260640161020f565b60105481106113f65760405162461bcd60e51b8152602060048201526011602482015270696e76616c6964206d696c6573746f6e6560781b604482015260640161020f565b600c546040516370a0823160e01b81523060048201526000916001600160a01b0316906370a082319060240160206040518083038186803b15801561143a57600080fd5b505afa15801561144e573d6000803e3d6000fd5b505050506040513d601f19601f820116820180604052508101906114729190612af0565b6013549091506000905b8381116115b25760105461149290600190612e11565b811480156114d5575082601082815481106114bd57634e487b7160e01b600052603260045260246000fd5b9060005260206000200154836114d39190612d95565b105b1561151457600080516020612e98833981519152816114f48486612e11565b6040805192835260208301919091520160405180910390a18291506115a0565b600080516020612e98833981519152816010838154811061154557634e487b7160e01b600052603260045260246000fd5b6000918252602091829020015460408051938452918301520160405180910390a16010818154811061158757634e487b7160e01b600052603260045260246000fd5b90600052602060002001548261159d9190612d95565b91505b806115aa81612e58565b91505061147c565b50808210156115fa5760405162461bcd60e51b8152602060048201526014602482015273696e73756666696369656e742062616c616e636560601b604482015260640161020f565b600a54600c54611617916001600160a01b03918216911683611e2f565b806014546116259190612d95565b601455611633836001612d95565b60135550506001805550565b600260015414156116625760405162461bcd60e51b815260040161020f90612d45565b600260015561166f611e81565b60018055565b606060108054806020026020016040519081016040528092919081815260200182805480156116c357602002820191906000526020600020905b8154815260200190600101908083116116af575b5050505050905090565b601081815481106116dd57600080fd5b600091825260209091200154905081565b600260015414156117115760405162461bcd60e51b815260040161020f90612d45565b6002600155600c546001600160a01b038281169116141561173957611734611e81565b611830565b600d5442116117785760405162461bcd60e51b815260206004820152600b60248201526a085d195c9b5a5b985d195960aa1b604482015260640161020f565b6040516370a0823160e01b81523060048201526000906001600160a01b038316906370a082319060240160206040518083038186803b1580156117ba57600080fd5b505afa1580156117ce573d6000803e3d6000fd5b505050506040513d601f19601f820116820180604052508101906117f29190612af0565b9050600081116118145760405162461bcd60e51b815260040161020f90612d1f565b60095461182e906001600160a01b03848116911683611e2f565b505b5060018055565b611842838383611fd4565b505050565b61185382826000611fd4565b5050565b6002600154141561187a5760405162461bcd60e51b815260040161020f90612d45565b600260015561166f61237a565b600260015414156118aa5760405162461bcd60e51b815260040161020f90612d45565b6002600155600c546001600160a01b03828116911614156118cd5761173461237a565b6009546001600160a01b0316336001600160a01b0316146119005760405162461bcd60e51b815260040161020f90612cde565b6040516370a0823160e01b81523060048201526000906001600160a01b038316906370a082319060240160206040518083038186803b15801561194257600080fd5b505afa158015611956573d6000803e3d6000fd5b505050506040513d601f19601f8201168201806040525081019061197a9190612af0565b600a5490915061182e906001600160a01b03848116911683611e2f565b600260015414156119ba5760405162461bcd60e51b815260040161020f90612d45565b60026001556000600a54600160a01b900460ff1660018111156119ed57634e487b7160e01b600052602160045260246000fd5b14611a315760405162461bcd60e51b815260206004820152601460248201527310b4b73234bb34b23ab0b6103932b9b7b63b32b960611b604482015260640161020f565b60125460ff16611a6d5760405162461bcd60e51b8152602060048201526007602482015266085b1bd8dad95960ca1b604482015260640161020f565b600c546040516370a0823160e01b81523060048201526000916001600160a01b0316906370a082319060240160206040518083038186803b158015611ab157600080fd5b505afa158015611ac5573d6000803e3d6000fd5b505050506040513d601f19601f82011682018060405250810190611ae99190612af0565b905060008111611b0b5760405162461bcd60e51b815260040161020f90612d1f565b600b546001600160a01b0316336001600160a01b031614611b5a5760405162461bcd60e51b815260206004820152600960248201526810b932b9b7b63b32b960b91b604482015260640161020f565b6000600e5482611b6a9190612dd2565b9050611b768183612e11565b611b808587612d95565b14611bcd5760405162461bcd60e51b815260206004820152601760248201527f7265736f6c7574696f6e20213d2072656d61696e646572000000000000000000604482015260640161020f565b8315611bf057600a54600c54611bf0916001600160a01b03918216911686611e2f565b8415611c1357600954600c54611c13916001600160a01b03918216911687611e2f565b8015611c3657600b54600c54611c36916001600160a01b03918216911683611e2f565b6010546013556012805460ff19169055604080518681526020810186905280820183905260608101859052905133917f27035e6ed643518ecfca2b08593fd24d4ae4caba6ce5bab683e9b31a12a5b299919081900360800190a2505060018055505050565b6000611ca76001611da9565b90508015611cbf576000805461ff0019166101001790555b8015611d06576000805461ff0019169055604051600181527f7f26b83ff96e1f2b6a682f133852f6798a09c465da95921460cefb3847402498906020015b60405180910390a15b50565b60028260068110611d1957600080fd5b018160028110611d2857600080fd5b602081049091015460ff601f9092166101000a9004169150829050565b6009546001600160a01b03163314611d6f5760405162461bcd60e51b815260040161020f90612cde565b60095460405130916001600160a01b0316907f78a953f3f0d92abc078a34e5d4fedf8708e788e1b29300b3d6170e97f88a13fc90600090a3565b60008054610100900460ff1615611df0578160ff166001148015611dcc5750303b155b611de85760405162461bcd60e51b815260040161020f90612c90565b506000611e2a565b60005460ff808416911610611e175760405162461bcd60e51b815260040161020f90612c90565b506000805460ff191660ff831617905560015b919050565b604080516001600160a01b038416602482015260448082018490528251808303909101815260649091019091526020810180516001600160e01b031663a9059cbb60e01b1790526118429084906125df565b60125460ff1615611ea45760405162461bcd60e51b815260040161020f90612cff565b600d544211611ee35760405162461bcd60e51b815260206004820152600b60248201526a085d195c9b5a5b985d195960aa1b604482015260640161020f565b600c546040516370a0823160e01b81523060048201526000916001600160a01b0316906370a082319060240160206040518083038186803b158015611f2757600080fd5b505afa158015611f3b573d6000803e3d6000fd5b505050506040513d601f19601f82011682018060405250810190611f5f9190612af0565b905060008111611f815760405162461bcd60e51b815260040161020f90612d1f565b600954600c54611f9e916001600160a01b03918216911683611e2f565b6010546013556040518181527f5b6b431d4476a211bb7d41c20d1aab9ae2321deee0d20be3d9fc9b1093fa6e3d90602001611cfd565b60125460ff1615611ff75760405162461bcd60e51b815260040161020f90612cff565b600d5442106120355760405162461bcd60e51b815260206004820152600a6024820152691d195c9b5a5b985d195960b21b604482015260640161020f565b6009546001600160a01b0316336001600160a01b0316148061206a5750600a546001600160a01b0316336001600160a01b0316145b61209f5760405162461bcd60e51b815260206004820152600660248201526521706172747960d01b604482015260640161020f565b816120ec5760405162461bcd60e51b815260206004820152601d60248201527f6e6f206d696c6573746f6e657320617265206265696e67206164646564000000604482015260640161020f565b600a82111561213d5760405162461bcd60e51b815260206004820181905260248201527f6f6e6c79203130206e6577206d696c6573746f6e657320617420612074696d65604482015260640161020f565b60105460009061214e908490612d95565b905060008167ffffffffffffffff81111561217957634e487b7160e01b600052604160045260246000fd5b6040519080825280602002602001820160405280156121a2578160200160208202803683370190505b5060115490915060005b60105481101561221f57601081815481106121d757634e487b7160e01b600052603260045260246000fd5b906000526020600020015483828151811061220257634e487b7160e01b600052603260045260246000fd5b60209081029190910101528061221781612e58565b9150506121ac565b506010545b838110156122e0576010548790879061223d9084612e11565b81811061225a57634e487b7160e01b600052603260045260246000fd5b9050602002013583828151811061228157634e487b7160e01b600052603260045260246000fd5b60209081029190910101526010548790879061229d9084612e11565b8181106122ba57634e487b7160e01b600052603260045260246000fd5b90506020020135826122cc9190612d95565b9150806122d881612e58565b915050612224565b50601181905581516122f990601090602085019061287f565b50600f84905560405184815233907f6f6caf08ac16ebd1467ced3e11335ca96f753397f1211110aafea462a3df75929060200160405180910390a2604051309033907f526d23025be18fff4f70c0855a5d4a85c210a6b4f7d98067aade79c06563667a9061236a908a908a90612b9c565b60405180910390a3505050505050565b60125460ff161561239d5760405162461bcd60e51b815260040161020f90612cff565b6009546001600160a01b0316336001600160a01b0316146123d05760405162461bcd60e51b815260040161020f90612cde565b601354600c546040516370a0823160e01b81523060048201526000916001600160a01b0316906370a082319060240160206040518083038186803b15801561241757600080fd5b505afa15801561242b573d6000803e3d6000fd5b505050506040513d601f19601f8201168201806040525081019061244f9190612af0565b6010549091508210156125665760006010838154811061247f57634e487b7160e01b600052603260045260246000fd5b90600052602060002001549050600160108054905061249e9190612e11565b831480156124ab57508181105b156124b35750805b808210156124fa5760405162461bcd60e51b8152602060048201526014602482015273696e73756666696369656e742062616c616e636560601b604482015260640161020f565b601354612508906001612d95565b601355600a54600c54612528916001600160a01b03918216911683611e2f565b806014546125369190612d95565b6014556040805184815260208101839052600080516020612e98833981519152910160405180910390a150611853565b600081116125865760405162461bcd60e51b815260040161020f90612d1f565b600a54600c546125a3916001600160a01b03918216911683611e2f565b806014546125b19190612d95565b6014556040805183815260208101839052600080516020612e98833981519152910160405180910390a15050565b6000612634826040518060400160405280602081526020017f5361666545524332303a206c6f772d6c6576656c2063616c6c206661696c6564815250856001600160a01b03166126b19092919063ffffffff16565b80519091501561184257808060200190518101906126529190612abc565b6118425760405162461bcd60e51b815260206004820152602a60248201527f5361666545524332303a204552433230206f7065726174696f6e20646964206e6044820152691bdd081cdd58d8d9595960b21b606482015260840161020f565b60606126c084846000856126ca565b90505b9392505050565b60608247101561272b5760405162461bcd60e51b815260206004820152602660248201527f416464726573733a20696e73756666696369656e742062616c616e636520666f6044820152651c8818d85b1b60d21b606482015260840161020f565b6001600160a01b0385163b6127825760405162461bcd60e51b815260206004820152601d60248201527f416464726573733a2063616c6c20746f206e6f6e2d636f6e7472616374000000604482015260640161020f565b600080866001600160a01b0316858760405161279e9190612b80565b60006040518083038185875af1925050503d80600081146127db576040519150601f19603f3d011682016040523d82523d6000602084013e6127e0565b606091505b50915091506127f08282866127fb565b979650505050505050565b6060831561280a5750816126c3565b82511561281a5782518084602001fd5b8160405162461bcd60e51b815260040161020f9190612c7d565b82805482825590600052602060002090810192821561286f579160200282015b8281111561286f578235825591602001919060010190612854565b5061287b9291506128ba565b5090565b82805482825590600052602060002090810192821561286f579160200282015b8281111561286f57825182559160200191906001019061289f565b5b8082111561287b57600081556001016128bb565b80356001600160a01b0381168114611e2a57600080fd5b60008083601f8401126128f7578182fd5b50813567ffffffffffffffff81111561290e578182fd5b6020830191508360208260051b850101111561292957600080fd5b9250929050565b8035611e2a81612e89565b60006020828403121561294c578081fd5b6126c3826128cf565b6000806000806000806000806000806000806101608d8f031215612977578788fd5b6129808d6128cf565b9b5061298e60208e016128cf565b9a5060408d013560ff811681146129a3578889fd5b99506129b160608e016128cf565b98506129bf60808e016128cf565b975067ffffffffffffffff60a08e013511156129d9578687fd5b6129e98e60a08f01358f016128e6565b909750955060c08d0135945060e08d013593506101008d01359250612a116101208e016128cf565b9150612a206101408e01612930565b90509295989b509295989b509295989b565b60008060208385031215612a44578182fd5b823567ffffffffffffffff811115612a5a578283fd5b612a66858286016128e6565b90969095509350505050565b600080600060408486031215612a86578283fd5b833567ffffffffffffffff811115612a9c578384fd5b612aa8868287016128e6565b909790965060209590950135949350505050565b600060208284031215612acd578081fd5b81516126c381612e89565b600060208284031215612ae9578081fd5b5035919050565b600060208284031215612b01578081fd5b5051919050565b60008060408385031215612b1a578182fd5b50508035926020909101359150565b600080600060608486031215612b3d578283fd5b505081359360208301359350604090920135919050565b60008151808452612b6c816020860160208601612e28565b601f01601f19169290920160200192915050565b60008251612b92818460208701612e28565b9190910192915050565b6020808252810182905260006001600160fb1b03831115612bbb578081fd5b8260051b808560408501379190910160400190815292915050565b6020808252825182820181905260009190848201906040850190845b81811015612c0e57835183529284019291840191600101612bf2565b50909695505050505050565b6020808252825482820181905260008481528281209092916040850190845b81811015612c0e57835483526001938401939285019201612c39565b6020810160028310612c7757634e487b7160e01b600052602160045260246000fd5b91905290565b6000602082526126c36020830184612b54565b6020808252602e908201527f496e697469616c697a61626c653a20636f6e747261637420697320616c72656160408201526d191e481a5b9a5d1a585b1a5e995960921b606082015260800190565b6020808252600790820152660858db1a595b9d60ca1b604082015260600190565b6020808252600690820152651b1bd8dad95960d21b604082015260600190565b6020808252600c908201526b062616c616e636520697320360a41b604082015260600190565b6020808252601f908201527f5265656e7472616e637947756172643a207265656e7472616e742063616c6c00604082015260600190565b6000838252604060208301526126c06040830184612b54565b60008219821115612da857612da8612e73565b500190565b600060ff821660ff84168060ff03821115612dca57612dca612e73565b019392505050565b600082612ded57634e487b7160e01b81526012600452602481fd5b500490565b6000816000190483118215151615612e0c57612e0c612e73565b500290565b600082821015612e2357612e23612e73565b500390565b60005b83811015612e43578181015183820152602001612e2b565b83811115612e52576000848401525b50505050565b6000600019821415612e6c57612e6c612e73565b5060010190565b634e487b7160e01b600052601160045260246000fd5b8015158114611d0657600080fdfe99f6215451102cb496830dfd718a41ae7fb7d92607137ea8961d076bea55c5d3a2646970667358221220841db85279f8eec8c706ebb6c99ceced07ee18862d7e9d239034357c163fb9f264736f6c63430008030033",
  "linkReferences": {},
  "deployedLinkReferences": {}
}