{
  "_format": "hh-sol-artifact-1",
  "contractName": "SmartInvoice",
  "sourceName": "contracts/SmartInvoice.sol",
  "abi": [
    {
      "anonymous": false,
      "inputs": [
        {
          "indexed": true,
          "internalType": "address",
          "name": "sender",
          "type": "address"
        },
        {
          "indexed": false,
          "internalType": "uint256",
          "name": "amount",
          "type": "uint256"
        }
      ],
      "name": "Deposit",
      "type": "event"
    },
    {
      "anonymous": false,
      "inputs": [
        {
          "indexed": false,
          "internalType": "uint8",
          "name": "version",
          "type": "uint8"
        }
      ],
      "name": "Initialized",
      "type": "event"
    },
    {
      "anonymous": false,
      "inputs": [
        {
          "indexed": true,
          "internalType": "address",
          "name": "sender",
          "type": "address"
        },
        {
          "indexed": false,
          "internalType": "bytes32",
          "name": "details",
          "type": "bytes32"
        }
      ],
      "name": "Lock",
      "type": "event"
    },
    {
      "anonymous": false,
      "inputs": [
        {
          "indexed": true,
          "internalType": "address",
          "name": "client",
          "type": "address"
        },
        {
          "indexed": true,
          "internalType": "address",
          "name": "provider",
          "type": "address"
        },
        {
          "indexed": false,
          "internalType": "uint256[]",
          "name": "amounts",
          "type": "uint256[]"
        }
      ],
      "name": "Register",
      "type": "event"
    },
    {
      "anonymous": false,
      "inputs": [
        {
          "indexed": false,
          "internalType": "uint256",
          "name": "milestone",
          "type": "uint256"
        },
        {
          "indexed": false,
          "internalType": "uint256",
          "name": "amount",
          "type": "uint256"
        }
      ],
      "name": "Release",
      "type": "event"
    },
    {
      "anonymous": false,
      "inputs": [
        {
          "indexed": true,
          "internalType": "address",
          "name": "resolver",
          "type": "address"
        },
        {
          "indexed": false,
          "internalType": "uint256",
          "name": "clientAward",
          "type": "uint256"
        },
        {
          "indexed": false,
          "internalType": "uint256",
          "name": "providerAward",
          "type": "uint256"
        },
        {
          "indexed": false,
          "internalType": "uint256",
          "name": "resolutionFee",
          "type": "uint256"
        },
        {
          "indexed": false,
          "internalType": "bytes32",
          "name": "details",
          "type": "bytes32"
        }
      ],
      "name": "Resolve",
      "type": "event"
    },
    {
      "anonymous": false,
      "inputs": [
        {
          "indexed": true,
          "internalType": "address",
          "name": "resolver",
          "type": "address"
        },
        {
          "indexed": false,
          "internalType": "uint256",
          "name": "clientAward",
          "type": "uint256"
        },
        {
          "indexed": false,
          "internalType": "uint256",
          "name": "providerAward",
          "type": "uint256"
        },
        {
          "indexed": false,
          "internalType": "uint256",
          "name": "ruling",
          "type": "uint256"
        }
      ],
      "name": "Rule",
      "type": "event"
    },
    {
      "anonymous": false,
      "inputs": [
        {
          "indexed": true,
          "internalType": "address",
          "name": "_arbitrator",
          "type": "address"
        },
        {
          "indexed": true,
          "internalType": "uint256",
          "name": "_disputeID",
          "type": "uint256"
        },
        {
          "indexed": false,
          "internalType": "uint256",
          "name": "_ruling",
          "type": "uint256"
        }
      ],
      "name": "Ruling",
      "type": "event"
    },
    {
      "anonymous": false,
      "inputs": [
        {
          "indexed": true,
          "internalType": "address",
          "name": "client",
          "type": "address"
        },
        {
          "indexed": true,
          "internalType": "address",
          "name": "invoice",
          "type": "address"
        }
      ],
      "name": "Verified",
      "type": "event"
    },
    {
      "anonymous": false,
      "inputs": [
        {
          "indexed": false,
          "internalType": "uint256",
          "name": "balance",
          "type": "uint256"
        }
      ],
      "name": "Withdraw",
      "type": "event"
    },
    {
      "inputs": [],
      "name": "MAX_TERMINATION_TIME",
      "outputs": [
        {
          "internalType": "uint256",
          "name": "",
          "type": "uint256"
        }
      ],
      "stateMutability": "view",
      "type": "function"
    },
    {
      "inputs": [],
      "name": "NUM_RULING_OPTIONS",
      "outputs": [
        {
          "internalType": "uint256",
          "name": "",
          "type": "uint256"
        }
      ],
      "stateMutability": "view",
      "type": "function"
    },
    {
      "inputs": [
        {
          "internalType": "uint256",
          "name": "",
          "type": "uint256"
        },
        {
          "internalType": "uint256",
          "name": "",
          "type": "uint256"
        }
      ],
      "name": "RULINGS",
      "outputs": [
        {
          "internalType": "uint8",
          "name": "",
          "type": "uint8"
        }
      ],
      "stateMutability": "view",
      "type": "function"
    },
    {
      "inputs": [
        {
          "internalType": "uint256",
          "name": "",
          "type": "uint256"
        }
      ],
      "name": "amounts",
      "outputs": [
        {
          "internalType": "uint256",
          "name": "",
          "type": "uint256"
        }
      ],
      "stateMutability": "view",
      "type": "function"
    },
    {
      "inputs": [],
      "name": "client",
      "outputs": [
        {
          "internalType": "address",
          "name": "",
          "type": "address"
        }
      ],
      "stateMutability": "view",
      "type": "function"
    },
    {
      "inputs": [],
      "name": "details",
      "outputs": [
        {
          "internalType": "bytes32",
          "name": "",
          "type": "bytes32"
        }
      ],
      "stateMutability": "view",
      "type": "function"
    },
    {
      "inputs": [],
      "name": "disputeId",
      "outputs": [
        {
          "internalType": "uint256",
          "name": "",
          "type": "uint256"
        }
      ],
      "stateMutability": "view",
      "type": "function"
    },
    {
      "inputs": [
        {
          "internalType": "address",
          "name": "_client",
          "type": "address"
        },
        {
          "internalType": "address",
          "name": "_provider",
          "type": "address"
        },
        {
          "internalType": "uint8",
          "name": "_resolverType",
          "type": "uint8"
        },
        {
          "internalType": "address",
          "name": "_resolver",
          "type": "address"
        },
        {
          "internalType": "address",
          "name": "_token",
          "type": "address"
        },
        {
          "internalType": "uint256[]",
          "name": "_amounts",
          "type": "uint256[]"
        },
        {
          "internalType": "uint256",
          "name": "_terminationTime",
          "type": "uint256"
        },
        {
          "internalType": "uint256",
          "name": "_resolutionRate",
          "type": "uint256"
        },
        {
          "internalType": "bytes32",
          "name": "_details",
          "type": "bytes32"
        },
        {
          "internalType": "address",
          "name": "_wrappedNativeToken",
          "type": "address"
        },
        {
          "internalType": "bool",
          "name": "_requireVerification",
          "type": "bool"
        }
      ],
      "name": "init",
      "outputs": [],
      "stateMutability": "nonpayable",
      "type": "function"
    },
    {
      "inputs": [],
      "name": "initLock",
      "outputs": [],
      "stateMutability": "nonpayable",
      "type": "function"
    },
    {
      "inputs": [
        {
          "internalType": "bytes32",
          "name": "_details",
          "type": "bytes32"
        }
      ],
      "name": "lock",
      "outputs": [],
      "stateMutability": "payable",
      "type": "function"
    },
    {
      "inputs": [],
      "name": "locked",
      "outputs": [
        {
          "internalType": "bool",
          "name": "",
          "type": "bool"
        }
      ],
      "stateMutability": "view",
      "type": "function"
    },
    {
      "inputs": [],
      "name": "milestone",
      "outputs": [
        {
          "internalType": "uint256",
          "name": "",
          "type": "uint256"
        }
      ],
      "stateMutability": "view",
      "type": "function"
    },
    {
      "inputs": [],
      "name": "provider",
      "outputs": [
        {
          "internalType": "address",
          "name": "",
          "type": "address"
        }
      ],
      "stateMutability": "view",
      "type": "function"
    },
    {
      "inputs": [
        {
          "internalType": "uint256",
          "name": "_milestone",
          "type": "uint256"
        }
      ],
      "name": "release",
      "outputs": [],
      "stateMutability": "nonpayable",
      "type": "function"
    },
    {
      "inputs": [],
      "name": "release",
      "outputs": [],
      "stateMutability": "nonpayable",
      "type": "function"
    },
    {
      "inputs": [
        {
          "internalType": "address",
          "name": "_token",
          "type": "address"
        }
      ],
      "name": "releaseTokens",
      "outputs": [],
      "stateMutability": "nonpayable",
      "type": "function"
    },
    {
      "inputs": [],
      "name": "released",
      "outputs": [
        {
          "internalType": "uint256",
          "name": "",
          "type": "uint256"
        }
      ],
      "stateMutability": "view",
      "type": "function"
    },
    {
      "inputs": [],
      "name": "resolutionRate",
      "outputs": [
        {
          "internalType": "uint256",
          "name": "",
          "type": "uint256"
        }
      ],
      "stateMutability": "view",
      "type": "function"
    },
    {
      "inputs": [
        {
          "internalType": "uint256",
          "name": "_clientAward",
          "type": "uint256"
        },
        {
          "internalType": "uint256",
          "name": "_providerAward",
          "type": "uint256"
        },
        {
          "internalType": "bytes32",
          "name": "_details",
          "type": "bytes32"
        }
      ],
      "name": "resolve",
      "outputs": [],
      "stateMutability": "nonpayable",
      "type": "function"
    },
    {
      "inputs": [],
      "name": "resolver",
      "outputs": [
        {
          "internalType": "address",
          "name": "",
          "type": "address"
        }
      ],
      "stateMutability": "view",
      "type": "function"
    },
    {
      "inputs": [],
      "name": "resolverType",
      "outputs": [
        {
          "internalType": "enum SmartInvoice.ADR",
          "name": "",
          "type": "uint8"
        }
      ],
      "stateMutability": "view",
      "type": "function"
    },
    {
      "inputs": [
        {
          "internalType": "uint256",
          "name": "_disputeId",
          "type": "uint256"
        },
        {
          "internalType": "uint256",
          "name": "_ruling",
          "type": "uint256"
        }
      ],
      "name": "rule",
      "outputs": [],
      "stateMutability": "nonpayable",
      "type": "function"
    },
    {
      "inputs": [],
      "name": "terminationTime",
      "outputs": [
        {
          "internalType": "uint256",
          "name": "",
          "type": "uint256"
        }
      ],
      "stateMutability": "view",
      "type": "function"
    },
    {
      "inputs": [],
      "name": "token",
      "outputs": [
        {
          "internalType": "address",
          "name": "",
          "type": "address"
        }
      ],
      "stateMutability": "view",
      "type": "function"
    },
    {
      "inputs": [],
      "name": "total",
      "outputs": [
        {
          "internalType": "uint256",
          "name": "",
          "type": "uint256"
        }
      ],
      "stateMutability": "view",
      "type": "function"
    },
    {
      "inputs": [],
      "name": "verify",
      "outputs": [],
      "stateMutability": "nonpayable",
      "type": "function"
    },
    {
      "inputs": [],
      "name": "withdraw",
      "outputs": [],
      "stateMutability": "nonpayable",
      "type": "function"
    },
    {
      "inputs": [
        {
          "internalType": "address",
          "name": "_token",
          "type": "address"
        }
      ],
      "name": "withdrawTokens",
      "outputs": [],
      "stateMutability": "nonpayable",
      "type": "function"
    },
    {
      "inputs": [],
      "name": "wrappedNativeToken",
      "outputs": [
        {
          "internalType": "address",
          "name": "",
          "type": "address"
        }
      ],
      "stateMutability": "view",
      "type": "function"
    },
    {
      "stateMutability": "payable",
      "type": "receive"
    }
  ],
  "bytecode": "0x6001610140818152610160829052608090815261018082815260006101a081905260a09190915260036101c08181526101e085905260c05261020084815261022085905260e05261024084815261026091909152610100526102c06040526102809081526102a0929092526101209190915262000081906002906006620000a9565b506000601155600060135560006014553480156200009e57600080fd5b5060018055620001bc565b8260068101928215620000e8579160200282015b82811115620000e8578251620000d79083906002620000fa565b5091602001919060010190620000bd565b50620000f692915062000190565b5090565b600183019183908215620001825791602002820160005b838211156200015157835183826101000a81548160ff021916908360ff160217905550926020019260010160208160000104928301926001030262000111565b8015620001805782816101000a81549060ff021916905560010160208160000104928301926001030262000151565b505b50620000f6929150620001a6565b80821115620000f6576000815560010162000190565b80821115620000f6576000815560010162000190565b61291c80620001cc6000396000f3fe6080604052600436106101c65760003560e01c80635ce6288c116100f7578063ce4254ce11610095578063e86dad2411610064578063e86dad24146105ec578063f51cf92714610604578063fc0c546a14610636578063fc735e991461065657610301565b8063ce4254ce14610581578063cf30901214610597578063dbac7806146105c1578063e38f4861146105d757610301565b806387b0be48116100d157806387b0be4814610515578063946f2e4814610535578063961325211461054b578063a7d07c821461056157610301565b80635ce6288c146104bd57806370ff6bd7146104d257806386d1a69f1461050057610301565b80632e77c8d2116101645780633ccfd60b1161013e5780633ccfd60b1461045257806345f0a44f1461046757806349df728c14610487578063565974d3146104a757610301565b80632e77c8d2146103fc578063311a6c561461041257806337bdc99b1461043257610301565b8063109e94cf116101a0578063109e94cf1461037857806317fcb39b14610398578063185472ef146103b85780632ddbd13a146103d857610301565b806301670ba91461030657806304f3bcec1461031b578063085d48831461035857610301565b366103015760125460ff16156101f75760405162461bcd60e51b81526004016101ee9061272e565b60405180910390fd5b600854600c546001600160a01b0390811691161461024d5760405162461bcd60e51b815260206004820152601360248201527210bbb930b83832b22730ba34bb32aa37b5b2b760691b60448201526064016101ee565b600860009054906101000a90046001600160a01b03166001600160a01b031663d0e30db0346040518263ffffffff1660e01b81526004016000604051808303818588803b15801561029d57600080fd5b505af11580156102b1573d6000803e3d6000fd5b50505050506102bd3390565b6001600160a01b03167fe1fffcc4923d04b559f4d29a8bfc6cda04eb5b0d3c460751c2402c5c5cc9109c346040516102f791815260200190565b60405180910390a2005b600080fd5b610319610314366004612579565b61066b565b005b34801561032757600080fd5b50600b5461033b906001600160a01b031681565b6040516001600160a01b0390911681526020015b60405180910390f35b34801561036457600080fd5b50600a5461033b906001600160a01b031681565b34801561038457600080fd5b5060095461033b906001600160a01b031681565b3480156103a457600080fd5b5060085461033b906001600160a01b031681565b3480156103c457600080fd5b506103196103d3366004612480565b610940565b3480156103e457600080fd5b506103ee60115481565b60405190815260200161034f565b34801561040857600080fd5b506103ee60155481565b34801561041e57600080fd5b5061031961042d3660046125a9565b610e45565b34801561043e57600080fd5b5061031961044d366004612579565b61126c565b34801561045e57600080fd5b506103196115bd565b34801561047357600080fd5b506103ee610482366004612579565b6115f3565b34801561049357600080fd5b506103196104a2366004612466565b611614565b3480156104b357600080fd5b506103ee600f5481565b3480156104c957600080fd5b506103ee600581565b3480156104de57600080fd5b50600a546104f390600160a01b900460ff1681565b60405161034f9190612684565b34801561050c57600080fd5b5061031961175d565b34801561052157600080fd5b50610319610530366004612466565b61178d565b34801561054157600080fd5b506103ee600e5481565b34801561055757600080fd5b506103ee60145481565b34801561056d57600080fd5b5061031961057c3660046125ca565b61189d565b34801561058d57600080fd5b506103ee600d5481565b3480156105a357600080fd5b506012546105b19060ff1681565b604051901515815260200161034f565b3480156105cd57600080fd5b506103ee60135481565b3480156105e357600080fd5b50610319611ba1565b3480156105f857600080fd5b506103ee6303c30ab081565b34801561061057600080fd5b5061062461061f3660046125a9565b611c0f565b60405160ff909116815260200161034f565b34801561064257600080fd5b50600c5461033b906001600160a01b031681565b34801561066257600080fd5b50610319611c4b565b6002600154141561068e5760405162461bcd60e51b81526004016101ee90612774565b600260015560125460ff16156106b65760405162461bcd60e51b81526004016101ee9061272e565b600c546040516370a0823160e01b81523060048201526000916001600160a01b0316906370a082319060240160206040518083038186803b1580156106fa57600080fd5b505afa15801561070e573d6000803e3d6000fd5b505050506040513d601f19601f820116820180604052508101906107329190612591565b9050600081116107545760405162461bcd60e51b81526004016101ee9061274e565b600d5442106107925760405162461bcd60e51b815260206004820152600a6024820152691d195c9b5a5b985d195960b21b60448201526064016101ee565b6009546001600160a01b0316336001600160a01b031614806107c75750600a546001600160a01b0316336001600160a01b0316145b6107fc5760405162461bcd60e51b815260206004820152600660248201526521706172747960d01b60448201526064016101ee565b6001600a54600160a01b900460ff16600181111561082a57634e487b7160e01b600052602160045260246000fd5b14156108e257600b54600f546040516001600160a01b039092169163c13517e19134916005916108609160200190815260200190565b6040516020818303038152906040526040518463ffffffff1660e01b815260040161088c9291906127ab565b6020604051808303818588803b1580156108a557600080fd5b505af11580156108b9573d6000803e3d6000fd5b50505050506040513d601f19601f820116820180604052508101906108de9190612591565b6015555b6012805460ff191660011790556108f63390565b6001600160a01b03167fe55f8011a92f4874f2b5795bfe755853e25c72d78f99ce599a78e505178ba2408360405161093091815260200190565b60405180910390a2505060018055565b600061094c6001611caf565b90508015610964576000805461ff0019166101001790555b6001600160a01b038d166109ab5760405162461bcd60e51b815260206004820152600e60248201526d1a5b9d985b1a590818db1a595b9d60921b60448201526064016101ee565b6001600160a01b038c166109f45760405162461bcd60e51b815260206004820152601060248201526f34b73b30b634b210383937bb34b232b960811b60448201526064016101ee565b600160ff8c161115610a3f5760405162461bcd60e51b8152602060048201526014602482015273696e76616c6964207265736f6c7665725479706560601b60448201526064016101ee565b6001600160a01b038a16610a885760405162461bcd60e51b815260206004820152601060248201526f34b73b30b634b2103932b9b7b63b32b960811b60448201526064016101ee565b6001600160a01b038916610ace5760405162461bcd60e51b815260206004820152600d60248201526c34b73b30b634b2103a37b5b2b760991b60448201526064016101ee565b428611610b0e5760405162461bcd60e51b815260206004820152600e60248201526d191d5c985d1a5bdb88195b99195960921b60448201526064016101ee565b610b1c6303c30ab0426127c4565b861115610b5f5760405162461bcd60e51b81526020600482015260116024820152706475726174696f6e20746f6f206c6f6e6760781b60448201526064016101ee565b60008511610ba85760405162461bcd60e51b8152602060048201526016602482015275696e76616c6964207265736f6c7574696f6e5261746560501b60448201526064016101ee565b6001600160a01b038316610bfe5760405162461bcd60e51b815260206004820152601a60248201527f696e76616c696420777261707065644e6174697665546f6b656e00000000000060448201526064016101ee565b8c600960006101000a8154816001600160a01b0302191690836001600160a01b031602179055508b600a60006101000a8154816001600160a01b0302191690836001600160a01b031602179055508a60ff166001811115610c6f57634e487b7160e01b600052602160045260246000fd5b600a805460ff60a01b1916600160a01b836001811115610c9f57634e487b7160e01b600052602160045260246000fd5b0217905550600b80546001600160a01b03808d166001600160a01b031992831617909255600c8054928c1692909116919091179055610ce06010898961239a565b5060005b601054811015610d3c5760108181548110610d0f57634e487b7160e01b600052603260045260246000fd5b9060005260206000200154601154610d2791906127c4565b60115580610d3481612887565b915050610ce4565b50600d869055600e859055600f849055600880546001600160a01b0319166001600160a01b0385161790558115610da45760405130906001600160a01b038f16907f78a953f3f0d92abc078a34e5d4fedf8708e788e1b29300b3d6170e97f88a13fc90600090a35b8b6001600160a01b03168d6001600160a01b03167f43e5ba57af2a3f1229a242de4441239d77270342ff0fae068bdd64676b0ffd1f6010604051610de8919061263d565b60405180910390a38015610e36576000805461ff0019169055604051600181527f7f26b83ff96e1f2b6a682f133852f6798a09c465da95921460cefb38474024989060200160405180910390a15b50505050505050505050505050565b60026001541415610e685760405162461bcd60e51b81526004016101ee90612774565b60026001908155600a54600160a01b900460ff166001811115610e9b57634e487b7160e01b600052602160045260246000fd5b14610edf5760405162461bcd60e51b815260206004820152601460248201527310b0b93134ba3930ba37b9103932b9b7b63b32b960611b60448201526064016101ee565b60125460ff16610f1b5760405162461bcd60e51b8152602060048201526007602482015266085b1bd8dad95960ca1b60448201526064016101ee565b600b546001600160a01b0316336001600160a01b031614610f6a5760405162461bcd60e51b815260206004820152600960248201526810b932b9b7b63b32b960b91b60448201526064016101ee565b6015548214610fb15760405162461bcd60e51b81526020600482015260136024820152721a5b98dbdc9c9958dd08191a5cdc1d5d195259606a1b60448201526064016101ee565b6005811115610ff35760405162461bcd60e51b815260206004820152600e60248201526d696e76616c69642072756c696e6760901b60448201526064016101ee565b600c546040516370a0823160e01b81523060048201526000916001600160a01b0316906370a082319060240160206040518083038186803b15801561103757600080fd5b505afa15801561104b573d6000803e3d6000fd5b505050506040513d601f19601f8201168201806040525081019061106f9190612591565b9050600081116110915760405162461bcd60e51b81526004016101ee9061274e565b6000600283600681106110b457634e487b7160e01b600052603260045260246000fd5b6040805180820191829052929190910190600290826000855b825461010083900a900460ff168152602060019283018181049485019490930390920291018084116110cd5790505050505050905060008160006002811061112557634e487b7160e01b600052603260045260246000fd5b60200201519050600082600160200201519050600061114482846127dc565b905060008160ff168360ff168761115b9190612821565b6111659190612801565b905060006111738288612840565b9050811561119857600a54600c54611198916001600160a01b03918216911684611d35565b80156111bb57600954600c546111bb916001600160a01b03918216911683611d35565b6010546013556012805460ff19169055600b5460408051838152602081018590529081018a90526001600160a01b03909116907ff08a08afe8a39853d7db7dd0a42f0cdb68a64ee36a554e68c32219f381e5669e9060600160405180910390a2600b546040518981528a916001600160a01b0316907f394027a5fa6e098a1191094d1719d6929b9abc535fcc0c8f448d6a4e756222769060200160405180910390a350506001805550505050505050565b6002600154141561128f5760405162461bcd60e51b81526004016101ee90612774565b600260015560125460ff16156112b75760405162461bcd60e51b81526004016101ee9061272e565b6009546001600160a01b0316336001600160a01b0316146112ea5760405162461bcd60e51b81526004016101ee9061270d565b60135481101561132f5760405162461bcd60e51b815260206004820152601060248201526f1b5a5b195cdd1bdb99481c185cdcd95960821b60448201526064016101ee565b60105481106113745760405162461bcd60e51b8152602060048201526011602482015270696e76616c6964206d696c6573746f6e6560781b60448201526064016101ee565b600c546040516370a0823160e01b81523060048201526000916001600160a01b0316906370a082319060240160206040518083038186803b1580156113b857600080fd5b505afa1580156113cc573d6000803e3d6000fd5b505050506040513d601f19601f820116820180604052508101906113f09190612591565b6013549091506000905b8381116115305760105461141090600190612840565b811480156114535750826010828154811061143b57634e487b7160e01b600052603260045260246000fd5b90600052602060002001548361145191906127c4565b105b15611492576000805160206128c7833981519152816114728486612840565b6040805192835260208301919091520160405180910390a182915061151e565b6000805160206128c783398151915281601083815481106114c357634e487b7160e01b600052603260045260246000fd5b6000918252602091829020015460408051938452918301520160405180910390a16010818154811061150557634e487b7160e01b600052603260045260246000fd5b90600052602060002001548261151b91906127c4565b91505b8061152881612887565b9150506113fa565b50808210156115785760405162461bcd60e51b8152602060048201526014602482015273696e73756666696369656e742062616c616e636560601b60448201526064016101ee565b600a54600c54611595916001600160a01b03918216911683611d35565b806014546115a391906127c4565b6014556115b18360016127c4565b60135550506001805550565b600260015414156115e05760405162461bcd60e51b81526004016101ee90612774565b60026001556115ed611d8c565b60018055565b6010818154811061160357600080fd5b600091825260209091200154905081565b600260015414156116375760405162461bcd60e51b81526004016101ee90612774565b6002600155600c546001600160a01b038281169116141561165f5761165a611d8c565b611756565b600d54421161169e5760405162461bcd60e51b815260206004820152600b60248201526a085d195c9b5a5b985d195960aa1b60448201526064016101ee565b6040516370a0823160e01b81523060048201526000906001600160a01b038316906370a082319060240160206040518083038186803b1580156116e057600080fd5b505afa1580156116f4573d6000803e3d6000fd5b505050506040513d601f19601f820116820180604052508101906117189190612591565b90506000811161173a5760405162461bcd60e51b81526004016101ee9061274e565b600954611754906001600160a01b03848116911683611d35565b505b5060018055565b600260015414156117805760405162461bcd60e51b81526004016101ee90612774565b60026001556115ed611edf565b600260015414156117b05760405162461bcd60e51b81526004016101ee90612774565b6002600155600c546001600160a01b03828116911614156117d35761165a611edf565b6009546001600160a01b0316336001600160a01b0316146118065760405162461bcd60e51b81526004016101ee9061270d565b6040516370a0823160e01b81523060048201526000906001600160a01b038316906370a082319060240160206040518083038186803b15801561184857600080fd5b505afa15801561185c573d6000803e3d6000fd5b505050506040513d601f19601f820116820180604052508101906118809190612591565b600a54909150611754906001600160a01b03848116911683611d35565b600260015414156118c05760405162461bcd60e51b81526004016101ee90612774565b60026001556000600a54600160a01b900460ff1660018111156118f357634e487b7160e01b600052602160045260246000fd5b146119375760405162461bcd60e51b815260206004820152601460248201527310b4b73234bb34b23ab0b6103932b9b7b63b32b960611b60448201526064016101ee565b60125460ff166119735760405162461bcd60e51b8152602060048201526007602482015266085b1bd8dad95960ca1b60448201526064016101ee565b600c546040516370a0823160e01b81523060048201526000916001600160a01b0316906370a082319060240160206040518083038186803b1580156119b757600080fd5b505afa1580156119cb573d6000803e3d6000fd5b505050506040513d601f19601f820116820180604052508101906119ef9190612591565b905060008111611a115760405162461bcd60e51b81526004016101ee9061274e565b600b546001600160a01b0316336001600160a01b031614611a605760405162461bcd60e51b815260206004820152600960248201526810b932b9b7b63b32b960b91b60448201526064016101ee565b6000600e5482611a709190612801565b9050611a7c8183612840565b611a8685876127c4565b14611ad35760405162461bcd60e51b815260206004820152601760248201527f7265736f6c7574696f6e20213d2072656d61696e64657200000000000000000060448201526064016101ee565b8315611af657600a54600c54611af6916001600160a01b03918216911686611d35565b8415611b1957600954600c54611b19916001600160a01b03918216911687611d35565b8015611b3c57600b54600c54611b3c916001600160a01b03918216911683611d35565b6010546013556012805460ff19169055604080518681526020810186905280820183905260608101859052905133917f27035e6ed643518ecfca2b08593fd24d4ae4caba6ce5bab683e9b31a12a5b299919081900360800190a2505060018055505050565b6000611bad6001611caf565b90508015611bc5576000805461ff0019166101001790555b8015611c0c576000805461ff0019169055604051600181527f7f26b83ff96e1f2b6a682f133852f6798a09c465da95921460cefb3847402498906020015b60405180910390a15b50565b60028260068110611c1f57600080fd5b018160028110611c2e57600080fd5b602081049091015460ff601f9092166101000a9004169150829050565b6009546001600160a01b03163314611c755760405162461bcd60e51b81526004016101ee9061270d565b60095460405130916001600160a01b0316907f78a953f3f0d92abc078a34e5d4fedf8708e788e1b29300b3d6170e97f88a13fc90600090a3565b60008054610100900460ff1615611cf6578160ff166001148015611cd25750303b155b611cee5760405162461bcd60e51b81526004016101ee906126bf565b506000611d30565b60005460ff808416911610611d1d5760405162461bcd60e51b81526004016101ee906126bf565b506000805460ff191660ff831617905560015b919050565b604080516001600160a01b038416602482015260448082018490528251808303909101815260649091019091526020810180516001600160e01b031663a9059cbb60e01b179052611d87908490612145565b505050565b60125460ff1615611daf5760405162461bcd60e51b81526004016101ee9061272e565b600d544211611dee5760405162461bcd60e51b815260206004820152600b60248201526a085d195c9b5a5b985d195960aa1b60448201526064016101ee565b600c546040516370a0823160e01b81523060048201526000916001600160a01b0316906370a082319060240160206040518083038186803b158015611e3257600080fd5b505afa158015611e46573d6000803e3d6000fd5b505050506040513d601f19601f82011682018060405250810190611e6a9190612591565b905060008111611e8c5760405162461bcd60e51b81526004016101ee9061274e565b600954600c54611ea9916001600160a01b03918216911683611d35565b6010546013556040518181527f5b6b431d4476a211bb7d41c20d1aab9ae2321deee0d20be3d9fc9b1093fa6e3d90602001611c03565b60125460ff1615611f025760405162461bcd60e51b81526004016101ee9061272e565b6009546001600160a01b0316336001600160a01b031614611f355760405162461bcd60e51b81526004016101ee9061270d565b601354600c546040516370a0823160e01b81523060048201526000916001600160a01b0316906370a082319060240160206040518083038186803b158015611f7c57600080fd5b505afa158015611f90573d6000803e3d6000fd5b505050506040513d601f19601f82011682018060405250810190611fb49190612591565b6010549091508210156120cb57600060108381548110611fe457634e487b7160e01b600052603260045260246000fd5b9060005260206000200154905060016010805490506120039190612840565b8314801561201057508181105b156120185750805b8082101561205f5760405162461bcd60e51b8152602060048201526014602482015273696e73756666696369656e742062616c616e636560601b60448201526064016101ee565b60135461206d9060016127c4565b601355600a54600c5461208d916001600160a01b03918216911683611d35565b8060145461209b91906127c4565b60145560408051848152602081018390526000805160206128c7833981519152910160405180910390a150612141565b600081116120eb5760405162461bcd60e51b81526004016101ee9061274e565b600a54600c54612108916001600160a01b03918216911683611d35565b8060145461211691906127c4565b60145560408051838152602081018390526000805160206128c7833981519152910160405180910390a15b5050565b600061219a826040518060400160405280602081526020017f5361666545524332303a206c6f772d6c6576656c2063616c6c206661696c6564815250856001600160a01b03166122179092919063ffffffff16565b805190915015611d8757808060200190518101906121b8919061255d565b611d875760405162461bcd60e51b815260206004820152602a60248201527f5361666545524332303a204552433230206f7065726174696f6e20646964206e6044820152691bdd081cdd58d8d9595960b21b60648201526084016101ee565b60606122268484600085612230565b90505b9392505050565b6060824710156122915760405162461bcd60e51b815260206004820152602660248201527f416464726573733a20696e73756666696369656e742062616c616e636520666f6044820152651c8818d85b1b60d21b60648201526084016101ee565b6001600160a01b0385163b6122e85760405162461bcd60e51b815260206004820152601d60248201527f416464726573733a2063616c6c20746f206e6f6e2d636f6e747261637400000060448201526064016101ee565b600080866001600160a01b031685876040516123049190612621565b60006040518083038185875af1925050503d8060008114612341576040519150601f19603f3d011682016040523d82523d6000602084013e612346565b606091505b5091509150612356828286612361565b979650505050505050565b60608315612370575081612229565b8251156123805782518084602001fd5b8160405162461bcd60e51b81526004016101ee91906126ac565b8280548282559060005260206000209081019282156123d5579160200282015b828111156123d55782358255916020019190600101906123ba565b506123e19291506123e5565b5090565b5b808211156123e157600081556001016123e6565b80356001600160a01b0381168114611d3057600080fd5b60008083601f840112612422578182fd5b50813567ffffffffffffffff811115612439578182fd5b6020830191508360208260051b850101111561245457600080fd5b9250929050565b8035611d30816128b8565b600060208284031215612477578081fd5b612229826123fa565b6000806000806000806000806000806000806101608d8f0312156124a2578788fd5b6124ab8d6123fa565b9b506124b960208e016123fa565b9a5060408d013560ff811681146124ce578889fd5b99506124dc60608e016123fa565b98506124ea60808e016123fa565b975067ffffffffffffffff60a08e01351115612504578687fd5b6125148e60a08f01358f01612411565b909750955060c08d0135945060e08d013593506101008d0135925061253c6101208e016123fa565b915061254b6101408e0161245b565b90509295989b509295989b509295989b565b60006020828403121561256e578081fd5b8151612229816128b8565b60006020828403121561258a578081fd5b5035919050565b6000602082840312156125a2578081fd5b5051919050565b600080604083850312156125bb578182fd5b50508035926020909101359150565b6000806000606084860312156125de578283fd5b505081359360208301359350604090920135919050565b6000815180845261260d816020860160208601612857565b601f01601f19169290920160200192915050565b60008251612633818460208701612857565b9190910192915050565b6020808252825482820181905260008481528281209092916040850190845b818110156126785783548352600193840193928501920161265c565b50909695505050505050565b60208101600283106126a657634e487b7160e01b600052602160045260246000fd5b91905290565b60006020825261222960208301846125f5565b6020808252602e908201527f496e697469616c697a61626c653a20636f6e747261637420697320616c72656160408201526d191e481a5b9a5d1a585b1a5e995960921b606082015260800190565b6020808252600790820152660858db1a595b9d60ca1b604082015260600190565b6020808252600690820152651b1bd8dad95960d21b604082015260600190565b6020808252600c908201526b062616c616e636520697320360a41b604082015260600190565b6020808252601f908201527f5265656e7472616e637947756172643a207265656e7472616e742063616c6c00604082015260600190565b60008382526040602083015261222660408301846125f5565b600082198211156127d7576127d76128a2565b500190565b600060ff821660ff84168060ff038211156127f9576127f96128a2565b019392505050565b60008261281c57634e487b7160e01b81526012600452602481fd5b500490565b600081600019048311821515161561283b5761283b6128a2565b500290565b600082821015612852576128526128a2565b500390565b60005b8381101561287257818101518382015260200161285a565b83811115612881576000848401525b50505050565b600060001982141561289b5761289b6128a2565b5060010190565b634e487b7160e01b600052601160045260246000fd5b8015158114611c0c57600080fdfe99f6215451102cb496830dfd718a41ae7fb7d92607137ea8961d076bea55c5d3a26469706673582212205c3ff56941fccd907e46f72611cfc3436decebbff6179ba847d08d0d14a6f91764736f6c63430008030033",
  "linkReferences": {},
  "deployedLinkReferences": {}
}