{
  "_format": "hh-sol-artifact-1",
  "contractName": "SmartInvoiceFactory",
  "sourceName": "contracts/SmartInvoiceFactory.sol",
  "abi": [
    {
      "inputs": [
        {
          "internalType": "address",
          "name": "_implementation",
          "type": "address"
        },
        {
          "internalType": "address",
          "name": "_wrappedNativeToken",
          "type": "address"
        }
      ],
      "stateMutability": "nonpayable",
      "type": "constructor"
    },
    {
      "anonymous": false,
      "inputs": [
        {
          "indexed": true,
          "internalType": "uint256",
          "name": "index",
          "type": "uint256"
        },
        {
          "indexed": false,
          "internalType": "address",
          "name": "invoice",
          "type": "address"
        },
        {
          "indexed": false,
          "internalType": "uint256[]",
          "name": "amounts",
          "type": "uint256[]"
        }
      ],
      "name": "LogNewInvoice",
      "type": "event"
    },
    {
      "anonymous": false,
      "inputs": [
        {
          "indexed": true,
          "internalType": "address",
          "name": "resolver",
          "type": "address"
        },
        {
          "indexed": true,
          "internalType": "uint256",
          "name": "resolutionRate",
          "type": "uint256"
        },
        {
          "indexed": false,
          "internalType": "bytes32",
          "name": "details",
          "type": "bytes32"
        }
      ],
      "name": "UpdateResolutionRate",
      "type": "event"
    },
    {
      "inputs": [
        {
          "internalType": "address",
          "name": "_client",
          "type": "address"
        },
        {
          "internalType": "address",
          "name": "_provider",
          "type": "address"
        },
        {
          "internalType": "uint8",
          "name": "_resolverType",
          "type": "uint8"
        },
        {
          "internalType": "address",
          "name": "_resolver",
          "type": "address"
        },
        {
          "internalType": "address",
          "name": "_token",
          "type": "address"
        },
        {
          "internalType": "uint256[]",
          "name": "_amounts",
          "type": "uint256[]"
        },
        {
          "internalType": "uint256",
          "name": "_terminationTime",
          "type": "uint256"
        },
        {
          "internalType": "bytes32",
          "name": "_details",
          "type": "bytes32"
        },
        {
          "internalType": "bool",
          "name": "_requireVerification",
          "type": "bool"
        }
      ],
      "name": "create",
      "outputs": [
        {
          "internalType": "address",
          "name": "",
          "type": "address"
        }
      ],
      "stateMutability": "nonpayable",
      "type": "function"
    },
    {
      "inputs": [
        {
          "internalType": "address",
          "name": "_client",
          "type": "address"
        },
        {
          "internalType": "address",
          "name": "_provider",
          "type": "address"
        },
        {
          "internalType": "uint8",
          "name": "_resolverType",
          "type": "uint8"
        },
        {
          "internalType": "address",
          "name": "_resolver",
          "type": "address"
        },
        {
          "internalType": "address",
          "name": "_token",
          "type": "address"
        },
        {
          "internalType": "uint256[]",
          "name": "_amounts",
          "type": "uint256[]"
        },
        {
          "internalType": "uint256",
          "name": "_terminationTime",
          "type": "uint256"
        },
        {
          "internalType": "bytes32",
          "name": "_details",
          "type": "bytes32"
        },
        {
          "internalType": "bytes32",
          "name": "_salt",
          "type": "bytes32"
        },
        {
          "internalType": "bool",
          "name": "_requireVerification",
          "type": "bool"
        }
      ],
      "name": "createDeterministic",
      "outputs": [
        {
          "internalType": "address",
          "name": "",
          "type": "address"
        }
      ],
      "stateMutability": "nonpayable",
      "type": "function"
    },
    {
      "inputs": [
        {
          "internalType": "uint256",
          "name": "_index",
          "type": "uint256"
        }
      ],
      "name": "getInvoiceAddress",
      "outputs": [
        {
          "internalType": "address",
          "name": "",
          "type": "address"
        }
      ],
      "stateMutability": "view",
      "type": "function"
    },
    {
      "inputs": [],
      "name": "implementation",
      "outputs": [
        {
          "internalType": "address",
          "name": "",
          "type": "address"
        }
      ],
      "stateMutability": "view",
      "type": "function"
    },
    {
      "inputs": [],
      "name": "invoiceCount",
      "outputs": [
        {
          "internalType": "uint256",
          "name": "",
          "type": "uint256"
        }
      ],
      "stateMutability": "view",
      "type": "function"
    },
    {
      "inputs": [
        {
          "internalType": "bytes32",
          "name": "_salt",
          "type": "bytes32"
        }
      ],
      "name": "predictDeterministicAddress",
      "outputs": [
        {
          "internalType": "address",
          "name": "",
          "type": "address"
        }
      ],
      "stateMutability": "view",
      "type": "function"
    },
    {
      "inputs": [
        {
          "internalType": "address",
          "name": "",
          "type": "address"
        }
      ],
      "name": "resolutionRates",
      "outputs": [
        {
          "internalType": "uint256",
          "name": "",
          "type": "uint256"
        }
      ],
      "stateMutability": "view",
      "type": "function"
    },
    {
      "inputs": [
        {
          "internalType": "uint256",
          "name": "_resolutionRate",
          "type": "uint256"
        },
        {
          "internalType": "bytes32",
          "name": "_details",
          "type": "bytes32"
        }
      ],
      "name": "updateResolutionRate",
      "outputs": [],
      "stateMutability": "nonpayable",
      "type": "function"
    },
    {
      "inputs": [],
      "name": "wrappedNativeToken",
      "outputs": [
        {
          "internalType": "address",
          "name": "",
          "type": "address"
        }
      ],
      "stateMutability": "view",
      "type": "function"
    }
  ],
  "bytecode": "0x60c06040526000805534801561001457600080fd5b50604051610afb380380610afb8339810160408190526100339161011e565b6001600160a01b03821661008e5760405162461bcd60e51b815260206004820152601660248201527f696e76616c696420696d706c656d656e746174696f6e0000000000000000000060448201526064015b60405180910390fd5b6001600160a01b0381166100e45760405162461bcd60e51b815260206004820152601a60248201527f696e76616c696420777261707065644e6174697665546f6b656e0000000000006044820152606401610085565b6001600160601b0319606092831b8116608052911b1660a052610150565b80516001600160a01b038116811461011957600080fd5b919050565b60008060408385031215610130578182fd5b61013983610102565b915061014760208401610102565b90509250929050565b60805160601c60a05160601c6109656101966000396000818160b9015261042301526000818161010b015281816101b8015281816101ed015261029001526109656000f3fe608060405234801561001057600080fd5b50600436106100935760003560e01c8063792d3ca211610066578063792d3ca21461012d57806385652d1f146101405780639cc3f4e314610169578063d0c1c37814610189578063f0ba03f11461019e57610093565b80631346f0c41461009857806317fcb39b146100b45780635414dff0146100f35780635c60da1b14610106575b600080fd5b6100a160005481565b6040519081526020015b60405180910390f35b6100db7f000000000000000000000000000000000000000000000000000000000000000081565b6040516001600160a01b0390911681526020016100ab565b6100db6101013660046107f3565b6101b1565b6100db7f000000000000000000000000000000000000000000000000000000000000000081565b6100db61013b366004610676565b6101e5565b6100db61014e3660046107f3565b6000908152600160205260409020546001600160a01b031690565b6100a161017736600461065c565b60026020526000908152604090205481565b61019c61019736600461080b565b610235565b005b6100db6101ac36600461072f565b610288565b60006101dd7f0000000000000000000000000000000000000000000000000000000000000000836102da565b90505b919050565b6000806102117f0000000000000000000000000000000000000000000000000000000000000000610349565b9050610226818d8d8d8d8d8d8d8d8d8d6103e6565b9b9a5050505050505050505050565b3360008181526002602052604090819020849055518391907f468f3544f9eb5e13d48cbf0ca5e97c47dcdc9d1639571b5da03085225426f69c9061027c9085815260200190565b60405180910390a35050565b6000806102b57f00000000000000000000000000000000000000000000000000000000000000008561053a565b90506102ca818e8e8e8e8e8e8e8e8e8d6103e6565b9c9b505050505050505050505050565b6000610340838330604051733d602d80600a3d3981f3363d3d373d3d3d363d7360601b8152606093841b60148201526f5af43d82803e903d91602b57fd5bf3ff60801b6028820152921b6038830152604c8201526037808220606c830152605591012090565b90505b92915050565b6000604051733d602d80600a3d3981f3363d3d373d3d3d363d7360601b81528260601b60148201526e5af43d82803e903d91602b57fd5bf360881b60288201526037816000f09150506001600160a01b0381166101e05760405162461bcd60e51b8152602060048201526016602482015275115490cc4c4d8dce8818dc99585d194819985a5b195960521b60448201526064015b60405180910390fd5b6001600160a01b03871660009081526002602052604090205480610408575060145b8b6001600160a01b031663185472ef8c8c8c8c8c8c8c8c8a8d7f00000000000000000000000000000000000000000000000000000000000000008e6040518d63ffffffff1660e01b815260040161046a9c9b9a99989796959493929190610860565b600060405180830381600087803b15801561048457600080fd5b505af1158015610498573d6000803e3d6000fd5b505050506000805490508c6001600083815260200190815260200160002060006101000a8154816001600160a01b0302191690836001600160a01b0316021790555060005460016104e9919061090b565b600081905550807f9360fe936897f1775b606f76132130442d2d056c23b46df73cc21f910889974e8e8989604051610523939291906108dd565b60405180910390a250505050505050505050505050565b6000604051733d602d80600a3d3981f3363d3d373d3d3d363d7360601b81528360601b60148201526e5af43d82803e903d91602b57fd5bf360881b6028820152826037826000f59150506001600160a01b0381166103435760405162461bcd60e51b815260206004820152601760248201527f455243313136373a2063726561746532206661696c656400000000000000000060448201526064016103dd565b80356001600160a01b03811681146101e057600080fd5b60008083601f840112610602578182fd5b50813567ffffffffffffffff811115610619578182fd5b6020830191508360208260051b850101111561063457600080fd5b9250929050565b803580151581146101e057600080fd5b803560ff811681146101e057600080fd5b60006020828403121561066d578081fd5b610340826105da565b6000806000806000806000806000806101208b8d031215610695578586fd5b61069e8b6105da565b99506106ac60208c016105da565b98506106ba60408c0161064b565b97506106c860608c016105da565b96506106d660808c016105da565b955060a08b013567ffffffffffffffff8111156106f1578586fd5b6106fd8d828e016105f1565b90965094505060c08b0135925060e08b0135915061071e6101008c0161063b565b90509295989b9194979a5092959850565b60008060008060008060008060008060006101408c8e031215610750578081fd5b6107598c6105da565b9a5061076760208d016105da565b995061077560408d0161064b565b985061078360608d016105da565b975061079160808d016105da565b965060a08c013567ffffffffffffffff8111156107ac578182fd5b6107b88e828f016105f1565b90975095505060c08c0135935060e08c013592506101008c013591506107e16101208d0161063b565b90509295989b509295989b9093969950565b600060208284031215610804578081fd5b5035919050565b6000806040838503121561081d578182fd5b50508035926020909101359150565b81835260006001600160fb1b03831115610844578081fd5b8260051b80836020870137939093016020019283525090919050565b600060018060a01b03808f168352808e16602084015260ff8d166040840152808c166060840152808b16608084015261016060a08401526108a661016084018a8c61082c565b60c084019890985260e083019690965250610100810193909352921661012082015290151561014090910152979650505050505050565b6001600160a01b0384168152604060208201819052600090610902908301848661082c565b95945050505050565b6000821982111561092a57634e487b7160e01b81526011600452602481fd5b50019056fea26469706673582212207e7af6c8c968c361c7741ff08ebdff98d14a7affaec59c577d0304776e5073c164736f6c63430008030033",
  "linkReferences": {},
  "deployedLinkReferences": {}
}