{
  "_format": "hh-sol-artifact-1",
  "contractName": "SmartInvoice",
  "sourceName": "contracts/SmartInvoice.sol",
  "abi": [
    {
      "anonymous": false,
      "inputs": [
        {
          "indexed": true,
          "internalType": "address",
          "name": "sender",
          "type": "address"
        },
        {
          "indexed": false,
          "internalType": "uint256",
          "name": "amount",
          "type": "uint256"
        }
      ],
      "name": "Deposit",
      "type": "event"
    },
    {
      "anonymous": false,
      "inputs": [
        {
          "indexed": true,
          "internalType": "address",
          "name": "sender",
          "type": "address"
        },
        {
          "indexed": false,
          "internalType": "bytes32",
          "name": "details",
          "type": "bytes32"
        }
      ],
      "name": "DetailsUpdated",
      "type": "event"
    },
    {
      "anonymous": false,
      "inputs": [
        {
          "indexed": false,
          "internalType": "uint8",
          "name": "version",
          "type": "uint8"
        }
      ],
      "name": "Initialized",
      "type": "event"
    },
    {
      "anonymous": false,
      "inputs": [
        {
          "indexed": true,
          "internalType": "address",
          "name": "sender",
          "type": "address"
        },
        {
          "indexed": false,
          "internalType": "bytes32",
          "name": "details",
          "type": "bytes32"
        }
      ],
      "name": "Lock",
      "type": "event"
    },
    {
      "anonymous": false,
      "inputs": [
        {
          "indexed": true,
          "internalType": "address",
          "name": "sender",
          "type": "address"
        },
        {
          "indexed": true,
          "internalType": "address",
          "name": "invoice",
          "type": "address"
        },
        {
          "indexed": false,
          "internalType": "uint256[]",
          "name": "milestones",
          "type": "uint256[]"
        }
      ],
      "name": "MilestonesAdded",
      "type": "event"
    },
    {
      "anonymous": false,
      "inputs": [
        {
          "indexed": true,
          "internalType": "address",
          "name": "client",
          "type": "address"
        },
        {
          "indexed": true,
          "internalType": "address",
          "name": "provider",
          "type": "address"
        },
        {
          "indexed": false,
          "internalType": "uint256[]",
          "name": "amounts",
          "type": "uint256[]"
        }
      ],
      "name": "Register",
      "type": "event"
    },
    {
      "anonymous": false,
      "inputs": [
        {
          "indexed": false,
          "internalType": "uint256",
          "name": "milestone",
          "type": "uint256"
        },
        {
          "indexed": false,
          "internalType": "uint256",
          "name": "amount",
          "type": "uint256"
        }
      ],
      "name": "Release",
      "type": "event"
    },
    {
      "anonymous": false,
      "inputs": [
        {
          "indexed": true,
          "internalType": "address",
          "name": "resolver",
          "type": "address"
        },
        {
          "indexed": false,
          "internalType": "uint256",
          "name": "clientAward",
          "type": "uint256"
        },
        {
          "indexed": false,
          "internalType": "uint256",
          "name": "providerAward",
          "type": "uint256"
        },
        {
          "indexed": false,
          "internalType": "uint256",
          "name": "resolutionFee",
          "type": "uint256"
        },
        {
          "indexed": false,
          "internalType": "bytes32",
          "name": "details",
          "type": "bytes32"
        }
      ],
      "name": "Resolve",
      "type": "event"
    },
    {
      "anonymous": false,
      "inputs": [
        {
          "indexed": true,
          "internalType": "address",
          "name": "resolver",
          "type": "address"
        },
        {
          "indexed": false,
          "internalType": "uint256",
          "name": "clientAward",
          "type": "uint256"
        },
        {
          "indexed": false,
          "internalType": "uint256",
          "name": "providerAward",
          "type": "uint256"
        },
        {
          "indexed": false,
          "internalType": "uint256",
          "name": "ruling",
          "type": "uint256"
        }
      ],
      "name": "Rule",
      "type": "event"
    },
    {
      "anonymous": false,
      "inputs": [
        {
          "indexed": true,
          "internalType": "address",
          "name": "_arbitrator",
          "type": "address"
        },
        {
          "indexed": true,
          "internalType": "uint256",
          "name": "_disputeID",
          "type": "uint256"
        },
        {
          "indexed": false,
          "internalType": "uint256",
          "name": "_ruling",
          "type": "uint256"
        }
      ],
      "name": "Ruling",
      "type": "event"
    },
    {
      "anonymous": false,
      "inputs": [
        {
          "indexed": true,
          "internalType": "address",
          "name": "client",
          "type": "address"
        },
        {
          "indexed": true,
          "internalType": "address",
          "name": "invoice",
          "type": "address"
        }
      ],
      "name": "Verified",
      "type": "event"
    },
    {
      "anonymous": false,
      "inputs": [
        {
          "indexed": false,
          "internalType": "uint256",
          "name": "balance",
          "type": "uint256"
        }
      ],
      "name": "Withdraw",
      "type": "event"
    },
    {
      "inputs": [],
      "name": "EMPTY_BYTES",
      "outputs": [
        {
          "internalType": "bytes32",
          "name": "",
          "type": "bytes32"
        }
      ],
      "stateMutability": "view",
      "type": "function"
    },
    {
      "inputs": [],
      "name": "MAX_TERMINATION_TIME",
      "outputs": [
        {
          "internalType": "uint256",
          "name": "",
          "type": "uint256"
        }
      ],
      "stateMutability": "view",
      "type": "function"
    },
    {
      "inputs": [],
      "name": "NUM_RULING_OPTIONS",
      "outputs": [
        {
          "internalType": "uint256",
          "name": "",
          "type": "uint256"
        }
      ],
      "stateMutability": "view",
      "type": "function"
    },
    {
      "inputs": [
        {
          "internalType": "uint256",
          "name": "",
          "type": "uint256"
        },
        {
          "internalType": "uint256",
          "name": "",
          "type": "uint256"
        }
      ],
      "name": "RULINGS",
      "outputs": [
        {
          "internalType": "uint8",
          "name": "",
          "type": "uint8"
        }
      ],
      "stateMutability": "view",
      "type": "function"
    },
    {
      "inputs": [
        {
          "internalType": "uint256[]",
          "name": "_milestones",
          "type": "uint256[]"
        },
        {
          "internalType": "bytes32",
          "name": "_details",
          "type": "bytes32"
        }
      ],
      "name": "addMilestones",
      "outputs": [],
      "stateMutability": "nonpayable",
      "type": "function"
    },
    {
      "inputs": [
        {
          "internalType": "uint256[]",
          "name": "_milestones",
          "type": "uint256[]"
        }
      ],
      "name": "addMilestones",
      "outputs": [],
      "stateMutability": "nonpayable",
      "type": "function"
    },
    {
      "inputs": [
        {
          "internalType": "uint256",
          "name": "",
          "type": "uint256"
        }
      ],
      "name": "amounts",
      "outputs": [
        {
          "internalType": "uint256",
          "name": "",
          "type": "uint256"
        }
      ],
      "stateMutability": "view",
      "type": "function"
    },
    {
      "inputs": [],
      "name": "client",
      "outputs": [
        {
          "internalType": "address",
          "name": "",
          "type": "address"
        }
      ],
      "stateMutability": "view",
      "type": "function"
    },
    {
      "inputs": [],
      "name": "details",
      "outputs": [
        {
          "internalType": "bytes32",
          "name": "",
          "type": "bytes32"
        }
      ],
      "stateMutability": "view",
      "type": "function"
    },
    {
      "inputs": [],
      "name": "disputeId",
      "outputs": [
        {
          "internalType": "uint256",
          "name": "",
          "type": "uint256"
        }
      ],
      "stateMutability": "view",
      "type": "function"
    },
    {
      "inputs": [],
      "name": "getAmounts",
      "outputs": [
        {
          "internalType": "uint256[]",
          "name": "",
          "type": "uint256[]"
        }
      ],
      "stateMutability": "view",
      "type": "function"
    },
    {
      "inputs": [
        {
          "internalType": "address",
          "name": "_client",
          "type": "address"
        },
        {
          "internalType": "address",
          "name": "_provider",
          "type": "address"
        },
        {
          "internalType": "uint8",
          "name": "_resolverType",
          "type": "uint8"
        },
        {
          "internalType": "address",
          "name": "_resolver",
          "type": "address"
        },
        {
          "internalType": "address",
          "name": "_token",
          "type": "address"
        },
        {
          "internalType": "uint256[]",
          "name": "_amounts",
          "type": "uint256[]"
        },
        {
          "internalType": "uint256",
          "name": "_terminationTime",
          "type": "uint256"
        },
        {
          "internalType": "uint256",
          "name": "_resolutionRate",
          "type": "uint256"
        },
        {
          "internalType": "bytes32",
          "name": "_details",
          "type": "bytes32"
        },
        {
          "internalType": "address",
          "name": "_wrappedNativeToken",
          "type": "address"
        },
        {
          "internalType": "bool",
          "name": "_requireVerification",
          "type": "bool"
        }
      ],
      "name": "init",
      "outputs": [],
      "stateMutability": "nonpayable",
      "type": "function"
    },
    {
      "inputs": [],
      "name": "initLock",
      "outputs": [],
      "stateMutability": "nonpayable",
      "type": "function"
    },
    {
      "inputs": [
        {
          "internalType": "bytes32",
          "name": "_details",
          "type": "bytes32"
        }
      ],
      "name": "lock",
      "outputs": [],
      "stateMutability": "payable",
      "type": "function"
    },
    {
      "inputs": [],
      "name": "locked",
      "outputs": [
        {
          "internalType": "bool",
          "name": "",
          "type": "bool"
        }
      ],
      "stateMutability": "view",
      "type": "function"
    },
    {
      "inputs": [],
      "name": "milestone",
      "outputs": [
        {
          "internalType": "uint256",
          "name": "",
          "type": "uint256"
        }
      ],
      "stateMutability": "view",
      "type": "function"
    },
    {
      "inputs": [],
      "name": "provider",
      "outputs": [
        {
          "internalType": "address",
          "name": "",
          "type": "address"
        }
      ],
      "stateMutability": "view",
      "type": "function"
    },
    {
      "inputs": [
        {
          "internalType": "uint256",
          "name": "_milestone",
          "type": "uint256"
        }
      ],
      "name": "release",
      "outputs": [],
      "stateMutability": "nonpayable",
      "type": "function"
    },
    {
      "inputs": [],
      "name": "release",
      "outputs": [],
      "stateMutability": "nonpayable",
      "type": "function"
    },
    {
      "inputs": [
        {
          "internalType": "address",
          "name": "_token",
          "type": "address"
        }
      ],
      "name": "releaseTokens",
      "outputs": [],
      "stateMutability": "nonpayable",
      "type": "function"
    },
    {
      "inputs": [],
      "name": "released",
      "outputs": [
        {
          "internalType": "uint256",
          "name": "",
          "type": "uint256"
        }
      ],
      "stateMutability": "view",
      "type": "function"
    },
    {
      "inputs": [],
      "name": "resolutionRate",
      "outputs": [
        {
          "internalType": "uint256",
          "name": "",
          "type": "uint256"
        }
      ],
      "stateMutability": "view",
      "type": "function"
    },
    {
      "inputs": [
        {
          "internalType": "uint256",
          "name": "_clientAward",
          "type": "uint256"
        },
        {
          "internalType": "uint256",
          "name": "_providerAward",
          "type": "uint256"
        },
        {
          "internalType": "bytes32",
          "name": "_details",
          "type": "bytes32"
        }
      ],
      "name": "resolve",
      "outputs": [],
      "stateMutability": "nonpayable",
      "type": "function"
    },
    {
      "inputs": [],
      "name": "resolver",
      "outputs": [
        {
          "internalType": "address",
          "name": "",
          "type": "address"
        }
      ],
      "stateMutability": "view",
      "type": "function"
    },
    {
      "inputs": [],
      "name": "resolverType",
      "outputs": [
        {
          "internalType": "enum SmartInvoice.ADR",
          "name": "",
          "type": "uint8"
        }
      ],
      "stateMutability": "view",
      "type": "function"
    },
    {
      "inputs": [
        {
          "internalType": "uint256",
          "name": "_disputeId",
          "type": "uint256"
        },
        {
          "internalType": "uint256",
          "name": "_ruling",
          "type": "uint256"
        }
      ],
      "name": "rule",
      "outputs": [],
      "stateMutability": "nonpayable",
      "type": "function"
    },
    {
      "inputs": [],
      "name": "terminationTime",
      "outputs": [
        {
          "internalType": "uint256",
          "name": "",
          "type": "uint256"
        }
      ],
      "stateMutability": "view",
      "type": "function"
    },
    {
      "inputs": [],
      "name": "token",
      "outputs": [
        {
          "internalType": "address",
          "name": "",
          "type": "address"
        }
      ],
      "stateMutability": "view",
      "type": "function"
    },
    {
      "inputs": [],
      "name": "total",
      "outputs": [
        {
          "internalType": "uint256",
          "name": "",
          "type": "uint256"
        }
      ],
      "stateMutability": "view",
      "type": "function"
    },
    {
      "inputs": [],
      "name": "verify",
      "outputs": [],
      "stateMutability": "nonpayable",
      "type": "function"
    },
    {
      "inputs": [],
      "name": "withdraw",
      "outputs": [],
      "stateMutability": "nonpayable",
      "type": "function"
    },
    {
      "inputs": [
        {
          "internalType": "address",
          "name": "_token",
          "type": "address"
        }
      ],
      "name": "withdrawTokens",
      "outputs": [],
      "stateMutability": "nonpayable",
      "type": "function"
    },
    {
      "inputs": [],
      "name": "wrappedNativeToken",
      "outputs": [
        {
          "internalType": "address",
          "name": "",
          "type": "address"
        }
      ],
      "stateMutability": "view",
      "type": "function"
    },
    {
      "stateMutability": "payable",
      "type": "receive"
    }
  ],
  "bytecode": "0x6001610140818152610160829052608090815261018082815260006101a081905260a09190915260036101c08181526101e085905260c05261020084815261022085905260e05261024084815261026091909152610100526102c06040526102809081526102a0929092526101209190915262000081906002906006620000b0565b506000601155600060135560006014556000801b601655348015620000a557600080fd5b5060018055620001c3565b8260068101928215620000ef579160200282015b82811115620000ef578251620000de908390600262000101565b5091602001919060010190620000c4565b50620000fd92915062000197565b5090565b600183019183908215620001895791602002820160005b838211156200015857835183826101000a81548160ff021916908360ff160217905550926020019260010160208160000104928301926001030262000118565b8015620001875782816101000a81549060ff021916905560010160208160000104928301926001030262000158565b505b50620000fd929150620001ad565b80821115620000fd576000815560010162000197565b80821115620000fd576000815560010162000197565b612f1980620001d36000396000f3fe6080604052600436106101f25760003560e01c80635ce6288c1161010d578063a7d07c82116100a0578063e38f48611161006f578063e38f48611461067b578063e86dad2414610690578063f51cf927146106a8578063fc0c546a146106da578063fc735e99146106fa5761032d565b8063a7d07c8214610605578063ce4254ce14610625578063cf3090121461063b578063dbac7806146106655761032d565b806386d1a69f116100dc57806386d1a69f146105a457806387b0be48146105b9578063946f2e48146105d957806396132521146105ef5761032d565b80635ce6288c1461052157806370ff6bd714610536578063786ad4eb14610564578063868af224146105845761032d565b80632e77c8d2116101855780633d370b4e116101545780633d370b4e146104a957806345f0a44f146104cb57806349df728c146104eb578063565974d31461050b5761032d565b80632e77c8d21461043e578063311a6c561461045457806337bdc99b146104745780633ccfd60b146104945761032d565b8063109e94cf116101c1578063109e94cf146103c857806317fcb39b146103e8578063185472ef146104085780632ddbd13a146104285761032d565b806301670ba914610332578063036945b71461034757806304f3bcec14610370578063085d4883146103a85761032d565b3661032d5760125460ff16156102235760405162461bcd60e51b815260040161021a90612d2b565b60405180910390fd5b600854600c546001600160a01b039081169116146102795760405162461bcd60e51b815260206004820152601360248201527210bbb930b83832b22730ba34bb32aa37b5b2b760691b604482015260640161021a565b600860009054906101000a90046001600160a01b03166001600160a01b031663d0e30db0346040518263ffffffff1660e01b81526004016000604051808303818588803b1580156102c957600080fd5b505af11580156102dd573d6000803e3d6000fd5b50505050506102e93390565b6001600160a01b03167fe1fffcc4923d04b559f4d29a8bfc6cda04eb5b0d3c460751c2402c5c5cc9109c3460405161032391815260200190565b60405180910390a2005b600080fd5b610345610340366004612b04565b61070f565b005b34801561035357600080fd5b5061035d60165481565b6040519081526020015b60405180910390f35b34801561037c57600080fd5b50600b54610390906001600160a01b031681565b6040516001600160a01b039091168152602001610367565b3480156103b457600080fd5b50600a54610390906001600160a01b031681565b3480156103d457600080fd5b50600954610390906001600160a01b031681565b3480156103f457600080fd5b50600854610390906001600160a01b031681565b34801561041457600080fd5b50610345610423366004612981565b6109e4565b34801561043457600080fd5b5061035d60115481565b34801561044a57600080fd5b5061035d60155481565b34801561046057600080fd5b5061034561046f366004612b34565b610ee8565b34801561048057600080fd5b5061034561048f366004612b04565b61130f565b3480156104a057600080fd5b50610345611660565b3480156104b557600080fd5b506104be611696565b6040516103679190612c02565b3480156104d757600080fd5b5061035d6104e6366004612b04565b6116ee565b3480156104f757600080fd5b50610345610506366004612967565b61170f565b34801561051757600080fd5b5061035d600f5481565b34801561052d57600080fd5b5061035d600581565b34801561054257600080fd5b50600a5461055790600160a01b900460ff1681565b6040516103679190612c81565b34801561057057600080fd5b5061034561057f366004612a9e565b611858565b34801561059057600080fd5b5061034561059f366004612a5e565b611868565b3480156105b057600080fd5b50610345611879565b3480156105c557600080fd5b506103456105d4366004612967565b6118a9565b3480156105e557600080fd5b5061035d600e5481565b3480156105fb57600080fd5b5061035d60145481565b34801561061157600080fd5b50610345610620366004612b55565b6119b9565b34801561063157600080fd5b5061035d600d5481565b34801561064757600080fd5b506012546106559060ff1681565b6040519015158152602001610367565b34801561067157600080fd5b5061035d60135481565b34801561068757600080fd5b50610345611cbd565b34801561069c57600080fd5b5061035d6303c30ab081565b3480156106b457600080fd5b506106c86106c3366004612b34565b611d2b565b60405160ff9091168152602001610367565b3480156106e657600080fd5b50600c54610390906001600160a01b031681565b34801561070657600080fd5b50610345611d67565b600260015414156107325760405162461bcd60e51b815260040161021a90612d71565b600260015560125460ff161561075a5760405162461bcd60e51b815260040161021a90612d2b565b600c546040516370a0823160e01b81523060048201526000916001600160a01b0316906370a082319060240160206040518083038186803b15801561079e57600080fd5b505afa1580156107b2573d6000803e3d6000fd5b505050506040513d601f19601f820116820180604052508101906107d69190612b1c565b9050600081116107f85760405162461bcd60e51b815260040161021a90612d4b565b600d5442106108365760405162461bcd60e51b815260206004820152600a6024820152691d195c9b5a5b985d195960b21b604482015260640161021a565b6009546001600160a01b0316336001600160a01b0316148061086b5750600a546001600160a01b0316336001600160a01b0316145b6108a05760405162461bcd60e51b815260206004820152600660248201526521706172747960d01b604482015260640161021a565b6001600a54600160a01b900460ff1660018111156108ce57634e487b7160e01b600052602160045260246000fd5b141561098657600b54600f546040516001600160a01b039092169163c13517e19134916005916109049160200190815260200190565b6040516020818303038152906040526040518463ffffffff1660e01b8152600401610930929190612da8565b6020604051808303818588803b15801561094957600080fd5b505af115801561095d573d6000803e3d6000fd5b50505050506040513d601f19601f820116820180604052508101906109829190612b1c565b6015555b6012805460ff1916600117905561099a3390565b6001600160a01b03167fe55f8011a92f4874f2b5795bfe755853e25c72d78f99ce599a78e505178ba240836040516109d491815260200190565b60405180910390a2505060018055565b60006109f06001611dcb565b90508015610a08576000805461ff0019166101001790555b6001600160a01b038d16610a4f5760405162461bcd60e51b815260206004820152600e60248201526d1a5b9d985b1a590818db1a595b9d60921b604482015260640161021a565b6001600160a01b038c16610a985760405162461bcd60e51b815260206004820152601060248201526f34b73b30b634b210383937bb34b232b960811b604482015260640161021a565b600160ff8c161115610ae35760405162461bcd60e51b8152602060048201526014602482015273696e76616c6964207265736f6c7665725479706560601b604482015260640161021a565b6001600160a01b038a16610b2c5760405162461bcd60e51b815260206004820152601060248201526f34b73b30b634b2103932b9b7b63b32b960811b604482015260640161021a565b6001600160a01b038916610b725760405162461bcd60e51b815260206004820152600d60248201526c34b73b30b634b2103a37b5b2b760991b604482015260640161021a565b428611610bb25760405162461bcd60e51b815260206004820152600e60248201526d191d5c985d1a5bdb88195b99195960921b604482015260640161021a565b610bc06303c30ab042612dc1565b861115610c035760405162461bcd60e51b81526020600482015260116024820152706475726174696f6e20746f6f206c6f6e6760781b604482015260640161021a565b60008511610c4c5760405162461bcd60e51b8152602060048201526016602482015275696e76616c6964207265736f6c7574696f6e5261746560501b604482015260640161021a565b6001600160a01b038316610ca25760405162461bcd60e51b815260206004820152601a60248201527f696e76616c696420777261707065644e6174697665546f6b656e000000000000604482015260640161021a565b8c600960006101000a8154816001600160a01b0302191690836001600160a01b031602179055508b600a60006101000a8154816001600160a01b0302191690836001600160a01b031602179055508a60ff166001811115610d1357634e487b7160e01b600052602160045260246000fd5b600a805460ff60a01b1916600160a01b836001811115610d4357634e487b7160e01b600052602160045260246000fd5b0217905550600b80546001600160a01b03808d166001600160a01b031992831617909255600c8054928c1692909116919091179055610d8460108989612860565b5060005b601054811015610de05760108181548110610db357634e487b7160e01b600052603260045260246000fd5b9060005260206000200154601154610dcb9190612dc1565b60115580610dd881612e84565b915050610d88565b50600d869055600e859055600f849055600880546001600160a01b0319166001600160a01b03851617905581610e475760405130906001600160a01b038f16907f78a953f3f0d92abc078a34e5d4fedf8708e788e1b29300b3d6170e97f88a13fc90600090a35b8b6001600160a01b03168d6001600160a01b03167f43e5ba57af2a3f1229a242de4441239d77270342ff0fae068bdd64676b0ffd1f6010604051610e8b9190612c46565b60405180910390a38015610ed9576000805461ff0019169055604051600181527f7f26b83ff96e1f2b6a682f133852f6798a09c465da95921460cefb38474024989060200160405180910390a15b50505050505050505050505050565b60026001541415610f0b5760405162461bcd60e51b815260040161021a90612d71565b60026001908155600a54600160a01b900460ff166001811115610f3e57634e487b7160e01b600052602160045260246000fd5b14610f825760405162461bcd60e51b815260206004820152601460248201527310b0b93134ba3930ba37b9103932b9b7b63b32b960611b604482015260640161021a565b60125460ff16610fbe5760405162461bcd60e51b8152602060048201526007602482015266085b1bd8dad95960ca1b604482015260640161021a565b600b546001600160a01b0316336001600160a01b03161461100d5760405162461bcd60e51b815260206004820152600960248201526810b932b9b7b63b32b960b91b604482015260640161021a565b60155482146110545760405162461bcd60e51b81526020600482015260136024820152721a5b98dbdc9c9958dd08191a5cdc1d5d195259606a1b604482015260640161021a565b60058111156110965760405162461bcd60e51b815260206004820152600e60248201526d696e76616c69642072756c696e6760901b604482015260640161021a565b600c546040516370a0823160e01b81523060048201526000916001600160a01b0316906370a082319060240160206040518083038186803b1580156110da57600080fd5b505afa1580156110ee573d6000803e3d6000fd5b505050506040513d601f19601f820116820180604052508101906111129190612b1c565b9050600081116111345760405162461bcd60e51b815260040161021a90612d4b565b60006002836006811061115757634e487b7160e01b600052603260045260246000fd5b6040805180820191829052929190910190600290826000855b825461010083900a900460ff16815260206001928301818104948501949093039092029101808411611170579050505050505090506000816000600281106111c857634e487b7160e01b600052603260045260246000fd5b6020020151905060008260016020020151905060006111e78284612dd9565b905060008160ff168360ff16876111fe9190612e1e565b6112089190612dfe565b905060006112168288612e3d565b9050811561123b57600a54600c5461123b916001600160a01b03918216911684611e51565b801561125e57600954600c5461125e916001600160a01b03918216911683611e51565b6010546013556012805460ff19169055600b5460408051838152602081018590529081018a90526001600160a01b03909116907ff08a08afe8a39853d7db7dd0a42f0cdb68a64ee36a554e68c32219f381e5669e9060600160405180910390a2600b546040518981528a916001600160a01b0316907f394027a5fa6e098a1191094d1719d6929b9abc535fcc0c8f448d6a4e756222769060200160405180910390a350506001805550505050505050565b600260015414156113325760405162461bcd60e51b815260040161021a90612d71565b600260015560125460ff161561135a5760405162461bcd60e51b815260040161021a90612d2b565b6009546001600160a01b0316336001600160a01b03161461138d5760405162461bcd60e51b815260040161021a90612d0a565b6013548110156113d25760405162461bcd60e51b815260206004820152601060248201526f1b5a5b195cdd1bdb99481c185cdcd95960821b604482015260640161021a565b60105481106114175760405162461bcd60e51b8152602060048201526011602482015270696e76616c6964206d696c6573746f6e6560781b604482015260640161021a565b600c546040516370a0823160e01b81523060048201526000916001600160a01b0316906370a082319060240160206040518083038186803b15801561145b57600080fd5b505afa15801561146f573d6000803e3d6000fd5b505050506040513d601f19601f820116820180604052508101906114939190612b1c565b6013549091506000905b8381116115d3576010546114b390600190612e3d565b811480156114f6575082601082815481106114de57634e487b7160e01b600052603260045260246000fd5b9060005260206000200154836114f49190612dc1565b105b1561153557600080516020612ec4833981519152816115158486612e3d565b6040805192835260208301919091520160405180910390a18291506115c1565b600080516020612ec4833981519152816010838154811061156657634e487b7160e01b600052603260045260246000fd5b6000918252602091829020015460408051938452918301520160405180910390a1601081815481106115a857634e487b7160e01b600052603260045260246000fd5b9060005260206000200154826115be9190612dc1565b91505b806115cb81612e84565b91505061149d565b508082101561161b5760405162461bcd60e51b8152602060048201526014602482015273696e73756666696369656e742062616c616e636560601b604482015260640161021a565b600a54600c54611638916001600160a01b03918216911683611e51565b806014546116469190612dc1565b601455611654836001612dc1565b60135550506001805550565b600260015414156116835760405162461bcd60e51b815260040161021a90612d71565b6002600155611690611ea3565b60018055565b606060108054806020026020016040519081016040528092919081815260200182805480156116e457602002820191906000526020600020905b8154815260200190600101908083116116d0575b5050505050905090565b601081815481106116fe57600080fd5b600091825260209091200154905081565b600260015414156117325760405162461bcd60e51b815260040161021a90612d71565b6002600155600c546001600160a01b038281169116141561175a57611755611ea3565b611851565b600d5442116117995760405162461bcd60e51b815260206004820152600b60248201526a085d195c9b5a5b985d195960aa1b604482015260640161021a565b6040516370a0823160e01b81523060048201526000906001600160a01b038316906370a082319060240160206040518083038186803b1580156117db57600080fd5b505afa1580156117ef573d6000803e3d6000fd5b505050506040513d601f19601f820116820180604052508101906118139190612b1c565b9050600081116118355760405162461bcd60e51b815260040161021a90612d4b565b60095461184f906001600160a01b03848116911683611e51565b505b5060018055565b611863838383611ff6565b505050565b6118758282601654611ff6565b5050565b6002600154141561189c5760405162461bcd60e51b815260040161021a90612d71565b60026001556116906123a6565b600260015414156118cc5760405162461bcd60e51b815260040161021a90612d71565b6002600155600c546001600160a01b03828116911614156118ef576117556123a6565b6009546001600160a01b0316336001600160a01b0316146119225760405162461bcd60e51b815260040161021a90612d0a565b6040516370a0823160e01b81523060048201526000906001600160a01b038316906370a082319060240160206040518083038186803b15801561196457600080fd5b505afa158015611978573d6000803e3d6000fd5b505050506040513d601f19601f8201168201806040525081019061199c9190612b1c565b600a5490915061184f906001600160a01b03848116911683611e51565b600260015414156119dc5760405162461bcd60e51b815260040161021a90612d71565b60026001556000600a54600160a01b900460ff166001811115611a0f57634e487b7160e01b600052602160045260246000fd5b14611a535760405162461bcd60e51b815260206004820152601460248201527310b4b73234bb34b23ab0b6103932b9b7b63b32b960611b604482015260640161021a565b60125460ff16611a8f5760405162461bcd60e51b8152602060048201526007602482015266085b1bd8dad95960ca1b604482015260640161021a565b600c546040516370a0823160e01b81523060048201526000916001600160a01b0316906370a082319060240160206040518083038186803b158015611ad357600080fd5b505afa158015611ae7573d6000803e3d6000fd5b505050506040513d601f19601f82011682018060405250810190611b0b9190612b1c565b905060008111611b2d5760405162461bcd60e51b815260040161021a90612d4b565b600b546001600160a01b0316336001600160a01b031614611b7c5760405162461bcd60e51b815260206004820152600960248201526810b932b9b7b63b32b960b91b604482015260640161021a565b6000600e5482611b8c9190612dfe565b9050611b988183612e3d565b611ba28587612dc1565b14611bef5760405162461bcd60e51b815260206004820152601760248201527f7265736f6c7574696f6e20213d2072656d61696e646572000000000000000000604482015260640161021a565b8315611c1257600a54600c54611c12916001600160a01b03918216911686611e51565b8415611c3557600954600c54611c35916001600160a01b03918216911687611e51565b8015611c5857600b54600c54611c58916001600160a01b03918216911683611e51565b6010546013556012805460ff19169055604080518681526020810186905280820183905260608101859052905133917f27035e6ed643518ecfca2b08593fd24d4ae4caba6ce5bab683e9b31a12a5b299919081900360800190a2505060018055505050565b6000611cc96001611dcb565b90508015611ce1576000805461ff0019166101001790555b8015611d28576000805461ff0019169055604051600181527f7f26b83ff96e1f2b6a682f133852f6798a09c465da95921460cefb3847402498906020015b60405180910390a15b50565b60028260068110611d3b57600080fd5b018160028110611d4a57600080fd5b602081049091015460ff601f9092166101000a9004169150829050565b6009546001600160a01b03163314611d915760405162461bcd60e51b815260040161021a90612d0a565b60095460405130916001600160a01b0316907f78a953f3f0d92abc078a34e5d4fedf8708e788e1b29300b3d6170e97f88a13fc90600090a3565b60008054610100900460ff1615611e12578160ff166001148015611dee5750303b155b611e0a5760405162461bcd60e51b815260040161021a90612cbc565b506000611e4c565b60005460ff808416911610611e395760405162461bcd60e51b815260040161021a90612cbc565b506000805460ff191660ff831617905560015b919050565b604080516001600160a01b038416602482015260448082018490528251808303909101815260649091019091526020810180516001600160e01b031663a9059cbb60e01b17905261186390849061260b565b60125460ff1615611ec65760405162461bcd60e51b815260040161021a90612d2b565b600d544211611f055760405162461bcd60e51b815260206004820152600b60248201526a085d195c9b5a5b985d195960aa1b604482015260640161021a565b600c546040516370a0823160e01b81523060048201526000916001600160a01b0316906370a082319060240160206040518083038186803b158015611f4957600080fd5b505afa158015611f5d573d6000803e3d6000fd5b505050506040513d601f19601f82011682018060405250810190611f819190612b1c565b905060008111611fa35760405162461bcd60e51b815260040161021a90612d4b565b600954600c54611fc0916001600160a01b03918216911683611e51565b6010546013556040518181527f5b6b431d4476a211bb7d41c20d1aab9ae2321deee0d20be3d9fc9b1093fa6e3d90602001611d1f565b60125460ff16156120195760405162461bcd60e51b815260040161021a90612d2b565b600d5442106120575760405162461bcd60e51b815260206004820152600a6024820152691d195c9b5a5b985d195960b21b604482015260640161021a565b6009546001600160a01b0316336001600160a01b0316148061208c5750600a546001600160a01b0316336001600160a01b0316145b6120c15760405162461bcd60e51b815260206004820152600660248201526521706172747960d01b604482015260640161021a565b8161210e5760405162461bcd60e51b815260206004820152601d60248201527f6e6f206d696c6573746f6e657320617265206265696e67206164646564000000604482015260640161021a565b600a82111561215f5760405162461bcd60e51b815260206004820181905260248201527f6f6e6c79203130206e6577206d696c6573746f6e657320617420612074696d65604482015260640161021a565b601054600090612170908490612dc1565b905060008167ffffffffffffffff81111561219b57634e487b7160e01b600052604160045260246000fd5b6040519080825280602002602001820160405280156121c4578160200160208202803683370190505b5060115490915060005b60105481101561224157601081815481106121f957634e487b7160e01b600052603260045260246000fd5b906000526020600020015483828151811061222457634e487b7160e01b600052603260045260246000fd5b60209081029190910101528061223981612e84565b9150506121ce565b506010545b83811015612302576010548790879061225f9084612e3d565b81811061227c57634e487b7160e01b600052603260045260246000fd5b905060200201358382815181106122a357634e487b7160e01b600052603260045260246000fd5b6020908102919091010152601054879087906122bf9084612e3d565b8181106122dc57634e487b7160e01b600052603260045260246000fd5b90506020020135826122ee9190612dc1565b9150806122fa81612e84565b915050612246565b506011819055815161231b9060109060208501906128ab565b50601654841461236057600f84905560405184815233907f6f6caf08ac16ebd1467ced3e11335ca96f753397f1211110aafea462a3df75929060200160405180910390a25b604051309033907f526d23025be18fff4f70c0855a5d4a85c210a6b4f7d98067aade79c06563667a90612396908a908a90612bc8565b60405180910390a3505050505050565b60125460ff16156123c95760405162461bcd60e51b815260040161021a90612d2b565b6009546001600160a01b0316336001600160a01b0316146123fc5760405162461bcd60e51b815260040161021a90612d0a565b601354600c546040516370a0823160e01b81523060048201526000916001600160a01b0316906370a082319060240160206040518083038186803b15801561244357600080fd5b505afa158015612457573d6000803e3d6000fd5b505050506040513d601f19601f8201168201806040525081019061247b9190612b1c565b601054909150821015612592576000601083815481106124ab57634e487b7160e01b600052603260045260246000fd5b9060005260206000200154905060016010805490506124ca9190612e3d565b831480156124d757508181105b156124df5750805b808210156125265760405162461bcd60e51b8152602060048201526014602482015273696e73756666696369656e742062616c616e636560601b604482015260640161021a565b601354612534906001612dc1565b601355600a54600c54612554916001600160a01b03918216911683611e51565b806014546125629190612dc1565b6014556040805184815260208101839052600080516020612ec4833981519152910160405180910390a150611875565b600081116125b25760405162461bcd60e51b815260040161021a90612d4b565b600a54600c546125cf916001600160a01b03918216911683611e51565b806014546125dd9190612dc1565b6014556040805183815260208101839052600080516020612ec4833981519152910160405180910390a15050565b6000612660826040518060400160405280602081526020017f5361666545524332303a206c6f772d6c6576656c2063616c6c206661696c6564815250856001600160a01b03166126dd9092919063ffffffff16565b805190915015611863578080602001905181019061267e9190612ae8565b6118635760405162461bcd60e51b815260206004820152602a60248201527f5361666545524332303a204552433230206f7065726174696f6e20646964206e6044820152691bdd081cdd58d8d9595960b21b606482015260840161021a565b60606126ec84846000856126f6565b90505b9392505050565b6060824710156127575760405162461bcd60e51b815260206004820152602660248201527f416464726573733a20696e73756666696369656e742062616c616e636520666f6044820152651c8818d85b1b60d21b606482015260840161021a565b6001600160a01b0385163b6127ae5760405162461bcd60e51b815260206004820152601d60248201527f416464726573733a2063616c6c20746f206e6f6e2d636f6e7472616374000000604482015260640161021a565b600080866001600160a01b031685876040516127ca9190612bac565b60006040518083038185875af1925050503d8060008114612807576040519150601f19603f3d011682016040523d82523d6000602084013e61280c565b606091505b509150915061281c828286612827565b979650505050505050565b606083156128365750816126ef565b8251156128465782518084602001fd5b8160405162461bcd60e51b815260040161021a9190612ca9565b82805482825590600052602060002090810192821561289b579160200282015b8281111561289b578235825591602001919060010190612880565b506128a79291506128e6565b5090565b82805482825590600052602060002090810192821561289b579160200282015b8281111561289b5782518255916020019190600101906128cb565b5b808211156128a757600081556001016128e7565b80356001600160a01b0381168114611e4c57600080fd5b60008083601f840112612923578182fd5b50813567ffffffffffffffff81111561293a578182fd5b6020830191508360208260051b850101111561295557600080fd5b9250929050565b8035611e4c81612eb5565b600060208284031215612978578081fd5b6126ef826128fb565b6000806000806000806000806000806000806101608d8f0312156129a3578788fd5b6129ac8d6128fb565b9b506129ba60208e016128fb565b9a5060408d013560ff811681146129cf578889fd5b99506129dd60608e016128fb565b98506129eb60808e016128fb565b975067ffffffffffffffff60a08e01351115612a05578687fd5b612a158e60a08f01358f01612912565b909750955060c08d0135945060e08d013593506101008d01359250612a3d6101208e016128fb565b9150612a4c6101408e0161295c565b90509295989b509295989b509295989b565b60008060208385031215612a70578182fd5b823567ffffffffffffffff811115612a86578283fd5b612a9285828601612912565b90969095509350505050565b600080600060408486031215612ab2578283fd5b833567ffffffffffffffff811115612ac8578384fd5b612ad486828701612912565b909790965060209590950135949350505050565b600060208284031215612af9578081fd5b81516126ef81612eb5565b600060208284031215612b15578081fd5b5035919050565b600060208284031215612b2d578081fd5b5051919050565b60008060408385031215612b46578182fd5b50508035926020909101359150565b600080600060608486031215612b69578283fd5b505081359360208301359350604090920135919050565b60008151808452612b98816020860160208601612e54565b601f01601f19169290920160200192915050565b60008251612bbe818460208701612e54565b9190910192915050565b6020808252810182905260006001600160fb1b03831115612be7578081fd5b8260051b808560408501379190910160400190815292915050565b6020808252825182820181905260009190848201906040850190845b81811015612c3a57835183529284019291840191600101612c1e565b50909695505050505050565b6020808252825482820181905260008481528281209092916040850190845b81811015612c3a57835483526001938401939285019201612c65565b6020810160028310612ca357634e487b7160e01b600052602160045260246000fd5b91905290565b6000602082526126ef6020830184612b80565b6020808252602e908201527f496e697469616c697a61626c653a20636f6e747261637420697320616c72656160408201526d191e481a5b9a5d1a585b1a5e995960921b606082015260800190565b6020808252600790820152660858db1a595b9d60ca1b604082015260600190565b6020808252600690820152651b1bd8dad95960d21b604082015260600190565b6020808252600c908201526b062616c616e636520697320360a41b604082015260600190565b6020808252601f908201527f5265656e7472616e637947756172643a207265656e7472616e742063616c6c00604082015260600190565b6000838252604060208301526126ec6040830184612b80565b60008219821115612dd457612dd4612e9f565b500190565b600060ff821660ff84168060ff03821115612df657612df6612e9f565b019392505050565b600082612e1957634e487b7160e01b81526012600452602481fd5b500490565b6000816000190483118215151615612e3857612e38612e9f565b500290565b600082821015612e4f57612e4f612e9f565b500390565b60005b83811015612e6f578181015183820152602001612e57565b83811115612e7e576000848401525b50505050565b6000600019821415612e9857612e98612e9f565b5060010190565b634e487b7160e01b600052601160045260246000fd5b8015158114611d2857600080fdfe99f6215451102cb496830dfd718a41ae7fb7d92607137ea8961d076bea55c5d3a2646970667358221220bbb08cb484d272e9fe037664ac528ba9082135c12ca5a1932d0df65748b8197764736f6c63430008030033",
  "linkReferences": {},
  "deployedLinkReferences": {}
}