{
  "_format": "hh-sol-artifact-1",
  "contractName": "SmartInvoiceInstant01",
  "sourceName": "contracts/SmartInvoiceInstant.sol",
  "abi": [
    {
      "anonymous": false,
      "inputs": [
        {
          "indexed": true,
          "internalType": "address",
          "name": "sender",
          "type": "address"
        },
        {
          "indexed": false,
          "internalType": "uint256",
          "name": "amount",
          "type": "uint256"
        }
      ],
      "name": "Deposit",
      "type": "event"
    },
    {
      "anonymous": false,
      "inputs": [
        {
          "indexed": true,
          "internalType": "address",
          "name": "sender",
          "type": "address"
        }
      ],
      "name": "Fulfilled",
      "type": "event"
    },
    {
      "anonymous": false,
      "inputs": [
        {
          "indexed": false,
          "internalType": "uint8",
          "name": "version",
          "type": "uint8"
        }
      ],
      "name": "Initialized",
      "type": "event"
    },
    {
      "anonymous": false,
      "inputs": [
        {
          "indexed": true,
          "internalType": "address",
          "name": "sender",
          "type": "address"
        },
        {
          "indexed": false,
          "internalType": "uint256",
          "name": "amount",
          "type": "uint256"
        }
      ],
      "name": "Tip",
      "type": "event"
    },
    {
      "anonymous": false,
      "inputs": [
        {
          "indexed": false,
          "internalType": "uint256",
          "name": "balance",
          "type": "uint256"
        }
      ],
      "name": "Withdraw",
      "type": "event"
    },
    {
      "inputs": [],
      "name": "MAX_DEADLINE",
      "outputs": [
        {
          "internalType": "uint256",
          "name": "",
          "type": "uint256"
        }
      ],
      "stateMutability": "view",
      "type": "function"
    },
    {
      "inputs": [
        {
          "internalType": "uint256",
          "name": "",
          "type": "uint256"
        }
      ],
      "name": "amounts",
      "outputs": [
        {
          "internalType": "uint256",
          "name": "",
          "type": "uint256"
        }
      ],
      "stateMutability": "view",
      "type": "function"
    },
    {
      "inputs": [],
      "name": "client",
      "outputs": [
        {
          "internalType": "address",
          "name": "",
          "type": "address"
        }
      ],
      "stateMutability": "view",
      "type": "function"
    },
    {
      "inputs": [],
      "name": "deadline",
      "outputs": [
        {
          "internalType": "uint256",
          "name": "",
          "type": "uint256"
        }
      ],
      "stateMutability": "view",
      "type": "function"
    },
    {
      "inputs": [
        {
          "internalType": "address",
          "name": "_token",
          "type": "address"
        },
        {
          "internalType": "uint256",
          "name": "_amount",
          "type": "uint256"
        }
      ],
      "name": "depositTokens",
      "outputs": [],
      "stateMutability": "nonpayable",
      "type": "function"
    },
    {
      "inputs": [],
      "name": "details",
      "outputs": [
        {
          "internalType": "bytes32",
          "name": "",
          "type": "bytes32"
        }
      ],
      "stateMutability": "view",
      "type": "function"
    },
    {
      "inputs": [],
      "name": "fulfillTime",
      "outputs": [
        {
          "internalType": "uint256",
          "name": "",
          "type": "uint256"
        }
      ],
      "stateMutability": "view",
      "type": "function"
    },
    {
      "inputs": [],
      "name": "fulfilled",
      "outputs": [
        {
          "internalType": "bool",
          "name": "",
          "type": "bool"
        }
      ],
      "stateMutability": "view",
      "type": "function"
    },
    {
      "inputs": [],
      "name": "getTotalDue",
      "outputs": [
        {
          "internalType": "uint256",
          "name": "",
          "type": "uint256"
        }
      ],
      "stateMutability": "view",
      "type": "function"
    },
    {
      "inputs": [
        {
          "internalType": "address",
          "name": "_recipient",
          "type": "address"
        },
        {
          "internalType": "uint256[]",
          "name": "_amounts",
          "type": "uint256[]"
        },
        {
          "internalType": "bytes",
          "name": "_data",
          "type": "bytes"
        }
      ],
      "name": "init",
      "outputs": [],
      "stateMutability": "nonpayable",
      "type": "function"
    },
    {
      "inputs": [],
      "name": "initLock",
      "outputs": [],
      "stateMutability": "nonpayable",
      "type": "function"
    },
    {
      "inputs": [],
      "name": "lateFee",
      "outputs": [
        {
          "internalType": "uint256",
          "name": "",
          "type": "uint256"
        }
      ],
      "stateMutability": "view",
      "type": "function"
    },
    {
      "inputs": [],
      "name": "lateFeeTimeInterval",
      "outputs": [
        {
          "internalType": "uint256",
          "name": "",
          "type": "uint256"
        }
      ],
      "stateMutability": "view",
      "type": "function"
    },
    {
      "inputs": [],
      "name": "provider",
      "outputs": [
        {
          "internalType": "address",
          "name": "",
          "type": "address"
        }
      ],
      "stateMutability": "view",
      "type": "function"
    },
    {
      "inputs": [
        {
          "internalType": "address",
          "name": "_token",
          "type": "address"
        },
        {
          "internalType": "uint256",
          "name": "_amount",
          "type": "uint256"
        }
      ],
      "name": "tip",
      "outputs": [],
      "stateMutability": "nonpayable",
      "type": "function"
    },
    {
      "inputs": [],
      "name": "token",
      "outputs": [
        {
          "internalType": "address",
          "name": "",
          "type": "address"
        }
      ],
      "stateMutability": "view",
      "type": "function"
    },
    {
      "inputs": [],
      "name": "total",
      "outputs": [
        {
          "internalType": "uint256",
          "name": "",
          "type": "uint256"
        }
      ],
      "stateMutability": "view",
      "type": "function"
    },
    {
      "inputs": [],
      "name": "totalFulfilled",
      "outputs": [
        {
          "internalType": "uint256",
          "name": "",
          "type": "uint256"
        }
      ],
      "stateMutability": "view",
      "type": "function"
    },
    {
      "inputs": [],
      "name": "withdraw",
      "outputs": [],
      "stateMutability": "nonpayable",
      "type": "function"
    },
    {
      "inputs": [
        {
          "internalType": "address",
          "name": "_token",
          "type": "address"
        }
      ],
      "name": "withdrawTokens",
      "outputs": [],
      "stateMutability": "nonpayable",
      "type": "function"
    },
    {
      "inputs": [],
      "name": "wrappedNativeToken",
      "outputs": [
        {
          "internalType": "address",
          "name": "",
          "type": "address"
        }
      ],
      "stateMutability": "view",
      "type": "function"
    },
    {
      "stateMutability": "payable",
      "type": "receive"
    }
  ],
  "bytecode": "0x608060405260006009556000600a556000600c556000600d556000600e5534801561002957600080fd5b506001805561156f8061003d6000396000f3fe60806040526004361061012e5760003560e01c80633f4de62f116100ab5780636f0e530f1161006f5780636f0e530f146103c05780637a548ace146103d85780638b6fc452146103ee578063e2d46f981461040e578063e38f486114610438578063fc0c546a1461044d57610202565b80633f4de62f1461033457806345f0a44f1461034a57806349df728c1461036a578063565974d31461038a57806366168bd7146103a057610202565b80631fccd9df116100f25780631fccd9df146102c857806329dcb0cf146102dd5780632ddbd13a146102f35780633c289091146103095780633ccfd60b1461031f57610202565b80630721711d14610207578063085d48831461022757806308f14aed14610264578063109e94cf1461028857806317fcb39b146102a857610202565b36610202576002546005546001600160a01b0390811691161461018e5760405162461bcd60e51b815260206004820152601360248201527210bbb930b83832b22730ba34bb32aa37b5b2b760691b60448201526064015b60405180910390fd5b600260009054906101000a90046001600160a01b03166001600160a01b031663d0e30db0346040518263ffffffff1660e01b81526004016000604051808303818588803b1580156101de57600080fd5b505af11580156101f2573d6000803e3d6000fd5b50505050506102003461046d565b005b600080fd5b34801561021357600080fd5b5061020061022236600461125c565b610574565b34801561023357600080fd5b50600454610247906001600160a01b031681565b6040516001600160a01b0390911681526020015b60405180910390f35b34801561027057600080fd5b5061027a600e5481565b60405190815260200161025b565b34801561029457600080fd5b50600354610247906001600160a01b031681565b3480156102b457600080fd5b50600254610247906001600160a01b031681565b3480156102d457600080fd5b5061027a6106aa565b3480156102e957600080fd5b5061027a60075481565b3480156102ff57600080fd5b5061027a60095481565b34801561031557600080fd5b5061027a600c5481565b34801561032b57600080fd5b5061020061076a565b34801561034057600080fd5b5061027a600d5481565b34801561035657600080fd5b5061027a610365366004611355565b6107a0565b34801561037657600080fd5b506102006103853660046111d0565b6107c1565b34801561039657600080fd5b5061027a60065481565b3480156103ac57600080fd5b506102006103bb36600461130a565b6108ea565b3480156103cc57600080fd5b5061027a6303c30ab081565b3480156103e457600080fd5b5061027a600a5481565b3480156103fa57600080fd5b5061020061040936600461130a565b610976565b34801561041a57600080fd5b50600b546104289060ff1681565b604051901515815260200161025b565b34801561044457600080fd5b50610200610a8d565b34801561045957600080fd5b50600554610247906001600160a01b031681565b60006104776106aa565b905081600a600082825461048b9190611459565b9091555050600a54811161053b57600b805460ff1916600117905542600c556104b13390565b6001600160a01b03167fbb026e4b53af5bd87e552e30bbd22b8d50b2d5e5ee91467a987c069fc9390cf260405160405180910390a280600a54111561053b57336001600160a01b03167f1af16f7c72ca21f49bc9d9aa30cca41db8727f5d70816fe8914d9ac828a1026682600a5461052991906114b0565b60405190815260200160405180910390a25b60405182815233907fe1fffcc4923d04b559f4d29a8bfc6cda04eb5b0d3c460751c2402c5c5cc9109c9060200160405180910390a25050565b60006105806001610afb565b90508015610598576000805461ff0019166101001790555b6001600160a01b0386166105e15760405162461bcd60e51b815260206004820152601060248201526f34b73b30b634b210383937bb34b232b960811b6044820152606401610185565b6105eb8383610b81565b600480546001600160a01b0319166001600160a01b0388161790556000805b858110156106585786868281811061063257634e487b7160e01b600052603260045260246000fd5b90506020020135826106449190611459565b915080610650816114f3565b91505061060a565b5060095580156106a2576000805461ff0019169055604051600181527f7f26b83ff96e1f2b6a682f133852f6798a09c465da95921460cefb38474024989060200160405180910390a15b505050505050565b6007546000908190421180156106c257506000600754115b1561075657600b5460009060ff1680156106de57506000600c54115b1561070657600754600c541061070157600754600c546106fe91906114b0565b90505b610716565b60075461071390426114b0565b90505b600e5481101580156107295750600e5415155b1561074f57600e5461073b9082611471565b600d546107489190611491565b9150610754565b600091505b505b806009546107649190611459565b91505090565b6002600154141561078d5760405162461bcd60e51b815260040161018590611422565b600260015561079a610d84565b60018055565b600881815481106107b057600080fd5b600091825260209091200154905081565b600260015414156107e45760405162461bcd60e51b815260040161018590611422565b60026001556005546001600160a01b038281169116141561080c57610807610d84565b6108e3565b6040516370a0823160e01b81523060048201526000906001600160a01b038316906370a082319060240160206040518083038186803b15801561084e57600080fd5b505afa158015610862573d6000803e3d6000fd5b505050506040513d601f19601f82011682018060405250810190610886919061136d565b9050600081116108c75760405162461bcd60e51b815260206004820152600c60248201526b062616c616e636520697320360a41b6044820152606401610185565b6004546108e1906001600160a01b03848116911683610e8e565b505b5060018055565b6002600154141561090d5760405162461bcd60e51b815260040161018590611422565b60026001556005546001600160a01b038381169116146109585760405162461bcd60e51b815260206004820152600660248201526510ba37b5b2b760d11b6044820152606401610185565b61096d6001600160a01b038316333084610ef6565b6108e18161046d565b600260015414156109995760405162461bcd60e51b815260040161018590611422565b6002600155600b5460ff166109dd5760405162461bcd60e51b815260206004820152600a60248201526908599d5b199a5b1b195960b21b6044820152606401610185565b6005546001600160a01b03838116911614610a235760405162461bcd60e51b815260206004820152600660248201526510ba37b5b2b760d11b6044820152606401610185565b80600a6000828254610a359190611459565b90915550610a5090506001600160a01b038316333084610ef6565b60405181815233907f1af16f7c72ca21f49bc9d9aa30cca41db8727f5d70816fe8914d9ac828a102669060200160405180910390a2505060018055565b6000610a996001610afb565b90508015610ab1576000805461ff0019166101001790555b8015610af8576000805461ff0019169055604051600181527f7f26b83ff96e1f2b6a682f133852f6798a09c465da95921460cefb3847402498906020015b60405180910390a15b50565b60008054610100900460ff1615610b42578160ff166001148015610b1e5750303b155b610b3a5760405162461bcd60e51b8152600401610185906113d4565b506000610b7c565b60005460ff808416911610610b695760405162461bcd60e51b8152600401610185906113d4565b506000805460ff191660ff831617905560015b919050565b6000808080808080610b95888a018a6111ec565b965096509650965096509650965060006001600160a01b0316876001600160a01b03161415610bf75760405162461bcd60e51b815260206004820152600e60248201526d1a5b9d985b1a590818db1a595b9d60921b6044820152606401610185565b6001600160a01b038616610c3d5760405162461bcd60e51b815260206004820152600d60248201526c34b73b30b634b2103a37b5b2b760991b6044820152606401610185565b42851180610c49575084155b610c865760405162461bcd60e51b815260206004820152600e60248201526d191d5c985d1a5bdb88195b99195960921b6044820152606401610185565b610c946303c30ab042611459565b851115610cd75760405162461bcd60e51b81526020600482015260116024820152706475726174696f6e20746f6f206c6f6e6760781b6044820152606401610185565b6001600160a01b038316610d2d5760405162461bcd60e51b815260206004820152601a60248201527f696e76616c696420777261707065644e6174697665546f6b656e0000000000006044820152606401610185565b600380546001600160a01b039889166001600160a01b03199182161790915560058054978916978216979097179096556007949094556006929092556002805491909516931692909217909255600d55600e555050565b6005546040516370a0823160e01b81523060048201526000916001600160a01b0316906370a082319060240160206040518083038186803b158015610dc857600080fd5b505afa158015610ddc573d6000803e3d6000fd5b505050506040513d601f19601f82011682018060405250810190610e00919061136d565b905060008111610e415760405162461bcd60e51b815260206004820152600c60248201526b062616c616e636520697320360a41b6044820152606401610185565b600454600554610e5e916001600160a01b03918216911683610e8e565b6040518181527f5b6b431d4476a211bb7d41c20d1aab9ae2321deee0d20be3d9fc9b1093fa6e3d90602001610aef565b6040516001600160a01b038316602482015260448101829052610ef190849063a9059cbb60e01b906064015b60408051601f198184030181529190526020810180516001600160e01b03166001600160e01b031990931692909217909152610f34565b505050565b6040516001600160a01b0380851660248301528316604482015260648101829052610f2e9085906323b872dd60e01b90608401610eba565b50505050565b6000610f89826040518060400160405280602081526020017f5361666545524332303a206c6f772d6c6576656c2063616c6c206661696c6564815250856001600160a01b03166110069092919063ffffffff16565b805190915015610ef15780806020019051810190610fa79190611335565b610ef15760405162461bcd60e51b815260206004820152602a60248201527f5361666545524332303a204552433230206f7065726174696f6e20646964206e6044820152691bdd081cdd58d8d9595960b21b6064820152608401610185565b6060611015848460008561101f565b90505b9392505050565b6060824710156110805760405162461bcd60e51b815260206004820152602660248201527f416464726573733a20696e73756666696369656e742062616c616e636520666f6044820152651c8818d85b1b60d21b6064820152608401610185565b6001600160a01b0385163b6110d75760405162461bcd60e51b815260206004820152601d60248201527f416464726573733a2063616c6c20746f206e6f6e2d636f6e74726163740000006044820152606401610185565b600080866001600160a01b031685876040516110f39190611385565b60006040518083038185875af1925050503d8060008114611130576040519150601f19603f3d011682016040523d82523d6000602084013e611135565b606091505b5091509150611145828286611150565b979650505050505050565b6060831561115f575081611018565b82511561116f5782518084602001fd5b8160405162461bcd60e51b815260040161018591906113a1565b60008083601f84011261119a578182fd5b50813567ffffffffffffffff8111156111b1578182fd5b6020830191508360208285010111156111c957600080fd5b9250929050565b6000602082840312156111e1578081fd5b813561101881611524565b600080600080600080600060e0888a031215611206578283fd5b873561121181611524565b9650602088013561122181611524565b95506040880135945060608801359350608088013561123f81611524565b9699959850939692959460a0840135945060c09093013592915050565b600080600080600060608688031215611273578081fd5b853561127e81611524565b9450602086013567ffffffffffffffff8082111561129a578283fd5b818801915088601f8301126112ad578283fd5b8135818111156112bb578384fd5b8960208260051b85010111156112cf578384fd5b6020830196508095505060408801359150808211156112ec578283fd5b506112f988828901611189565b969995985093965092949392505050565b6000806040838503121561131c578182fd5b823561132781611524565b946020939093013593505050565b600060208284031215611346578081fd5b81518015158114611018578182fd5b600060208284031215611366578081fd5b5035919050565b60006020828403121561137e578081fd5b5051919050565b600082516113978184602087016114c7565b9190910192915050565b60006020825282518060208401526113c08160408501602087016114c7565b601f01601f19169190910160400192915050565b6020808252602e908201527f496e697469616c697a61626c653a20636f6e747261637420697320616c72656160408201526d191e481a5b9a5d1a585b1a5e995960921b606082015260800190565b6020808252601f908201527f5265656e7472616e637947756172643a207265656e7472616e742063616c6c00604082015260600190565b6000821982111561146c5761146c61150e565b500190565b60008261148c57634e487b7160e01b81526012600452602481fd5b500490565b60008160001904831182151516156114ab576114ab61150e565b500290565b6000828210156114c2576114c261150e565b500390565b60005b838110156114e25781810151838201526020016114ca565b83811115610f2e5750506000910152565b60006000198214156115075761150761150e565b5060010190565b634e487b7160e01b600052601160045260246000fd5b6001600160a01b0381168114610af857600080fdfea264697066735822122020e3d00aa3524a3eecaf8a7ec13d05b03d6e24de5ddc675ccec9e65cd8709c8564736f6c63430008030033",
  "linkReferences": {},
  "deployedLinkReferences": {}
}