{
  "_format": "hh-sol-artifact-1",
  "contractName": "SmartInvoiceInstant01",
  "sourceName": "contracts/SmartInvoiceInstant.sol",
  "abi": [
    {
      "anonymous": false,
      "inputs": [
        {
          "indexed": true,
          "internalType": "address",
          "name": "sender",
          "type": "address"
        },
        {
          "indexed": false,
          "internalType": "uint256",
          "name": "amount",
          "type": "uint256"
        }
      ],
      "name": "Deposit",
      "type": "event"
    },
    {
      "anonymous": false,
      "inputs": [
        {
          "indexed": false,
          "internalType": "uint8",
          "name": "version",
          "type": "uint8"
        }
      ],
      "name": "Initialized",
      "type": "event"
    },
    {
      "anonymous": false,
      "inputs": [
        {
          "indexed": true,
          "internalType": "address",
          "name": "recipient",
          "type": "address"
        },
        {
          "indexed": false,
          "internalType": "uint256",
          "name": "amount",
          "type": "uint256"
        }
      ],
      "name": "Withdraw",
      "type": "event"
    },
    {
      "inputs": [],
      "name": "MAX_DEADLINE",
      "outputs": [
        {
          "internalType": "uint256",
          "name": "",
          "type": "uint256"
        }
      ],
      "stateMutability": "view",
      "type": "function"
    },
    {
      "inputs": [
        {
          "internalType": "uint256",
          "name": "",
          "type": "uint256"
        }
      ],
      "name": "amounts",
      "outputs": [
        {
          "internalType": "uint256",
          "name": "",
          "type": "uint256"
        }
      ],
      "stateMutability": "view",
      "type": "function"
    },
    {
      "inputs": [],
      "name": "client",
      "outputs": [
        {
          "internalType": "address",
          "name": "",
          "type": "address"
        }
      ],
      "stateMutability": "view",
      "type": "function"
    },
    {
      "inputs": [],
      "name": "deadline",
      "outputs": [
        {
          "internalType": "uint256",
          "name": "",
          "type": "uint256"
        }
      ],
      "stateMutability": "view",
      "type": "function"
    },
    {
      "inputs": [],
      "name": "details",
      "outputs": [
        {
          "internalType": "bytes32",
          "name": "",
          "type": "bytes32"
        }
      ],
      "stateMutability": "view",
      "type": "function"
    },
    {
      "inputs": [],
      "name": "fulfilled",
      "outputs": [
        {
          "internalType": "bool",
          "name": "",
          "type": "bool"
        }
      ],
      "stateMutability": "view",
      "type": "function"
    },
    {
      "inputs": [],
      "name": "getTotalDue",
      "outputs": [
        {
          "internalType": "uint256",
          "name": "",
          "type": "uint256"
        }
      ],
      "stateMutability": "view",
      "type": "function"
    },
    {
      "inputs": [
        {
          "internalType": "address",
          "name": "_recipient",
          "type": "address"
        },
        {
          "internalType": "uint256[]",
          "name": "_amounts",
          "type": "uint256[]"
        },
        {
          "internalType": "bytes",
          "name": "_data",
          "type": "bytes"
        }
      ],
      "name": "init",
      "outputs": [],
      "stateMutability": "nonpayable",
      "type": "function"
    },
    {
      "inputs": [],
      "name": "initLock",
      "outputs": [],
      "stateMutability": "nonpayable",
      "type": "function"
    },
    {
      "inputs": [],
      "name": "provider",
      "outputs": [
        {
          "internalType": "address",
          "name": "",
          "type": "address"
        }
      ],
      "stateMutability": "view",
      "type": "function"
    },
    {
      "inputs": [],
      "name": "token",
      "outputs": [
        {
          "internalType": "address",
          "name": "",
          "type": "address"
        }
      ],
      "stateMutability": "view",
      "type": "function"
    },
    {
      "inputs": [],
      "name": "total",
      "outputs": [
        {
          "internalType": "uint256",
          "name": "",
          "type": "uint256"
        }
      ],
      "stateMutability": "view",
      "type": "function"
    },
    {
      "inputs": [],
      "name": "totalFulfilled",
      "outputs": [
        {
          "internalType": "uint256",
          "name": "",
          "type": "uint256"
        }
      ],
      "stateMutability": "view",
      "type": "function"
    },
    {
      "inputs": [],
      "name": "withdraw",
      "outputs": [],
      "stateMutability": "nonpayable",
      "type": "function"
    },
    {
      "inputs": [
        {
          "internalType": "address",
          "name": "_token",
          "type": "address"
        }
      ],
      "name": "withdrawTokens",
      "outputs": [],
      "stateMutability": "nonpayable",
      "type": "function"
    },
    {
      "inputs": [],
      "name": "wrappedNativeToken",
      "outputs": [
        {
          "internalType": "address",
          "name": "",
          "type": "address"
        }
      ],
      "stateMutability": "view",
      "type": "function"
    },
    {
      "stateMutability": "payable",
      "type": "receive"
    }
  ],
  "bytecode": "0x608060405260006009556000600a5534801561001a57600080fd5b50600180556111008061002e6000396000f3fe6080604052600436106100f75760003560e01c806345f0a44f1161008a5780637a548ace116100595780637a548ace1461037d578063e2d46f9814610393578063e38f4861146103bd578063fc0c546a146103d25761020b565b806345f0a44f1461030f57806349df728c1461032f578063565974d31461034f5780636f0e530f146103655761020b565b80631fccd9df116100c65780631fccd9df146102af57806329dcb0cf146102ce5780632ddbd13a146102e45780633ccfd60b146102fa5761020b565b80630721711d14610210578063085d488314610232578063109e94cf1461026f57806317fcb39b1461028f5761020b565b3661020b576002546005546001600160a01b039081169116146101575760405162461bcd60e51b815260206004820152601360248201527210bbb930b83832b22730ba34bb32aa37b5b2b760691b60448201526064015b60405180910390fd5b600260009054906101000a90046001600160a01b03166001600160a01b031663d0e30db0346040518263ffffffff1660e01b81526004016000604051808303818588803b1580156101a757600080fd5b505af11580156101bb573d6000803e3d6000fd5b50505050506101c73390565b6001600160a01b03167fe1fffcc4923d04b559f4d29a8bfc6cda04eb5b0d3c460751c2402c5c5cc9109c3460405161020191815260200190565b60405180910390a2005b600080fd5b34801561021c57600080fd5b5061023061022b366004610ea1565b6103f2565b005b34801561023e57600080fd5b50600454610252906001600160a01b031681565b6040516001600160a01b0390911681526020015b60405180910390f35b34801561027b57600080fd5b50600354610252906001600160a01b031681565b34801561029b57600080fd5b50600254610252906001600160a01b031681565b3480156102bb57600080fd5b506009545b604051908152602001610266565b3480156102da57600080fd5b506102c060075481565b3480156102f057600080fd5b506102c060095481565b34801561030657600080fd5b50610230610528565b34801561031b57600080fd5b506102c061032a366004610f6f565b61058e565b34801561033b57600080fd5b5061023061034a366004610e27565b6105af565b34801561035b57600080fd5b506102c060065481565b34801561037157600080fd5b506102c06303c30ab081565b34801561038957600080fd5b506102c0600a5481565b34801561039f57600080fd5b50600b546103ad9060ff1681565b6040519015158152602001610266565b3480156103c957600080fd5b50610230610708565b3480156103de57600080fd5b50600554610252906001600160a01b031681565b60006103fe6001610775565b90508015610416576000805461ff0019166101001790555b6001600160a01b03861661045f5760405162461bcd60e51b815260206004820152601060248201526f34b73b30b634b210383937bb34b232b960811b604482015260640161014e565b61046983836107fb565b600480546001600160a01b0319166001600160a01b0388161790556000805b858110156104d6578686828181106104b057634e487b7160e01b600052603260045260246000fd5b90506020020135826104c2919061103c565b9150806104ce81611084565b915050610488565b506009558015610520576000805461ff0019169055604051600181527f7f26b83ff96e1f2b6a682f133852f6798a09c465da95921460cefb38474024989060200160405180910390a15b505050505050565b6002600154141561057b5760405162461bcd60e51b815260206004820152601f60248201527f5265656e7472616e637947756172643a207265656e7472616e742063616c6c00604482015260640161014e565b60026001556105886109e0565b60018055565b6008818154811061059e57600080fd5b600091825260209091200154905081565b600260015414156106025760405162461bcd60e51b815260206004820152601f60248201527f5265656e7472616e637947756172643a207265656e7472616e742063616c6c00604482015260640161014e565b60026001556005546001600160a01b038281169116141561062a576106256109e0565b610701565b6040516370a0823160e01b81523060048201526000906001600160a01b038316906370a082319060240160206040518083038186803b15801561066c57600080fd5b505afa158015610680573d6000803e3d6000fd5b505050506040513d601f19601f820116820180604052508101906106a49190610f87565b9050600081116106e55760405162461bcd60e51b815260206004820152600c60248201526b062616c616e636520697320360a41b604482015260640161014e565b6004546106ff906001600160a01b03848116911683610b34565b505b5060018055565b60006107146001610775565b9050801561072c576000805461ff0019166101001790555b8015610772576000805461ff0019169055604051600181527f7f26b83ff96e1f2b6a682f133852f6798a09c465da95921460cefb38474024989060200160405180910390a15b50565b60008054610100900460ff16156107bc578160ff1660011480156107985750303b155b6107b45760405162461bcd60e51b815260040161014e90610fee565b5060006107f6565b60005460ff8084169116106107e35760405162461bcd60e51b815260040161014e90610fee565b506000805460ff191660ff831617905560015b919050565b60008080808061080d86880188610e43565b9398509196509450925090506001600160a01b0385166108605760405162461bcd60e51b815260206004820152600e60248201526d1a5b9d985b1a590818db1a595b9d60921b604482015260640161014e565b6001600160a01b0384166108a65760405162461bcd60e51b815260206004820152600d60248201526c34b73b30b634b2103a37b5b2b760991b604482015260640161014e565b428311806108b2575082155b6108ef5760405162461bcd60e51b815260206004820152600e60248201526d191d5c985d1a5bdb88195b99195960921b604482015260640161014e565b6108fd6303c30ab04261103c565b8311156109405760405162461bcd60e51b81526020600482015260116024820152706475726174696f6e20746f6f206c6f6e6760781b604482015260640161014e565b6001600160a01b0381166109965760405162461bcd60e51b815260206004820152601a60248201527f696e76616c696420777261707065644e6174697665546f6b656e000000000000604482015260640161014e565b600380546001600160a01b039687166001600160a01b0319918216179091556005805495871695821695909517909455600792909255600655600280549190931691161790555050565b6005546040516370a0823160e01b81523060048201526000916001600160a01b0316906370a082319060240160206040518083038186803b158015610a2457600080fd5b505afa158015610a38573d6000803e3d6000fd5b505050506040513d601f19601f82011682018060405250810190610a5c9190610f87565b905060008111610a9d5760405162461bcd60e51b815260206004820152600c60248201526b062616c616e636520697320360a41b604482015260640161014e565b6000610aa860095490565b905081600a54610ab8919061103c565b600a8190558111610ad157600b805460ff191660011790555b600454600554610aee916001600160a01b03918216911684610b34565b6004546040518381526001600160a01b03909116907f884edad9ce6fa2440d8a54cc123490eb96d2768479d49ff9c7366125a94243649060200160405180910390a25050565b604080516001600160a01b038416602482015260448082018490528251808303909101815260649091019091526020810180516001600160e01b031663a9059cbb60e01b179052610b86908490610b8b565b505050565b6000610be0826040518060400160405280602081526020017f5361666545524332303a206c6f772d6c6576656c2063616c6c206661696c6564815250856001600160a01b0316610c5d9092919063ffffffff16565b805190915015610b865780806020019051810190610bfe9190610f4f565b610b865760405162461bcd60e51b815260206004820152602a60248201527f5361666545524332303a204552433230206f7065726174696f6e20646964206e6044820152691bdd081cdd58d8d9595960b21b606482015260840161014e565b6060610c6c8484600085610c76565b90505b9392505050565b606082471015610cd75760405162461bcd60e51b815260206004820152602660248201527f416464726573733a20696e73756666696369656e742062616c616e636520666f6044820152651c8818d85b1b60d21b606482015260840161014e565b6001600160a01b0385163b610d2e5760405162461bcd60e51b815260206004820152601d60248201527f416464726573733a2063616c6c20746f206e6f6e2d636f6e7472616374000000604482015260640161014e565b600080866001600160a01b03168587604051610d4a9190610f9f565b60006040518083038185875af1925050503d8060008114610d87576040519150601f19603f3d011682016040523d82523d6000602084013e610d8c565b606091505b5091509150610d9c828286610da7565b979650505050505050565b60608315610db6575081610c6f565b825115610dc65782518084602001fd5b8160405162461bcd60e51b815260040161014e9190610fbb565b60008083601f840112610df1578182fd5b50813567ffffffffffffffff811115610e08578182fd5b602083019150836020828501011115610e2057600080fd5b9250929050565b600060208284031215610e38578081fd5b8135610c6f816110b5565b600080600080600060a08688031215610e5a578081fd5b8535610e65816110b5565b94506020860135610e75816110b5565b935060408601359250606086013591506080860135610e93816110b5565b809150509295509295909350565b600080600080600060608688031215610eb8578081fd5b8535610ec3816110b5565b9450602086013567ffffffffffffffff80821115610edf578283fd5b818801915088601f830112610ef2578283fd5b813581811115610f00578384fd5b8960208260051b8501011115610f14578384fd5b602083019650809550506040880135915080821115610f31578283fd5b50610f3e88828901610de0565b969995985093965092949392505050565b600060208284031215610f60578081fd5b81518015158114610c6f578182fd5b600060208284031215610f80578081fd5b5035919050565b600060208284031215610f98578081fd5b5051919050565b60008251610fb1818460208701611054565b9190910192915050565b6000602082528251806020840152610fda816040850160208701611054565b601f01601f19169190910160400192915050565b6020808252602e908201527f496e697469616c697a61626c653a20636f6e747261637420697320616c72656160408201526d191e481a5b9a5d1a585b1a5e995960921b606082015260800190565b6000821982111561104f5761104f61109f565b500190565b60005b8381101561106f578181015183820152602001611057565b8381111561107e576000848401525b50505050565b60006000198214156110985761109861109f565b5060010190565b634e487b7160e01b600052601160045260246000fd5b6001600160a01b038116811461077257600080fdfea26469706673582212207858dba8da2cee1cf57807438f04d95f3bc40ba0c2cc2be4dd1e632d5ca1cd6e64736f6c63430008030033",
  "linkReferences": {},
  "deployedLinkReferences": {}
}