{
  "_format": "hh-sol-artifact-1",
  "contractName": "SmartInvoiceEscrow01",
  "sourceName": "contracts/SmartInvoiceEscrow.sol",
  "abi": [
    {
      "anonymous": false,
      "inputs": [
        {
          "indexed": true,
          "internalType": "address",
          "name": "sender",
          "type": "address"
        },
        {
          "indexed": false,
          "internalType": "uint256",
          "name": "amount",
          "type": "uint256"
        }
      ],
      "name": "Deposit",
      "type": "event"
    },
    {
      "anonymous": false,
      "inputs": [
        {
          "indexed": true,
          "internalType": "address",
          "name": "sender",
          "type": "address"
        },
        {
          "indexed": false,
          "internalType": "bytes32",
          "name": "details",
          "type": "bytes32"
        }
      ],
      "name": "DetailsUpdated",
      "type": "event"
    },
    {
      "anonymous": false,
      "inputs": [
        {
          "indexed": false,
          "internalType": "uint8",
          "name": "version",
          "type": "uint8"
        }
      ],
      "name": "Initialized",
      "type": "event"
    },
    {
      "anonymous": false,
      "inputs": [
        {
          "indexed": true,
          "internalType": "address",
          "name": "sender",
          "type": "address"
        },
        {
          "indexed": false,
          "internalType": "bytes32",
          "name": "details",
          "type": "bytes32"
        }
      ],
      "name": "Lock",
      "type": "event"
    },
    {
      "anonymous": false,
      "inputs": [
        {
          "indexed": true,
          "internalType": "address",
          "name": "sender",
          "type": "address"
        },
        {
          "indexed": true,
          "internalType": "address",
          "name": "invoice",
          "type": "address"
        },
        {
          "indexed": false,
          "internalType": "uint256[]",
          "name": "milestones",
          "type": "uint256[]"
        }
      ],
      "name": "MilestonesAdded",
      "type": "event"
    },
    {
      "anonymous": false,
      "inputs": [
        {
          "indexed": false,
          "internalType": "uint256",
          "name": "milestone",
          "type": "uint256"
        },
        {
          "indexed": false,
          "internalType": "uint256",
          "name": "amount",
          "type": "uint256"
        }
      ],
      "name": "Release",
      "type": "event"
    },
    {
      "anonymous": false,
      "inputs": [
        {
          "indexed": true,
          "internalType": "address",
          "name": "resolver",
          "type": "address"
        },
        {
          "indexed": false,
          "internalType": "uint256",
          "name": "clientAward",
          "type": "uint256"
        },
        {
          "indexed": false,
          "internalType": "uint256",
          "name": "providerAward",
          "type": "uint256"
        },
        {
          "indexed": false,
          "internalType": "uint256",
          "name": "resolutionFee",
          "type": "uint256"
        },
        {
          "indexed": false,
          "internalType": "bytes32",
          "name": "details",
          "type": "bytes32"
        }
      ],
      "name": "Resolve",
      "type": "event"
    },
    {
      "anonymous": false,
      "inputs": [
        {
          "indexed": true,
          "internalType": "address",
          "name": "resolver",
          "type": "address"
        },
        {
          "indexed": false,
          "internalType": "uint256",
          "name": "clientAward",
          "type": "uint256"
        },
        {
          "indexed": false,
          "internalType": "uint256",
          "name": "providerAward",
          "type": "uint256"
        },
        {
          "indexed": false,
          "internalType": "uint256",
          "name": "ruling",
          "type": "uint256"
        }
      ],
      "name": "Rule",
      "type": "event"
    },
    {
      "anonymous": false,
      "inputs": [
        {
          "indexed": true,
          "internalType": "address",
          "name": "_arbitrator",
          "type": "address"
        },
        {
          "indexed": true,
          "internalType": "uint256",
          "name": "_disputeID",
          "type": "uint256"
        },
        {
          "indexed": false,
          "internalType": "uint256",
          "name": "_ruling",
          "type": "uint256"
        }
      ],
      "name": "Ruling",
      "type": "event"
    },
    {
      "anonymous": false,
      "inputs": [
        {
          "indexed": true,
          "internalType": "address",
          "name": "client",
          "type": "address"
        },
        {
          "indexed": true,
          "internalType": "address",
          "name": "invoice",
          "type": "address"
        }
      ],
      "name": "Verified",
      "type": "event"
    },
    {
      "anonymous": false,
      "inputs": [
        {
          "indexed": false,
          "internalType": "uint256",
          "name": "balance",
          "type": "uint256"
        }
      ],
      "name": "Withdraw",
      "type": "event"
    },
    {
      "inputs": [],
      "name": "MAX_TERMINATION_TIME",
      "outputs": [
        {
          "internalType": "uint256",
          "name": "",
          "type": "uint256"
        }
      ],
      "stateMutability": "view",
      "type": "function"
    },
    {
      "inputs": [],
      "name": "NUM_RULING_OPTIONS",
      "outputs": [
        {
          "internalType": "uint256",
          "name": "",
          "type": "uint256"
        }
      ],
      "stateMutability": "view",
      "type": "function"
    },
    {
      "inputs": [
        {
          "internalType": "uint256",
          "name": "",
          "type": "uint256"
        },
        {
          "internalType": "uint256",
          "name": "",
          "type": "uint256"
        }
      ],
      "name": "RULINGS",
      "outputs": [
        {
          "internalType": "uint8",
          "name": "",
          "type": "uint8"
        }
      ],
      "stateMutability": "view",
      "type": "function"
    },
    {
      "inputs": [
        {
          "internalType": "uint256[]",
          "name": "_milestones",
          "type": "uint256[]"
        },
        {
          "internalType": "bytes32",
          "name": "_details",
          "type": "bytes32"
        }
      ],
      "name": "addMilestones",
      "outputs": [],
      "stateMutability": "nonpayable",
      "type": "function"
    },
    {
      "inputs": [
        {
          "internalType": "uint256[]",
          "name": "_milestones",
          "type": "uint256[]"
        }
      ],
      "name": "addMilestones",
      "outputs": [],
      "stateMutability": "nonpayable",
      "type": "function"
    },
    {
      "inputs": [
        {
          "internalType": "uint256",
          "name": "",
          "type": "uint256"
        }
      ],
      "name": "amounts",
      "outputs": [
        {
          "internalType": "uint256",
          "name": "",
          "type": "uint256"
        }
      ],
      "stateMutability": "view",
      "type": "function"
    },
    {
      "inputs": [],
      "name": "client",
      "outputs": [
        {
          "internalType": "address",
          "name": "",
          "type": "address"
        }
      ],
      "stateMutability": "view",
      "type": "function"
    },
    {
      "inputs": [],
      "name": "details",
      "outputs": [
        {
          "internalType": "bytes32",
          "name": "",
          "type": "bytes32"
        }
      ],
      "stateMutability": "view",
      "type": "function"
    },
    {
      "inputs": [],
      "name": "disputeId",
      "outputs": [
        {
          "internalType": "uint256",
          "name": "",
          "type": "uint256"
        }
      ],
      "stateMutability": "view",
      "type": "function"
    },
    {
      "inputs": [],
      "name": "getAmounts",
      "outputs": [
        {
          "internalType": "uint256[]",
          "name": "",
          "type": "uint256[]"
        }
      ],
      "stateMutability": "view",
      "type": "function"
    },
    {
      "inputs": [
        {
          "internalType": "address",
          "name": "_recipient",
          "type": "address"
        },
        {
          "internalType": "uint256[]",
          "name": "_amounts",
          "type": "uint256[]"
        },
        {
          "internalType": "bytes",
          "name": "_data",
          "type": "bytes"
        }
      ],
      "name": "init",
      "outputs": [],
      "stateMutability": "nonpayable",
      "type": "function"
    },
    {
      "inputs": [],
      "name": "initLock",
      "outputs": [],
      "stateMutability": "nonpayable",
      "type": "function"
    },
    {
      "inputs": [
        {
          "internalType": "bytes32",
          "name": "_details",
          "type": "bytes32"
        }
      ],
      "name": "lock",
      "outputs": [],
      "stateMutability": "payable",
      "type": "function"
    },
    {
      "inputs": [],
      "name": "locked",
      "outputs": [
        {
          "internalType": "bool",
          "name": "",
          "type": "bool"
        }
      ],
      "stateMutability": "view",
      "type": "function"
    },
    {
      "inputs": [],
      "name": "milestone",
      "outputs": [
        {
          "internalType": "uint256",
          "name": "",
          "type": "uint256"
        }
      ],
      "stateMutability": "view",
      "type": "function"
    },
    {
      "inputs": [],
      "name": "provider",
      "outputs": [
        {
          "internalType": "address",
          "name": "",
          "type": "address"
        }
      ],
      "stateMutability": "view",
      "type": "function"
    },
    {
      "inputs": [
        {
          "internalType": "uint256",
          "name": "_milestone",
          "type": "uint256"
        }
      ],
      "name": "release",
      "outputs": [],
      "stateMutability": "nonpayable",
      "type": "function"
    },
    {
      "inputs": [],
      "name": "release",
      "outputs": [],
      "stateMutability": "nonpayable",
      "type": "function"
    },
    {
      "inputs": [
        {
          "internalType": "address",
          "name": "_token",
          "type": "address"
        }
      ],
      "name": "releaseTokens",
      "outputs": [],
      "stateMutability": "nonpayable",
      "type": "function"
    },
    {
      "inputs": [],
      "name": "released",
      "outputs": [
        {
          "internalType": "uint256",
          "name": "",
          "type": "uint256"
        }
      ],
      "stateMutability": "view",
      "type": "function"
    },
    {
      "inputs": [],
      "name": "resolutionRate",
      "outputs": [
        {
          "internalType": "uint256",
          "name": "",
          "type": "uint256"
        }
      ],
      "stateMutability": "view",
      "type": "function"
    },
    {
      "inputs": [
        {
          "internalType": "uint256",
          "name": "_clientAward",
          "type": "uint256"
        },
        {
          "internalType": "uint256",
          "name": "_providerAward",
          "type": "uint256"
        },
        {
          "internalType": "bytes32",
          "name": "_details",
          "type": "bytes32"
        }
      ],
      "name": "resolve",
      "outputs": [],
      "stateMutability": "nonpayable",
      "type": "function"
    },
    {
      "inputs": [],
      "name": "resolver",
      "outputs": [
        {
          "internalType": "address",
          "name": "",
          "type": "address"
        }
      ],
      "stateMutability": "view",
      "type": "function"
    },
    {
      "inputs": [],
      "name": "resolverType",
      "outputs": [
        {
          "internalType": "enum SmartInvoiceEscrow.ADR",
          "name": "",
          "type": "uint8"
        }
      ],
      "stateMutability": "view",
      "type": "function"
    },
    {
      "inputs": [
        {
          "internalType": "uint256",
          "name": "_disputeId",
          "type": "uint256"
        },
        {
          "internalType": "uint256",
          "name": "_ruling",
          "type": "uint256"
        }
      ],
      "name": "rule",
      "outputs": [],
      "stateMutability": "nonpayable",
      "type": "function"
    },
    {
      "inputs": [],
      "name": "terminationTime",
      "outputs": [
        {
          "internalType": "uint256",
          "name": "",
          "type": "uint256"
        }
      ],
      "stateMutability": "view",
      "type": "function"
    },
    {
      "inputs": [],
      "name": "token",
      "outputs": [
        {
          "internalType": "address",
          "name": "",
          "type": "address"
        }
      ],
      "stateMutability": "view",
      "type": "function"
    },
    {
      "inputs": [],
      "name": "total",
      "outputs": [
        {
          "internalType": "uint256",
          "name": "",
          "type": "uint256"
        }
      ],
      "stateMutability": "view",
      "type": "function"
    },
    {
      "inputs": [],
      "name": "verify",
      "outputs": [],
      "stateMutability": "nonpayable",
      "type": "function"
    },
    {
      "inputs": [],
      "name": "withdraw",
      "outputs": [],
      "stateMutability": "nonpayable",
      "type": "function"
    },
    {
      "inputs": [
        {
          "internalType": "address",
          "name": "_token",
          "type": "address"
        }
      ],
      "name": "withdrawTokens",
      "outputs": [],
      "stateMutability": "nonpayable",
      "type": "function"
    },
    {
      "inputs": [],
      "name": "wrappedNativeToken",
      "outputs": [
        {
          "internalType": "address",
          "name": "",
          "type": "address"
        }
      ],
      "stateMutability": "view",
      "type": "function"
    },
    {
      "stateMutability": "payable",
      "type": "receive"
    }
  ],
  "bytecode": "0x6001610140818152610160829052608090815261018082815260006101a081905260a09190915260036101c08181526101e085905260c05261020084815261022085905260e05261024084815261026091909152610100526102c06040526102809081526102a0929092526101209190915262000081906002906006620000a9565b506000601155600060135560006014553480156200009e57600080fd5b5060018055620001bc565b8260068101928215620000e8579160200282015b82811115620000e8578251620000d79083906002620000fa565b5091602001919060010190620000bd565b50620000f692915062000190565b5090565b600183019183908215620001825791602002820160005b838211156200015157835183826101000a81548160ff021916908360ff160217905550926020019260010160208160000104928301926001030262000111565b8015620001805782816101000a81549060ff021916905560010160208160000104928301926001030262000151565b505b50620000f6929150620001a6565b80821115620000f6576000815560010162000190565b80821115620000f6576000815560010162000190565b612fda80620001cc6000396000f3fe6080604052600436106101e75760003560e01c806370ff6bd711610102578063ce4254ce11610095578063e86dad2411610064578063e86dad241461066f578063f51cf92714610687578063fc0c546a146106b9578063fc735e99146106d957610322565b8063ce4254ce14610604578063cf3090121461061a578063dbac780614610644578063e38f48611461065a57610322565b806387b0be48116100d157806387b0be4814610598578063946f2e48146105b857806396132521146105ce578063a7d07c82146105e457610322565b806370ff6bd714610515578063786ad4eb14610543578063868af2241461056357806386d1a69f1461058357610322565b8063311a6c561161017a57806345f0a44f1161014957806345f0a44f146104aa57806349df728c146104ca578063565974d3146104ea5780635ce6288c1461050057610322565b8063311a6c561461043357806337bdc99b146104535780633ccfd60b146104735780633d370b4e1461048857610322565b8063109e94cf116101b6578063109e94cf146103b957806317fcb39b146103d95780632ddbd13a146103f95780632e77c8d21461041d57610322565b806301670ba91461032757806304f3bcec1461033c5780630721711d14610379578063085d48831461039957610322565b366103225760125460ff16156102185760405162461bcd60e51b815260040161020f90612dd7565b60405180910390fd5b600854600c546001600160a01b0390811691161461026e5760405162461bcd60e51b815260206004820152601360248201527210bbb930b83832b22730ba34bb32aa37b5b2b760691b604482015260640161020f565b600860009054906101000a90046001600160a01b03166001600160a01b031663d0e30db0346040518263ffffffff1660e01b81526004016000604051808303818588803b1580156102be57600080fd5b505af11580156102d2573d6000803e3d6000fd5b50505050506102de3390565b6001600160a01b03167fe1fffcc4923d04b559f4d29a8bfc6cda04eb5b0d3c460751c2402c5c5cc9109c3460405161031891815260200190565b60405180910390a2005b600080fd5b61033a610335366004612beb565b6106ee565b005b34801561034857600080fd5b50600b5461035c906001600160a01b031681565b6040516001600160a01b0390911681526020015b60405180910390f35b34801561038557600080fd5b5061033a610394366004612a9e565b6109c3565b3480156103a557600080fd5b50600a5461035c906001600160a01b031681565b3480156103c557600080fd5b5060095461035c906001600160a01b031681565b3480156103e557600080fd5b5060085461035c906001600160a01b031681565b34801561040557600080fd5b5061040f60115481565b604051908152602001610370565b34801561042957600080fd5b5061040f60155481565b34801561043f57600080fd5b5061033a61044e366004612c1b565b610b0d565b34801561045f57600080fd5b5061033a61046e366004612beb565b610ea3565b34801561047f57600080fd5b5061033a6111f4565b34801561049457600080fd5b5061049d61122a565b6040516103709190612ce9565b3480156104b657600080fd5b5061040f6104c5366004612beb565b611282565b3480156104d657600080fd5b5061033a6104e53660046129d4565b6112a3565b3480156104f657600080fd5b5061040f600f5481565b34801561050c57600080fd5b5061040f600581565b34801561052157600080fd5b50600a5461053690600160a01b900460ff1681565b6040516103709190612d2d565b34801561054f57600080fd5b5061033a61055e366004612b85565b6113ec565b34801561056f57600080fd5b5061033a61057e366004612b45565b6113fc565b34801561058f57600080fd5b5061033a61140c565b3480156105a457600080fd5b5061033a6105b33660046129d4565b61143c565b3480156105c457600080fd5b5061040f600e5481565b3480156105da57600080fd5b5061040f60145481565b3480156105f057600080fd5b5061033a6105ff366004612c3c565b61154c565b34801561061057600080fd5b5061040f600d5481565b34801561062657600080fd5b506012546106349060ff1681565b6040519015158152602001610370565b34801561065057600080fd5b5061040f60135481565b34801561066657600080fd5b5061033a611850565b34801561067b57600080fd5b5061040f6303c30ab081565b34801561069357600080fd5b506106a76106a2366004612c1b565b6118be565b60405160ff9091168152602001610370565b3480156106c557600080fd5b50600c5461035c906001600160a01b031681565b3480156106e557600080fd5b5061033a6118fa565b600260015414156107115760405162461bcd60e51b815260040161020f90612e1d565b600260015560125460ff16156107395760405162461bcd60e51b815260040161020f90612dd7565b600c546040516370a0823160e01b81523060048201526000916001600160a01b0316906370a082319060240160206040518083038186803b15801561077d57600080fd5b505afa158015610791573d6000803e3d6000fd5b505050506040513d601f19601f820116820180604052508101906107b59190612c03565b9050600081116107d75760405162461bcd60e51b815260040161020f90612df7565b600d5442106108155760405162461bcd60e51b815260206004820152600a6024820152691d195c9b5a5b985d195960b21b604482015260640161020f565b6009546001600160a01b0316336001600160a01b0316148061084a5750600a546001600160a01b0316336001600160a01b0316145b61087f5760405162461bcd60e51b815260206004820152600660248201526521706172747960d01b604482015260640161020f565b6001600a54600160a01b900460ff1660018111156108ad57634e487b7160e01b600052602160045260246000fd5b141561096557600b54600f546040516001600160a01b039092169163c13517e19134916005916108e39160200190815260200190565b6040516020818303038152906040526040518463ffffffff1660e01b815260040161090f929190612e54565b6020604051808303818588803b15801561092857600080fd5b505af115801561093c573d6000803e3d6000fd5b50505050506040513d601f19601f820116820180604052508101906109619190612c03565b6015555b6012805460ff191660011790556109793390565b6001600160a01b03167fe55f8011a92f4874f2b5795bfe755853e25c72d78f99ce599a78e505178ba240836040516109b391815260200190565b60405180910390a2505060018055565b60006109cf600161195e565b905080156109e7576000805461ff0019166101001790555b6001600160a01b038616610a305760405162461bcd60e51b815260206004820152601060248201526f34b73b30b634b210383937bb34b232b960811b604482015260640161020f565b610a3a83836119e4565b600a80546001600160a01b0319166001600160a01b038816179055610a61601086866128d1565b506000805b601054811015610abb5760108181548110610a9157634e487b7160e01b600052603260045260246000fd5b906000526020600020015482610aa79190612e6d565b915080610ab381612f30565b915050610a66565b506011558015610b05576000805461ff0019169055604051600181527f7f26b83ff96e1f2b6a682f133852f6798a09c465da95921460cefb38474024989060200160405180910390a15b505050505050565b60026001541415610b305760405162461bcd60e51b815260040161020f90612e1d565b60026001908155600a54600160a01b900460ff166001811115610b6357634e487b7160e01b600052602160045260246000fd5b14610ba75760405162461bcd60e51b815260206004820152601460248201527310b0b93134ba3930ba37b9103932b9b7b63b32b960611b604482015260640161020f565b60125460ff16610be35760405162461bcd60e51b8152602060048201526007602482015266085b1bd8dad95960ca1b604482015260640161020f565b600b546001600160a01b0316336001600160a01b031614610c325760405162461bcd60e51b815260206004820152600960248201526810b932b9b7b63b32b960b91b604482015260640161020f565b6015548214610c795760405162461bcd60e51b81526020600482015260136024820152721a5b98dbdc9c9958dd08191a5cdc1d5d195259606a1b604482015260640161020f565b6005811115610cbb5760405162461bcd60e51b815260206004820152600e60248201526d696e76616c69642072756c696e6760901b604482015260640161020f565b600c546040516370a0823160e01b81523060048201526000916001600160a01b0316906370a082319060240160206040518083038186803b158015610cff57600080fd5b505afa158015610d13573d6000803e3d6000fd5b505050506040513d601f19601f82011682018060405250810190610d379190612c03565b905060008111610d595760405162461bcd60e51b815260040161020f90612df7565b6000610d6483611e00565b80516020820151919250906000610d7b8284612e85565b905060008160ff168360ff1687610d929190612eca565b610d9c9190612eaa565b90506000610daa8288612ee9565b90508115610dcf57600a54600c54610dcf916001600160a01b03918216911684611ec5565b8015610df257600954600c54610df2916001600160a01b03918216911683611ec5565b6010546013556012805460ff19169055600b5460408051838152602081018590529081018a90526001600160a01b03909116907ff08a08afe8a39853d7db7dd0a42f0cdb68a64ee36a554e68c32219f381e5669e9060600160405180910390a2600b546040518981528a916001600160a01b0316907f394027a5fa6e098a1191094d1719d6929b9abc535fcc0c8f448d6a4e756222769060200160405180910390a350506001805550505050505050565b60026001541415610ec65760405162461bcd60e51b815260040161020f90612e1d565b600260015560125460ff1615610eee5760405162461bcd60e51b815260040161020f90612dd7565b6009546001600160a01b0316336001600160a01b031614610f215760405162461bcd60e51b815260040161020f90612db6565b601354811015610f665760405162461bcd60e51b815260206004820152601060248201526f1b5a5b195cdd1bdb99481c185cdcd95960821b604482015260640161020f565b6010548110610fab5760405162461bcd60e51b8152602060048201526011602482015270696e76616c6964206d696c6573746f6e6560781b604482015260640161020f565b600c546040516370a0823160e01b81523060048201526000916001600160a01b0316906370a082319060240160206040518083038186803b158015610fef57600080fd5b505afa158015611003573d6000803e3d6000fd5b505050506040513d601f19601f820116820180604052508101906110279190612c03565b6013549091506000905b8381116111675760105461104790600190612ee9565b8114801561108a5750826010828154811061107257634e487b7160e01b600052603260045260246000fd5b9060005260206000200154836110889190612e6d565b105b156110c957600080516020612f85833981519152816110a98486612ee9565b6040805192835260208301919091520160405180910390a1829150611155565b600080516020612f8583398151915281601083815481106110fa57634e487b7160e01b600052603260045260246000fd5b6000918252602091829020015460408051938452918301520160405180910390a16010818154811061113c57634e487b7160e01b600052603260045260246000fd5b9060005260206000200154826111529190612e6d565b91505b8061115f81612f30565b915050611031565b50808210156111af5760405162461bcd60e51b8152602060048201526014602482015273696e73756666696369656e742062616c616e636560601b604482015260640161020f565b600a54600c546111cc916001600160a01b03918216911683611ec5565b806014546111da9190612e6d565b6014556111e8836001612e6d565b60135550506001805550565b600260015414156112175760405162461bcd60e51b815260040161020f90612e1d565b6002600155611224611f17565b60018055565b6060601080548060200260200160405190810160405280929190818152602001828054801561127857602002820191906000526020600020905b815481526020019060010190808311611264575b5050505050905090565b6010818154811061129257600080fd5b600091825260209091200154905081565b600260015414156112c65760405162461bcd60e51b815260040161020f90612e1d565b6002600155600c546001600160a01b03828116911614156112ee576112e9611f17565b6113e5565b600d54421161132d5760405162461bcd60e51b815260206004820152600b60248201526a085d195c9b5a5b985d195960aa1b604482015260640161020f565b6040516370a0823160e01b81523060048201526000906001600160a01b038316906370a082319060240160206040518083038186803b15801561136f57600080fd5b505afa158015611383573d6000803e3d6000fd5b505050506040513d601f19601f820116820180604052508101906113a79190612c03565b9050600081116113c95760405162461bcd60e51b815260040161020f90612df7565b6009546113e3906001600160a01b03848116911683611ec5565b505b5060018055565b6113f783838361206a565b505050565b6114088282600061206a565b5050565b6002600154141561142f5760405162461bcd60e51b815260040161020f90612e1d565b6002600155611224612417565b6002600154141561145f5760405162461bcd60e51b815260040161020f90612e1d565b6002600155600c546001600160a01b0382811691161415611482576112e9612417565b6009546001600160a01b0316336001600160a01b0316146114b55760405162461bcd60e51b815260040161020f90612db6565b6040516370a0823160e01b81523060048201526000906001600160a01b038316906370a082319060240160206040518083038186803b1580156114f757600080fd5b505afa15801561150b573d6000803e3d6000fd5b505050506040513d601f19601f8201168201806040525081019061152f9190612c03565b600a549091506113e3906001600160a01b03848116911683611ec5565b6002600154141561156f5760405162461bcd60e51b815260040161020f90612e1d565b60026001556000600a54600160a01b900460ff1660018111156115a257634e487b7160e01b600052602160045260246000fd5b146115e65760405162461bcd60e51b815260206004820152601460248201527310b4b73234bb34b23ab0b6103932b9b7b63b32b960611b604482015260640161020f565b60125460ff166116225760405162461bcd60e51b8152602060048201526007602482015266085b1bd8dad95960ca1b604482015260640161020f565b600c546040516370a0823160e01b81523060048201526000916001600160a01b0316906370a082319060240160206040518083038186803b15801561166657600080fd5b505afa15801561167a573d6000803e3d6000fd5b505050506040513d601f19601f8201168201806040525081019061169e9190612c03565b9050600081116116c05760405162461bcd60e51b815260040161020f90612df7565b600b546001600160a01b0316336001600160a01b03161461170f5760405162461bcd60e51b815260206004820152600960248201526810b932b9b7b63b32b960b91b604482015260640161020f565b6000600e548261171f9190612eaa565b905061172b8183612ee9565b6117358587612e6d565b146117825760405162461bcd60e51b815260206004820152601760248201527f7265736f6c7574696f6e20213d2072656d61696e646572000000000000000000604482015260640161020f565b83156117a557600a54600c546117a5916001600160a01b03918216911686611ec5565b84156117c857600954600c546117c8916001600160a01b03918216911687611ec5565b80156117eb57600b54600c546117eb916001600160a01b03918216911683611ec5565b6010546013556012805460ff19169055604080518681526020810186905280820183905260608101859052905133917f27035e6ed643518ecfca2b08593fd24d4ae4caba6ce5bab683e9b31a12a5b299919081900360800190a2505060018055505050565b600061185c600161195e565b90508015611874576000805461ff0019166101001790555b80156118bb576000805461ff0019169055604051600181527f7f26b83ff96e1f2b6a682f133852f6798a09c465da95921460cefb3847402498906020015b60405180910390a15b50565b600282600681106118ce57600080fd5b0181600281106118dd57600080fd5b602081049091015460ff601f9092166101000a9004169150829050565b6009546001600160a01b031633146119245760405162461bcd60e51b815260040161020f90612db6565b60095460405130916001600160a01b0316907f78a953f3f0d92abc078a34e5d4fedf8708e788e1b29300b3d6170e97f88a13fc90600090a3565b60008054610100900460ff16156119a5578160ff1660011480156119815750303b155b61199d5760405162461bcd60e51b815260040161020f90612d68565b5060006119df565b60005460ff8084169116106119cc5760405162461bcd60e51b815260040161020f90612d68565b506000805460ff191660ff831617905560015b919050565b600080808080808080806119fa8a8c018c6129f0565b9850985098509850985098509850985098506000816001600160a01b03166375d94fea896040518263ffffffff1660e01b8152600401611a4991906001600160a01b0391909116815260200190565b60206040518083038186803b158015611a6157600080fd5b505afa158015611a75573d6000803e3d6000fd5b505050506040513d601f19601f82011682018060405250810190611a999190612c03565b905080611aa4575060145b6001600160a01b038a16611aeb5760405162461bcd60e51b815260206004820152600e60248201526d1a5b9d985b1a590818db1a595b9d60921b604482015260640161020f565b600160ff8a161115611b365760405162461bcd60e51b8152602060048201526014602482015273696e76616c6964207265736f6c7665725479706560601b604482015260640161020f565b6001600160a01b038816611b7f5760405162461bcd60e51b815260206004820152601060248201526f34b73b30b634b2103932b9b7b63b32b960811b604482015260640161020f565b6001600160a01b038716611bc55760405162461bcd60e51b815260206004820152600d60248201526c34b73b30b634b2103a37b5b2b760991b604482015260640161020f565b428611611c055760405162461bcd60e51b815260206004820152600e60248201526d191d5c985d1a5bdb88195b99195960921b604482015260640161020f565b611c136303c30ab042612e6d565b861115611c565760405162461bcd60e51b81526020600482015260116024820152706475726174696f6e20746f6f206c6f6e6760781b604482015260640161020f565b60008111611c9f5760405162461bcd60e51b8152602060048201526016602482015275696e76616c6964207265736f6c7574696f6e5261746560501b604482015260640161020f565b6001600160a01b038416611cf55760405162461bcd60e51b815260206004820152601a60248201527f696e76616c696420777261707065644e6174697665546f6b656e000000000000604482015260640161020f565b600980546001600160a01b0319166001600160a01b038c1617905560ff89166001811115611d3357634e487b7160e01b600052602160045260246000fd5b600a805460ff60a01b1916600160a01b836001811115611d6357634e487b7160e01b600052602160045260246000fd5b0217905550600b80546001600160a01b03808b166001600160a01b031992831617909255600c80548a8416908316179055600d889055600e839055600f879055600880549287169290911691909117905582611df25760095460405130916001600160a01b0316907f78a953f3f0d92abc078a34e5d4fedf8708e788e1b29300b3d6170e97f88a13fc90600090a35b505050505050505050505050565b611e0861291c565b6040805161010081018252600160c0820181815260e08301829052825282518084018452818152600060208281018290528085019290925284518086018652600380825281840185905285870191909152855180870187528481528084018590526060860152855180870187528481528084019190915260808501528451808601909552845283015260a0810191909152808360068110611eb957634e487b7160e01b600052603260045260246000fd5b60200201519392505050565b604080516001600160a01b038416602482015260448082018490528251808303909101815260649091019091526020810180516001600160e01b031663a9059cbb60e01b1790526113f790849061267c565b60125460ff1615611f3a5760405162461bcd60e51b815260040161020f90612dd7565b600d544211611f795760405162461bcd60e51b815260206004820152600b60248201526a085d195c9b5a5b985d195960aa1b604482015260640161020f565b600c546040516370a0823160e01b81523060048201526000916001600160a01b0316906370a082319060240160206040518083038186803b158015611fbd57600080fd5b505afa158015611fd1573d6000803e3d6000fd5b505050506040513d601f19601f82011682018060405250810190611ff59190612c03565b9050600081116120175760405162461bcd60e51b815260040161020f90612df7565b600954600c54612034916001600160a01b03918216911683611ec5565b6010546013556040518181527f5b6b431d4476a211bb7d41c20d1aab9ae2321deee0d20be3d9fc9b1093fa6e3d906020016118b2565b60125460ff161561208d5760405162461bcd60e51b815260040161020f90612dd7565b600d5442106120cb5760405162461bcd60e51b815260206004820152600a6024820152691d195c9b5a5b985d195960b21b604482015260640161020f565b6009546001600160a01b0316336001600160a01b031614806121005750600a546001600160a01b0316336001600160a01b0316145b6121355760405162461bcd60e51b815260206004820152600660248201526521706172747960d01b604482015260640161020f565b816121825760405162461bcd60e51b815260206004820152601d60248201527f6e6f206d696c6573746f6e657320617265206265696e67206164646564000000604482015260640161020f565b600a8211156121d35760405162461bcd60e51b815260206004820181905260248201527f6f6e6c79203130206e6577206d696c6573746f6e657320617420612074696d65604482015260640161020f565b6010546000906121e4908490612e6d565b905060008167ffffffffffffffff81111561220f57634e487b7160e01b600052604160045260246000fd5b604051908082528060200260200182016040528015612238578160200160208202803683370190505b5060115490915060005b6010548110156122b5576010818154811061226d57634e487b7160e01b600052603260045260246000fd5b906000526020600020015483828151811061229857634e487b7160e01b600052603260045260246000fd5b6020908102919091010152806122ad81612f30565b915050612242565b506010545b8381101561237657601054879087906122d39084612ee9565b8181106122f057634e487b7160e01b600052603260045260246000fd5b9050602002013583828151811061231757634e487b7160e01b600052603260045260246000fd5b6020908102919091010152601054879087906123339084612ee9565b81811061235057634e487b7160e01b600052603260045260246000fd5b90506020020135826123629190612e6d565b91508061236e81612f30565b9150506122ba565b506011819055815161238f90601090602085019061293a565b5083156123d157600f84905560405184815233907f6f6caf08ac16ebd1467ced3e11335ca96f753397f1211110aafea462a3df75929060200160405180910390a25b604051309033907f526d23025be18fff4f70c0855a5d4a85c210a6b4f7d98067aade79c06563667a90612407908a908a90612caf565b60405180910390a3505050505050565b60125460ff161561243a5760405162461bcd60e51b815260040161020f90612dd7565b6009546001600160a01b0316336001600160a01b03161461246d5760405162461bcd60e51b815260040161020f90612db6565b601354600c546040516370a0823160e01b81523060048201526000916001600160a01b0316906370a082319060240160206040518083038186803b1580156124b457600080fd5b505afa1580156124c8573d6000803e3d6000fd5b505050506040513d601f19601f820116820180604052508101906124ec9190612c03565b6010549091508210156126035760006010838154811061251c57634e487b7160e01b600052603260045260246000fd5b90600052602060002001549050600160108054905061253b9190612ee9565b8314801561254857508181105b156125505750805b808210156125975760405162461bcd60e51b8152602060048201526014602482015273696e73756666696369656e742062616c616e636560601b604482015260640161020f565b6013546125a5906001612e6d565b601355600a54600c546125c5916001600160a01b03918216911683611ec5565b806014546125d39190612e6d565b6014556040805184815260208101839052600080516020612f85833981519152910160405180910390a150611408565b600081116126235760405162461bcd60e51b815260040161020f90612df7565b600a54600c54612640916001600160a01b03918216911683611ec5565b8060145461264e9190612e6d565b6014556040805183815260208101839052600080516020612f85833981519152910160405180910390a15050565b60006126d1826040518060400160405280602081526020017f5361666545524332303a206c6f772d6c6576656c2063616c6c206661696c6564815250856001600160a01b031661274e9092919063ffffffff16565b8051909150156113f757808060200190518101906126ef9190612bcf565b6113f75760405162461bcd60e51b815260206004820152602a60248201527f5361666545524332303a204552433230206f7065726174696f6e20646964206e6044820152691bdd081cdd58d8d9595960b21b606482015260840161020f565b606061275d8484600085612767565b90505b9392505050565b6060824710156127c85760405162461bcd60e51b815260206004820152602660248201527f416464726573733a20696e73756666696369656e742062616c616e636520666f6044820152651c8818d85b1b60d21b606482015260840161020f565b6001600160a01b0385163b61281f5760405162461bcd60e51b815260206004820152601d60248201527f416464726573733a2063616c6c20746f206e6f6e2d636f6e7472616374000000604482015260640161020f565b600080866001600160a01b0316858760405161283b9190612c93565b60006040518083038185875af1925050503d8060008114612878576040519150601f19603f3d011682016040523d82523d6000602084013e61287d565b606091505b509150915061288d828286612898565b979650505050505050565b606083156128a7575081612760565b8251156128b75782518084602001fd5b8160405162461bcd60e51b815260040161020f9190612d55565b82805482825590600052602060002090810192821561290c579160200282015b8281111561290c5782358255916020019190600101906128f1565b50612918929150612975565b5090565b60405180604001604052806002906020820280368337509192915050565b82805482825590600052602060002090810192821561290c579160200282015b8281111561290c57825182559160200191906001019061295a565b5b808211156129185760008155600101612976565b60008083601f84011261299b578182fd5b50813567ffffffffffffffff8111156129b2578182fd5b6020830191508360208260051b85010111156129cd57600080fd5b9250929050565b6000602082840312156129e5578081fd5b813561276081612f61565b60008060008060008060008060006101208a8c031215612a0e578485fd5b8935612a1981612f61565b985060208a013560ff81168114612a2e578586fd5b975060408a0135612a3e81612f61565b965060608a0135612a4e81612f61565b955060808a0135945060a08a0135935060c08a0135612a6c81612f61565b925060e08a0135612a7c81612f76565b91506101008a0135612a8d81612f61565b809150509295985092959850929598565b600080600080600060608688031215612ab5578081fd5b8535612ac081612f61565b9450602086013567ffffffffffffffff80821115612adc578283fd5b612ae889838a0161298a565b90965094506040880135915080821115612b00578283fd5b818801915088601f830112612b13578283fd5b813581811115612b21578384fd5b896020828501011115612b32578384fd5b9699959850939650602001949392505050565b60008060208385031215612b57578182fd5b823567ffffffffffffffff811115612b6d578283fd5b612b798582860161298a565b90969095509350505050565b600080600060408486031215612b99578283fd5b833567ffffffffffffffff811115612baf578384fd5b612bbb8682870161298a565b909790965060209590950135949350505050565b600060208284031215612be0578081fd5b815161276081612f76565b600060208284031215612bfc578081fd5b5035919050565b600060208284031215612c14578081fd5b5051919050565b60008060408385031215612c2d578182fd5b50508035926020909101359150565b600080600060608486031215612c50578283fd5b505081359360208301359350604090920135919050565b60008151808452612c7f816020860160208601612f00565b601f01601f19169290920160200192915050565b60008251612ca5818460208701612f00565b9190910192915050565b6020808252810182905260006001600160fb1b03831115612cce578081fd5b8260051b808560408501379190910160400190815292915050565b6020808252825182820181905260009190848201906040850190845b81811015612d2157835183529284019291840191600101612d05565b50909695505050505050565b6020810160028310612d4f57634e487b7160e01b600052602160045260246000fd5b91905290565b6000602082526127606020830184612c67565b6020808252602e908201527f496e697469616c697a61626c653a20636f6e747261637420697320616c72656160408201526d191e481a5b9a5d1a585b1a5e995960921b606082015260800190565b6020808252600790820152660858db1a595b9d60ca1b604082015260600190565b6020808252600690820152651b1bd8dad95960d21b604082015260600190565b6020808252600c908201526b062616c616e636520697320360a41b604082015260600190565b6020808252601f908201527f5265656e7472616e637947756172643a207265656e7472616e742063616c6c00604082015260600190565b60008382526040602083015261275d6040830184612c67565b60008219821115612e8057612e80612f4b565b500190565b600060ff821660ff84168060ff03821115612ea257612ea2612f4b565b019392505050565b600082612ec557634e487b7160e01b81526012600452602481fd5b500490565b6000816000190483118215151615612ee457612ee4612f4b565b500290565b600082821015612efb57612efb612f4b565b500390565b60005b83811015612f1b578181015183820152602001612f03565b83811115612f2a576000848401525b50505050565b6000600019821415612f4457612f44612f4b565b5060010190565b634e487b7160e01b600052601160045260246000fd5b6001600160a01b03811681146118bb57600080fd5b80151581146118bb57600080fdfe99f6215451102cb496830dfd718a41ae7fb7d92607137ea8961d076bea55c5d3a26469706673582212201ee47dfd7f830dd60c5ed5d5f526c3b2d597f95d2a71ab3fa11e03fc68cf2eeb64736f6c63430008030033",
  "linkReferences": {},
  "deployedLinkReferences": {}
}