{
  "_format": "hh-sol-artifact-1",
  "contractName": "SmartInvoiceSplitEscrow01",
  "sourceName": "contracts/SmartInvoiceSplitEscrow.sol",
  "abi": [
    {
      "anonymous": false,
      "inputs": [
        {
          "indexed": true,
          "internalType": "address",
          "name": "sender",
          "type": "address"
        },
        {
          "indexed": false,
          "internalType": "uint256",
          "name": "amount",
          "type": "uint256"
        }
      ],
      "name": "Deposit",
      "type": "event"
    },
    {
      "anonymous": false,
      "inputs": [
        {
          "indexed": true,
          "internalType": "address",
          "name": "sender",
          "type": "address"
        },
        {
          "indexed": false,
          "internalType": "bytes32",
          "name": "details",
          "type": "bytes32"
        }
      ],
      "name": "DetailsUpdated",
      "type": "event"
    },
    {
      "anonymous": false,
      "inputs": [
        {
          "indexed": false,
          "internalType": "uint8",
          "name": "version",
          "type": "uint8"
        }
      ],
      "name": "Initialized",
      "type": "event"
    },
    {
      "anonymous": false,
      "inputs": [
        {
          "indexed": true,
          "internalType": "address",
          "name": "sender",
          "type": "address"
        },
        {
          "indexed": false,
          "internalType": "bytes32",
          "name": "details",
          "type": "bytes32"
        }
      ],
      "name": "Lock",
      "type": "event"
    },
    {
      "anonymous": false,
      "inputs": [
        {
          "indexed": true,
          "internalType": "address",
          "name": "sender",
          "type": "address"
        },
        {
          "indexed": true,
          "internalType": "address",
          "name": "invoice",
          "type": "address"
        },
        {
          "indexed": false,
          "internalType": "uint256[]",
          "name": "milestones",
          "type": "uint256[]"
        }
      ],
      "name": "MilestonesAdded",
      "type": "event"
    },
    {
      "anonymous": false,
      "inputs": [
        {
          "indexed": false,
          "internalType": "uint256",
          "name": "milestone",
          "type": "uint256"
        },
        {
          "indexed": false,
          "internalType": "uint256",
          "name": "amount",
          "type": "uint256"
        }
      ],
      "name": "Release",
      "type": "event"
    },
    {
      "anonymous": false,
      "inputs": [
        {
          "indexed": true,
          "internalType": "address",
          "name": "resolver",
          "type": "address"
        },
        {
          "indexed": false,
          "internalType": "uint256",
          "name": "clientAward",
          "type": "uint256"
        },
        {
          "indexed": false,
          "internalType": "uint256",
          "name": "providerAward",
          "type": "uint256"
        },
        {
          "indexed": false,
          "internalType": "uint256",
          "name": "resolutionFee",
          "type": "uint256"
        },
        {
          "indexed": false,
          "internalType": "bytes32",
          "name": "details",
          "type": "bytes32"
        }
      ],
      "name": "Resolve",
      "type": "event"
    },
    {
      "anonymous": false,
      "inputs": [
        {
          "indexed": true,
          "internalType": "address",
          "name": "resolver",
          "type": "address"
        },
        {
          "indexed": false,
          "internalType": "uint256",
          "name": "clientAward",
          "type": "uint256"
        },
        {
          "indexed": false,
          "internalType": "uint256",
          "name": "providerAward",
          "type": "uint256"
        },
        {
          "indexed": false,
          "internalType": "uint256",
          "name": "ruling",
          "type": "uint256"
        }
      ],
      "name": "Rule",
      "type": "event"
    },
    {
      "anonymous": false,
      "inputs": [
        {
          "indexed": true,
          "internalType": "address",
          "name": "_arbitrator",
          "type": "address"
        },
        {
          "indexed": true,
          "internalType": "uint256",
          "name": "_disputeID",
          "type": "uint256"
        },
        {
          "indexed": false,
          "internalType": "uint256",
          "name": "_ruling",
          "type": "uint256"
        }
      ],
      "name": "Ruling",
      "type": "event"
    },
    {
      "anonymous": false,
      "inputs": [
        {
          "indexed": true,
          "internalType": "address",
          "name": "client",
          "type": "address"
        },
        {
          "indexed": true,
          "internalType": "address",
          "name": "invoice",
          "type": "address"
        }
      ],
      "name": "Verified",
      "type": "event"
    },
    {
      "anonymous": false,
      "inputs": [
        {
          "indexed": false,
          "internalType": "uint256",
          "name": "balance",
          "type": "uint256"
        }
      ],
      "name": "Withdraw",
      "type": "event"
    },
    {
      "inputs": [],
      "name": "MAX_TERMINATION_TIME",
      "outputs": [
        {
          "internalType": "uint256",
          "name": "",
          "type": "uint256"
        }
      ],
      "stateMutability": "view",
      "type": "function"
    },
    {
      "inputs": [],
      "name": "NUM_RULING_OPTIONS",
      "outputs": [
        {
          "internalType": "uint256",
          "name": "",
          "type": "uint256"
        }
      ],
      "stateMutability": "view",
      "type": "function"
    },
    {
      "inputs": [
        {
          "internalType": "uint256",
          "name": "",
          "type": "uint256"
        },
        {
          "internalType": "uint256",
          "name": "",
          "type": "uint256"
        }
      ],
      "name": "RULINGS",
      "outputs": [
        {
          "internalType": "uint8",
          "name": "",
          "type": "uint8"
        }
      ],
      "stateMutability": "view",
      "type": "function"
    },
    {
      "inputs": [
        {
          "internalType": "uint256[]",
          "name": "_milestones",
          "type": "uint256[]"
        },
        {
          "internalType": "bytes32",
          "name": "_details",
          "type": "bytes32"
        }
      ],
      "name": "addMilestones",
      "outputs": [],
      "stateMutability": "nonpayable",
      "type": "function"
    },
    {
      "inputs": [
        {
          "internalType": "uint256[]",
          "name": "_milestones",
          "type": "uint256[]"
        }
      ],
      "name": "addMilestones",
      "outputs": [],
      "stateMutability": "nonpayable",
      "type": "function"
    },
    {
      "inputs": [
        {
          "internalType": "uint256",
          "name": "",
          "type": "uint256"
        }
      ],
      "name": "amounts",
      "outputs": [
        {
          "internalType": "uint256",
          "name": "",
          "type": "uint256"
        }
      ],
      "stateMutability": "view",
      "type": "function"
    },
    {
      "inputs": [],
      "name": "client",
      "outputs": [
        {
          "internalType": "address",
          "name": "",
          "type": "address"
        }
      ],
      "stateMutability": "view",
      "type": "function"
    },
    {
      "inputs": [],
      "name": "dao",
      "outputs": [
        {
          "internalType": "address",
          "name": "",
          "type": "address"
        }
      ],
      "stateMutability": "view",
      "type": "function"
    },
    {
      "inputs": [],
      "name": "daoFee",
      "outputs": [
        {
          "internalType": "uint256",
          "name": "",
          "type": "uint256"
        }
      ],
      "stateMutability": "view",
      "type": "function"
    },
    {
      "inputs": [],
      "name": "details",
      "outputs": [
        {
          "internalType": "bytes32",
          "name": "",
          "type": "bytes32"
        }
      ],
      "stateMutability": "view",
      "type": "function"
    },
    {
      "inputs": [],
      "name": "disputeId",
      "outputs": [
        {
          "internalType": "uint256",
          "name": "",
          "type": "uint256"
        }
      ],
      "stateMutability": "view",
      "type": "function"
    },
    {
      "inputs": [],
      "name": "getAmounts",
      "outputs": [
        {
          "internalType": "uint256[]",
          "name": "",
          "type": "uint256[]"
        }
      ],
      "stateMutability": "view",
      "type": "function"
    },
    {
      "inputs": [
        {
          "internalType": "address",
          "name": "_recipient",
          "type": "address"
        },
        {
          "internalType": "uint256[]",
          "name": "_amounts",
          "type": "uint256[]"
        },
        {
          "internalType": "bytes",
          "name": "_data",
          "type": "bytes"
        }
      ],
      "name": "init",
      "outputs": [],
      "stateMutability": "nonpayable",
      "type": "function"
    },
    {
      "inputs": [],
      "name": "initLock",
      "outputs": [],
      "stateMutability": "nonpayable",
      "type": "function"
    },
    {
      "inputs": [
        {
          "internalType": "bytes32",
          "name": "_details",
          "type": "bytes32"
        }
      ],
      "name": "lock",
      "outputs": [],
      "stateMutability": "payable",
      "type": "function"
    },
    {
      "inputs": [],
      "name": "locked",
      "outputs": [
        {
          "internalType": "bool",
          "name": "",
          "type": "bool"
        }
      ],
      "stateMutability": "view",
      "type": "function"
    },
    {
      "inputs": [],
      "name": "milestone",
      "outputs": [
        {
          "internalType": "uint256",
          "name": "",
          "type": "uint256"
        }
      ],
      "stateMutability": "view",
      "type": "function"
    },
    {
      "inputs": [],
      "name": "provider",
      "outputs": [
        {
          "internalType": "address",
          "name": "",
          "type": "address"
        }
      ],
      "stateMutability": "view",
      "type": "function"
    },
    {
      "inputs": [
        {
          "internalType": "uint256",
          "name": "_milestone",
          "type": "uint256"
        }
      ],
      "name": "release",
      "outputs": [],
      "stateMutability": "nonpayable",
      "type": "function"
    },
    {
      "inputs": [],
      "name": "release",
      "outputs": [],
      "stateMutability": "nonpayable",
      "type": "function"
    },
    {
      "inputs": [
        {
          "internalType": "address",
          "name": "_token",
          "type": "address"
        }
      ],
      "name": "releaseTokens",
      "outputs": [],
      "stateMutability": "nonpayable",
      "type": "function"
    },
    {
      "inputs": [],
      "name": "released",
      "outputs": [
        {
          "internalType": "uint256",
          "name": "",
          "type": "uint256"
        }
      ],
      "stateMutability": "view",
      "type": "function"
    },
    {
      "inputs": [],
      "name": "resolutionRate",
      "outputs": [
        {
          "internalType": "uint256",
          "name": "",
          "type": "uint256"
        }
      ],
      "stateMutability": "view",
      "type": "function"
    },
    {
      "inputs": [
        {
          "internalType": "uint256",
          "name": "_clientAward",
          "type": "uint256"
        },
        {
          "internalType": "uint256",
          "name": "_providerAward",
          "type": "uint256"
        },
        {
          "internalType": "bytes32",
          "name": "_details",
          "type": "bytes32"
        }
      ],
      "name": "resolve",
      "outputs": [],
      "stateMutability": "nonpayable",
      "type": "function"
    },
    {
      "inputs": [],
      "name": "resolver",
      "outputs": [
        {
          "internalType": "address",
          "name": "",
          "type": "address"
        }
      ],
      "stateMutability": "view",
      "type": "function"
    },
    {
      "inputs": [],
      "name": "resolverType",
      "outputs": [
        {
          "internalType": "enum SmartInvoiceEscrow.ADR",
          "name": "",
          "type": "uint8"
        }
      ],
      "stateMutability": "view",
      "type": "function"
    },
    {
      "inputs": [
        {
          "internalType": "uint256",
          "name": "_disputeId",
          "type": "uint256"
        },
        {
          "internalType": "uint256",
          "name": "_ruling",
          "type": "uint256"
        }
      ],
      "name": "rule",
      "outputs": [],
      "stateMutability": "nonpayable",
      "type": "function"
    },
    {
      "inputs": [],
      "name": "terminationTime",
      "outputs": [
        {
          "internalType": "uint256",
          "name": "",
          "type": "uint256"
        }
      ],
      "stateMutability": "view",
      "type": "function"
    },
    {
      "inputs": [],
      "name": "token",
      "outputs": [
        {
          "internalType": "address",
          "name": "",
          "type": "address"
        }
      ],
      "stateMutability": "view",
      "type": "function"
    },
    {
      "inputs": [],
      "name": "total",
      "outputs": [
        {
          "internalType": "uint256",
          "name": "",
          "type": "uint256"
        }
      ],
      "stateMutability": "view",
      "type": "function"
    },
    {
      "inputs": [],
      "name": "verify",
      "outputs": [],
      "stateMutability": "nonpayable",
      "type": "function"
    },
    {
      "inputs": [],
      "name": "withdraw",
      "outputs": [],
      "stateMutability": "nonpayable",
      "type": "function"
    },
    {
      "inputs": [
        {
          "internalType": "address",
          "name": "_token",
          "type": "address"
        }
      ],
      "name": "withdrawTokens",
      "outputs": [],
      "stateMutability": "nonpayable",
      "type": "function"
    },
    {
      "inputs": [],
      "name": "wrappedNativeToken",
      "outputs": [
        {
          "internalType": "address",
          "name": "",
          "type": "address"
        }
      ],
      "stateMutability": "view",
      "type": "function"
    },
    {
      "stateMutability": "payable",
      "type": "receive"
    }
  ],
  "bytecode": "0x6001610140818152610160829052608090815261018082815260006101a081905260a09190915260036101c08181526101e085905260c05261020084815261022085905260e05261024084815261026091909152610100526102c06040526102809081526102a0929092526101209190915262000081906002906006620000a9565b506000601155600060135560006014553480156200009e57600080fd5b5060018055620001bc565b8260068101928215620000e8579160200282015b82811115620000e8578251620000d79083906002620000fa565b5091602001919060010190620000bd565b50620000f692915062000190565b5090565b600183019183908215620001825791602002820160005b838211156200015157835183826101000a81548160ff021916908360ff160217905550926020019260010160208160000104928301926001030262000111565b8015620001805782816101000a81549060ff021916905560010160208160000104928301926001030262000151565b505b50620000f6929150620001a6565b80821115620000f6576000815560010162000190565b80821115620000f6576000815560010162000190565b61309480620001cc6000396000f3fe6080604052600436106101fd5760003560e01c80635ce6288c1161010d578063a7d07c82116100a0578063e38f48611161006f578063e38f4861146106a6578063e86dad24146106bb578063f51cf927146106d3578063fc0c546a14610705578063fc735e991461072557610338565b8063a7d07c8214610630578063ce4254ce14610650578063cf30901214610666578063dbac78061461069057610338565b806386d1a69f116100dc57806386d1a69f146105cf57806387b0be48146105e4578063946f2e4814610604578063961325211461061a57610338565b80635ce6288c1461054c57806370ff6bd714610561578063786ad4eb1461058f578063868af224146105af57610338565b80632e77c8d2116101905780633d370b4e1161015f5780633d370b4e146104b45780634162169f146104d657806345f0a44f146104f657806349df728c14610516578063565974d31461053657610338565b80632e77c8d214610449578063311a6c561461045f57806337bdc99b1461047f5780633ccfd60b1461049f57610338565b8063109e94cf116101cc578063109e94cf146103cf57806317fcb39b146103ef5780632957b8391461040f5780632ddbd13a1461043357610338565b806301670ba91461033d57806304f3bcec146103525780630721711d1461038f578063085d4883146103af57610338565b366103385760125460ff161561022e5760405162461bcd60e51b815260040161022590612e91565b60405180910390fd5b600854600c546001600160a01b039081169116146102845760405162461bcd60e51b815260206004820152601360248201527210bbb930b83832b22730ba34bb32aa37b5b2b760691b6044820152606401610225565b600860009054906101000a90046001600160a01b03166001600160a01b031663d0e30db0346040518263ffffffff1660e01b81526004016000604051808303818588803b1580156102d457600080fd5b505af11580156102e8573d6000803e3d6000fd5b50505050506102f43390565b6001600160a01b03167fe1fffcc4923d04b559f4d29a8bfc6cda04eb5b0d3c460751c2402c5c5cc9109c3460405161032e91815260200190565b60405180910390a2005b600080fd5b61035061034b366004612ca5565b61073a565b005b34801561035e57600080fd5b50600b54610372906001600160a01b031681565b6040516001600160a01b0390911681526020015b60405180910390f35b34801561039b57600080fd5b506103506103aa366004612b58565b610a0f565b3480156103bb57600080fd5b50600a54610372906001600160a01b031681565b3480156103db57600080fd5b50600954610372906001600160a01b031681565b3480156103fb57600080fd5b50600854610372906001600160a01b031681565b34801561041b57600080fd5b5061042560175481565b604051908152602001610386565b34801561043f57600080fd5b5061042560115481565b34801561045557600080fd5b5061042560155481565b34801561046b57600080fd5b5061035061047a366004612cd5565b610b59565b34801561048b57600080fd5b5061035061049a366004612ca5565b610ee8565b3480156104ab57600080fd5b50610350611232565b3480156104c057600080fd5b506104c9611268565b6040516103869190612da3565b3480156104e257600080fd5b50601654610372906001600160a01b031681565b34801561050257600080fd5b50610425610511366004612ca5565b6112c0565b34801561052257600080fd5b50610350610531366004612a7b565b6112e1565b34801561054257600080fd5b50610425600f5481565b34801561055857600080fd5b50610425600581565b34801561056d57600080fd5b50600a5461058290600160a01b900460ff1681565b6040516103869190612de7565b34801561059b57600080fd5b506103506105aa366004612c3f565b61142a565b3480156105bb57600080fd5b506103506105ca366004612bff565b61143a565b3480156105db57600080fd5b5061035061144a565b3480156105f057600080fd5b506103506105ff366004612a7b565b61147a565b34801561061057600080fd5b50610425600e5481565b34801561062657600080fd5b5061042560145481565b34801561063c57600080fd5b5061035061064b366004612cf6565b611579565b34801561065c57600080fd5b50610425600d5481565b34801561067257600080fd5b506012546106809060ff1681565b6040519015158152602001610386565b34801561069c57600080fd5b5061042560135481565b3480156106b257600080fd5b50610350611876565b3480156106c757600080fd5b506104256303c30ab081565b3480156106df57600080fd5b506106f36106ee366004612cd5565b6118e4565b60405160ff9091168152602001610386565b34801561071157600080fd5b50600c54610372906001600160a01b031681565b34801561073157600080fd5b50610350611920565b6002600154141561075d5760405162461bcd60e51b815260040161022590612ed7565b600260015560125460ff16156107855760405162461bcd60e51b815260040161022590612e91565b600c546040516370a0823160e01b81523060048201526000916001600160a01b0316906370a082319060240160206040518083038186803b1580156107c957600080fd5b505afa1580156107dd573d6000803e3d6000fd5b505050506040513d601f19601f820116820180604052508101906108019190612cbd565b9050600081116108235760405162461bcd60e51b815260040161022590612eb1565b600d5442106108615760405162461bcd60e51b815260206004820152600a6024820152691d195c9b5a5b985d195960b21b6044820152606401610225565b6009546001600160a01b0316336001600160a01b031614806108965750600a546001600160a01b0316336001600160a01b0316145b6108cb5760405162461bcd60e51b815260206004820152600660248201526521706172747960d01b6044820152606401610225565b6001600a54600160a01b900460ff1660018111156108f957634e487b7160e01b600052602160045260246000fd5b14156109b157600b54600f546040516001600160a01b039092169163c13517e191349160059161092f9160200190815260200190565b6040516020818303038152906040526040518463ffffffff1660e01b815260040161095b929190612f0e565b6020604051808303818588803b15801561097457600080fd5b505af1158015610988573d6000803e3d6000fd5b50505050506040513d601f19601f820116820180604052508101906109ad9190612cbd565b6015555b6012805460ff191660011790556109c53390565b6001600160a01b03167fe55f8011a92f4874f2b5795bfe755853e25c72d78f99ce599a78e505178ba240836040516109ff91815260200190565b60405180910390a2505060018055565b6000610a1b6001611984565b90508015610a33576000805461ff0019166101001790555b6001600160a01b038616610a7c5760405162461bcd60e51b815260206004820152601060248201526f34b73b30b634b210383937bb34b232b960811b6044820152606401610225565b610a868383611a0a565b600a80546001600160a01b0319166001600160a01b038816179055610aad60108686612962565b506000805b601054811015610b075760108181548110610add57634e487b7160e01b600052603260045260246000fd5b906000526020600020015482610af39190612f27565b915080610aff81612fea565b915050610ab2565b506011558015610b51576000805461ff0019169055604051600181527f7f26b83ff96e1f2b6a682f133852f6798a09c465da95921460cefb38474024989060200160405180910390a15b505050505050565b60026001541415610b7c5760405162461bcd60e51b815260040161022590612ed7565b60026001908155600a54600160a01b900460ff166001811115610baf57634e487b7160e01b600052602160045260246000fd5b14610bf35760405162461bcd60e51b815260206004820152601460248201527310b0b93134ba3930ba37b9103932b9b7b63b32b960611b6044820152606401610225565b60125460ff16610c2f5760405162461bcd60e51b8152602060048201526007602482015266085b1bd8dad95960ca1b6044820152606401610225565b600b546001600160a01b0316336001600160a01b031614610c7e5760405162461bcd60e51b815260206004820152600960248201526810b932b9b7b63b32b960b91b6044820152606401610225565b6015548214610cc55760405162461bcd60e51b81526020600482015260136024820152721a5b98dbdc9c9958dd08191a5cdc1d5d195259606a1b6044820152606401610225565b6005811115610d075760405162461bcd60e51b815260206004820152600e60248201526d696e76616c69642072756c696e6760901b6044820152606401610225565b600c546040516370a0823160e01b81523060048201526000916001600160a01b0316906370a082319060240160206040518083038186803b158015610d4b57600080fd5b505afa158015610d5f573d6000803e3d6000fd5b505050506040513d601f19601f82011682018060405250810190610d839190612cbd565b905060008111610da55760405162461bcd60e51b815260040161022590612eb1565b6000610db083611e34565b80516020820151919250906000610dc78284612f3f565b905060008160ff168360ff1687610dde9190612f84565b610de89190612f64565b90506000610df68288612fa3565b90508115610e1457600c54610e14906001600160a01b031683611ef9565b8015610e3757600954600c54610e37916001600160a01b03918216911683611f64565b6010546013556012805460ff19169055600b5460408051838152602081018590529081018a90526001600160a01b03909116907ff08a08afe8a39853d7db7dd0a42f0cdb68a64ee36a554e68c32219f381e5669e9060600160405180910390a2600b546040518981528a916001600160a01b0316907f394027a5fa6e098a1191094d1719d6929b9abc535fcc0c8f448d6a4e756222769060200160405180910390a350506001805550505050505050565b60026001541415610f0b5760405162461bcd60e51b815260040161022590612ed7565b600260015560125460ff1615610f335760405162461bcd60e51b815260040161022590612e91565b6009546001600160a01b0316336001600160a01b031614610f665760405162461bcd60e51b815260040161022590612e70565b601354811015610fab5760405162461bcd60e51b815260206004820152601060248201526f1b5a5b195cdd1bdb99481c185cdcd95960821b6044820152606401610225565b6010548110610ff05760405162461bcd60e51b8152602060048201526011602482015270696e76616c6964206d696c6573746f6e6560781b6044820152606401610225565b600c546040516370a0823160e01b81523060048201526000916001600160a01b0316906370a082319060240160206040518083038186803b15801561103457600080fd5b505afa158015611048573d6000803e3d6000fd5b505050506040513d601f19601f8201168201806040525081019061106c9190612cbd565b6013549091506000905b8381116111ac5760105461108c90600190612fa3565b811480156110cf575082601082815481106110b757634e487b7160e01b600052603260045260246000fd5b9060005260206000200154836110cd9190612f27565b105b1561110e5760008051602061303f833981519152816110ee8486612fa3565b6040805192835260208301919091520160405180910390a182915061119a565b60008051602061303f833981519152816010838154811061113f57634e487b7160e01b600052603260045260246000fd5b6000918252602091829020015460408051938452918301520160405180910390a16010818154811061118157634e487b7160e01b600052603260045260246000fd5b9060005260206000200154826111979190612f27565b91505b806111a481612fea565b915050611076565b50808210156111f45760405162461bcd60e51b8152602060048201526014602482015273696e73756666696369656e742062616c616e636560601b6044820152606401610225565b600c5461120a906001600160a01b031682611ef9565b806014546112189190612f27565b601455611226836001612f27565b60135550506001805550565b600260015414156112555760405162461bcd60e51b815260040161022590612ed7565b6002600155611262611fb6565b60018055565b606060108054806020026020016040519081016040528092919081815260200182805480156112b657602002820191906000526020600020905b8154815260200190600101908083116112a2575b5050505050905090565b601081815481106112d057600080fd5b600091825260209091200154905081565b600260015414156113045760405162461bcd60e51b815260040161022590612ed7565b6002600155600c546001600160a01b038281169116141561132c57611327611fb6565b611423565b600d54421161136b5760405162461bcd60e51b815260206004820152600b60248201526a085d195c9b5a5b985d195960aa1b6044820152606401610225565b6040516370a0823160e01b81523060048201526000906001600160a01b038316906370a082319060240160206040518083038186803b1580156113ad57600080fd5b505afa1580156113c1573d6000803e3d6000fd5b505050506040513d601f19601f820116820180604052508101906113e59190612cbd565b9050600081116114075760405162461bcd60e51b815260040161022590612eb1565b600954611421906001600160a01b03848116911683611f64565b505b5060018055565b611435838383612109565b505050565b61144682826000612109565b5050565b6002600154141561146d5760405162461bcd60e51b815260040161022590612ed7565b60026001556112626124b6565b6002600154141561149d5760405162461bcd60e51b815260040161022590612ed7565b6002600155600c546001600160a01b03828116911614156114c0576113276124b6565b6009546001600160a01b0316336001600160a01b0316146114f35760405162461bcd60e51b815260040161022590612e70565b6040516370a0823160e01b81523060048201526000906001600160a01b038316906370a082319060240160206040518083038186803b15801561153557600080fd5b505afa158015611549573d6000803e3d6000fd5b505050506040513d601f19601f8201168201806040525081019061156d9190612cbd565b90506114218282611ef9565b6002600154141561159c5760405162461bcd60e51b815260040161022590612ed7565b60026001556000600a54600160a01b900460ff1660018111156115cf57634e487b7160e01b600052602160045260246000fd5b146116135760405162461bcd60e51b815260206004820152601460248201527310b4b73234bb34b23ab0b6103932b9b7b63b32b960611b6044820152606401610225565b60125460ff1661164f5760405162461bcd60e51b8152602060048201526007602482015266085b1bd8dad95960ca1b6044820152606401610225565b600c546040516370a0823160e01b81523060048201526000916001600160a01b0316906370a082319060240160206040518083038186803b15801561169357600080fd5b505afa1580156116a7573d6000803e3d6000fd5b505050506040513d601f19601f820116820180604052508101906116cb9190612cbd565b9050600081116116ed5760405162461bcd60e51b815260040161022590612eb1565b600b546001600160a01b0316336001600160a01b03161461173c5760405162461bcd60e51b815260206004820152600960248201526810b932b9b7b63b32b960b91b6044820152606401610225565b6000600e548261174c9190612f64565b90506117588183612fa3565b6117628587612f27565b146117af5760405162461bcd60e51b815260206004820152601760248201527f7265736f6c7574696f6e20213d2072656d61696e6465720000000000000000006044820152606401610225565b83156117cb57600c546117cb906001600160a01b031685611ef9565b84156117ee57600954600c546117ee916001600160a01b03918216911687611f64565b801561181157600b54600c54611811916001600160a01b03918216911683611f64565b6010546013556012805460ff19169055604080518681526020810186905280820183905260608101859052905133917f27035e6ed643518ecfca2b08593fd24d4ae4caba6ce5bab683e9b31a12a5b299919081900360800190a2505060018055505050565b60006118826001611984565b9050801561189a576000805461ff0019166101001790555b80156118e1576000805461ff0019169055604051600181527f7f26b83ff96e1f2b6a682f133852f6798a09c465da95921460cefb3847402498906020015b60405180910390a15b50565b600282600681106118f457600080fd5b01816002811061190357600080fd5b602081049091015460ff601f9092166101000a9004169150829050565b6009546001600160a01b0316331461194a5760405162461bcd60e51b815260040161022590612e70565b60095460405130916001600160a01b0316907f78a953f3f0d92abc078a34e5d4fedf8708e788e1b29300b3d6170e97f88a13fc90600090a3565b60008054610100900460ff16156119cb578160ff1660011480156119a75750303b155b6119c35760405162461bcd60e51b815260040161022590612e22565b506000611a05565b60005460ff8084169116106119f25760405162461bcd60e51b815260040161022590612e22565b506000805460ff191660ff831617905560015b919050565b600080808080808080808080611a228c8e018e612a97565b9a509a509a509a509a509a509a509a509a509a509a506000811115611a85576001600160a01b038216611a855760405162461bcd60e51b815260206004820152600b60248201526a696e76616c69642064616f60a81b6044820152606401610225565b6001600160a01b038b16611acc5760405162461bcd60e51b815260206004820152600e60248201526d1a5b9d985b1a590818db1a595b9d60921b6044820152606401610225565b600160ff8b161115611b175760405162461bcd60e51b8152602060048201526014602482015273696e76616c6964207265736f6c7665725479706560601b6044820152606401610225565b6001600160a01b038916611b605760405162461bcd60e51b815260206004820152601060248201526f34b73b30b634b2103932b9b7b63b32b960811b6044820152606401610225565b6001600160a01b038816611ba65760405162461bcd60e51b815260206004820152600d60248201526c34b73b30b634b2103a37b5b2b760991b6044820152606401610225565b428711611be65760405162461bcd60e51b815260206004820152600e60248201526d191d5c985d1a5bdb88195b99195960921b6044820152606401610225565b611bf46303c30ab042612f27565b871115611c375760405162461bcd60e51b81526020600482015260116024820152706475726174696f6e20746f6f206c6f6e6760781b6044820152606401610225565b6001600160a01b038516611c8d5760405162461bcd60e51b815260206004820152601a60248201527f696e76616c696420777261707065644e6174697665546f6b656e0000000000006044820152606401610225565b604051633aeca7f560e11b81526001600160a01b038a81166004830152600091908516906375d94fea9060240160206040518083038186803b158015611cd257600080fd5b505afa158015611ce6573d6000803e3d6000fd5b505050506040513d601f19601f82011682018060405250810190611d0a9190612cbd565b905080611d15575060145b600980546001600160a01b0319166001600160a01b038e1617905560ff8b166001811115611d5357634e487b7160e01b600052602160045260246000fd5b600a805460ff60a01b1916600160a01b836001811115611d8357634e487b7160e01b600052602160045260246000fd5b0217905550600b80546001600160a01b03808d166001600160a01b031992831617909255600c80548c8416908316179055600d8a9055600e839055600f899055600880548984169083161790556016805492861692909116919091179055601782905584611e245760095460405130916001600160a01b0316907f78a953f3f0d92abc078a34e5d4fedf8708e788e1b29300b3d6170e97f88a13fc90600090a35b5050505050505050505050505050565b611e3c6129ad565b6040805161010081018252600160c0820181815260e08301829052825282518084018452818152600060208281018290528085019290925284518086018652600380825281840185905285870191909152855180870187528481528084018590526060860152855180870187528481528084019190915260808501528451808601909552845283015260a0810191909152808360068110611eed57634e487b7160e01b600052603260045260246000fd5b60200201519392505050565b6000612710601754830281611f1e57634e487b7160e01b600052601260045260246000fd5b6016549190049150611f3d906001600160a01b03858116911683611f64565b600a54611435906001600160a01b0316611f578385612fa3565b6001600160a01b03861691905b604080516001600160a01b038416602482015260448082018490528251808303909101815260649091019091526020810180516001600160e01b031663a9059cbb60e01b17905261143590849061270d565b60125460ff1615611fd95760405162461bcd60e51b815260040161022590612e91565b600d5442116120185760405162461bcd60e51b815260206004820152600b60248201526a085d195c9b5a5b985d195960aa1b6044820152606401610225565b600c546040516370a0823160e01b81523060048201526000916001600160a01b0316906370a082319060240160206040518083038186803b15801561205c57600080fd5b505afa158015612070573d6000803e3d6000fd5b505050506040513d601f19601f820116820180604052508101906120949190612cbd565b9050600081116120b65760405162461bcd60e51b815260040161022590612eb1565b600954600c546120d3916001600160a01b03918216911683611f64565b6010546013556040518181527f5b6b431d4476a211bb7d41c20d1aab9ae2321deee0d20be3d9fc9b1093fa6e3d906020016118d8565b60125460ff161561212c5760405162461bcd60e51b815260040161022590612e91565b600d54421061216a5760405162461bcd60e51b815260206004820152600a6024820152691d195c9b5a5b985d195960b21b6044820152606401610225565b6009546001600160a01b0316336001600160a01b0316148061219f5750600a546001600160a01b0316336001600160a01b0316145b6121d45760405162461bcd60e51b815260206004820152600660248201526521706172747960d01b6044820152606401610225565b816122215760405162461bcd60e51b815260206004820152601d60248201527f6e6f206d696c6573746f6e657320617265206265696e672061646465640000006044820152606401610225565b600a8211156122725760405162461bcd60e51b815260206004820181905260248201527f6f6e6c79203130206e6577206d696c6573746f6e657320617420612074696d656044820152606401610225565b601054600090612283908490612f27565b905060008167ffffffffffffffff8111156122ae57634e487b7160e01b600052604160045260246000fd5b6040519080825280602002602001820160405280156122d7578160200160208202803683370190505b5060115490915060005b601054811015612354576010818154811061230c57634e487b7160e01b600052603260045260246000fd5b906000526020600020015483828151811061233757634e487b7160e01b600052603260045260246000fd5b60209081029190910101528061234c81612fea565b9150506122e1565b506010545b8381101561241557601054879087906123729084612fa3565b81811061238f57634e487b7160e01b600052603260045260246000fd5b905060200201358382815181106123b657634e487b7160e01b600052603260045260246000fd5b6020908102919091010152601054879087906123d29084612fa3565b8181106123ef57634e487b7160e01b600052603260045260246000fd5b90506020020135826124019190612f27565b91508061240d81612fea565b915050612359565b506011819055815161242e9060109060208501906129cb565b50831561247057600f84905560405184815233907f6f6caf08ac16ebd1467ced3e11335ca96f753397f1211110aafea462a3df75929060200160405180910390a25b604051309033907f526d23025be18fff4f70c0855a5d4a85c210a6b4f7d98067aade79c06563667a906124a6908a908a90612d69565b60405180910390a3505050505050565b60125460ff16156124d95760405162461bcd60e51b815260040161022590612e91565b6009546001600160a01b0316336001600160a01b03161461250c5760405162461bcd60e51b815260040161022590612e70565b601354600c546040516370a0823160e01b81523060048201526000916001600160a01b0316906370a082319060240160206040518083038186803b15801561255357600080fd5b505afa158015612567573d6000803e3d6000fd5b505050506040513d601f19601f8201168201806040525081019061258b9190612cbd565b60105490915082101561269b576000601083815481106125bb57634e487b7160e01b600052603260045260246000fd5b9060005260206000200154905060016010805490506125da9190612fa3565b831480156125e757508181105b156125ef5750805b808210156126365760405162461bcd60e51b8152602060048201526014602482015273696e73756666696369656e742062616c616e636560601b6044820152606401610225565b601354612644906001612f27565b601355600c5461265d906001600160a01b031682611ef9565b8060145461266b9190612f27565b601455604080518481526020810183905260008051602061303f833981519152910160405180910390a150611446565b600081116126bb5760405162461bcd60e51b815260040161022590612eb1565b600c546126d1906001600160a01b031682611ef9565b806014546126df9190612f27565b601455604080518381526020810183905260008051602061303f833981519152910160405180910390a15050565b6000612762826040518060400160405280602081526020017f5361666545524332303a206c6f772d6c6576656c2063616c6c206661696c6564815250856001600160a01b03166127df9092919063ffffffff16565b80519091501561143557808060200190518101906127809190612c89565b6114355760405162461bcd60e51b815260206004820152602a60248201527f5361666545524332303a204552433230206f7065726174696f6e20646964206e6044820152691bdd081cdd58d8d9595960b21b6064820152608401610225565b60606127ee84846000856127f8565b90505b9392505050565b6060824710156128595760405162461bcd60e51b815260206004820152602660248201527f416464726573733a20696e73756666696369656e742062616c616e636520666f6044820152651c8818d85b1b60d21b6064820152608401610225565b6001600160a01b0385163b6128b05760405162461bcd60e51b815260206004820152601d60248201527f416464726573733a2063616c6c20746f206e6f6e2d636f6e74726163740000006044820152606401610225565b600080866001600160a01b031685876040516128cc9190612d4d565b60006040518083038185875af1925050503d8060008114612909576040519150601f19603f3d011682016040523d82523d6000602084013e61290e565b606091505b509150915061291e828286612929565b979650505050505050565b606083156129385750816127f1565b8251156129485782518084602001fd5b8160405162461bcd60e51b81526004016102259190612e0f565b82805482825590600052602060002090810192821561299d579160200282015b8281111561299d578235825591602001919060010190612982565b506129a9929150612a06565b5090565b60405180604001604052806002906020820280368337509192915050565b82805482825590600052602060002090810192821561299d579160200282015b8281111561299d5782518255916020019190600101906129eb565b5b808211156129a95760008155600101612a07565b8035611a058161301b565b60008083601f840112612a37578182fd5b50813567ffffffffffffffff811115612a4e578182fd5b6020830191508360208260051b8501011115612a6957600080fd5b9250929050565b8035611a0581613030565b600060208284031215612a8c578081fd5b81356127f18161301b565b60008060008060008060008060008060006101608c8e031215612ab8578687fd5b8b35612ac38161301b565b9a5060208c013560ff81168114612ad8578788fd5b995060408c0135612ae88161301b565b9850612af660608d01612a1b565b975060808c0135965060a08c01359550612b1260c08d01612a1b565b9450612b2060e08d01612a70565b9350612b2f6101008d01612a1b565b9250612b3e6101208d01612a1b565b91506101408c013590509295989b509295989b9093969950565b600080600080600060608688031215612b6f578081fd5b8535612b7a8161301b565b9450602086013567ffffffffffffffff80821115612b96578283fd5b612ba289838a01612a26565b90965094506040880135915080821115612bba578283fd5b818801915088601f830112612bcd578283fd5b813581811115612bdb578384fd5b896020828501011115612bec578384fd5b9699959850939650602001949392505050565b60008060208385031215612c11578182fd5b823567ffffffffffffffff811115612c27578283fd5b612c3385828601612a26565b90969095509350505050565b600080600060408486031215612c53578283fd5b833567ffffffffffffffff811115612c69578384fd5b612c7586828701612a26565b909790965060209590950135949350505050565b600060208284031215612c9a578081fd5b81516127f181613030565b600060208284031215612cb6578081fd5b5035919050565b600060208284031215612cce578081fd5b5051919050565b60008060408385031215612ce7578182fd5b50508035926020909101359150565b600080600060608486031215612d0a578283fd5b505081359360208301359350604090920135919050565b60008151808452612d39816020860160208601612fba565b601f01601f19169290920160200192915050565b60008251612d5f818460208701612fba565b9190910192915050565b6020808252810182905260006001600160fb1b03831115612d88578081fd5b8260051b808560408501379190910160400190815292915050565b6020808252825182820181905260009190848201906040850190845b81811015612ddb57835183529284019291840191600101612dbf565b50909695505050505050565b6020810160028310612e0957634e487b7160e01b600052602160045260246000fd5b91905290565b6000602082526127f16020830184612d21565b6020808252602e908201527f496e697469616c697a61626c653a20636f6e747261637420697320616c72656160408201526d191e481a5b9a5d1a585b1a5e995960921b606082015260800190565b6020808252600790820152660858db1a595b9d60ca1b604082015260600190565b6020808252600690820152651b1bd8dad95960d21b604082015260600190565b6020808252600c908201526b062616c616e636520697320360a41b604082015260600190565b6020808252601f908201527f5265656e7472616e637947756172643a207265656e7472616e742063616c6c00604082015260600190565b6000838252604060208301526127ee6040830184612d21565b60008219821115612f3a57612f3a613005565b500190565b600060ff821660ff84168060ff03821115612f5c57612f5c613005565b019392505050565b600082612f7f57634e487b7160e01b81526012600452602481fd5b500490565b6000816000190483118215151615612f9e57612f9e613005565b500290565b600082821015612fb557612fb5613005565b500390565b60005b83811015612fd5578181015183820152602001612fbd565b83811115612fe4576000848401525b50505050565b6000600019821415612ffe57612ffe613005565b5060010190565b634e487b7160e01b600052601160045260246000fd5b6001600160a01b03811681146118e157600080fd5b80151581146118e157600080fdfe99f6215451102cb496830dfd718a41ae7fb7d92607137ea8961d076bea55c5d3a26469706673582212205c087b319ac26c0cc6dc027fdd9af202de5259fb53344d209668b652c6ab45b564736f6c63430008030033",
  "linkReferences": {},
  "deployedLinkReferences": {}
}