{
  "_format": "hh-sol-artifact-1",
  "contractName": "SmartInvoiceInstant01",
  "sourceName": "contracts/SmartInvoiceInstant.sol",
  "abi": [
    {
      "anonymous": false,
      "inputs": [
        {
          "indexed": true,
          "internalType": "address",
          "name": "sender",
          "type": "address"
        },
        {
          "indexed": false,
          "internalType": "uint256",
          "name": "amount",
          "type": "uint256"
        }
      ],
      "name": "Deposit",
      "type": "event"
    },
    {
      "anonymous": false,
      "inputs": [
        {
          "indexed": true,
          "internalType": "address",
          "name": "sender",
          "type": "address"
        }
      ],
      "name": "Fulfilled",
      "type": "event"
    },
    {
      "anonymous": false,
      "inputs": [
        {
          "indexed": false,
          "internalType": "uint8",
          "name": "version",
          "type": "uint8"
        }
      ],
      "name": "Initialized",
      "type": "event"
    },
    {
      "anonymous": false,
      "inputs": [
        {
          "indexed": true,
          "internalType": "address",
          "name": "sender",
          "type": "address"
        },
        {
          "indexed": false,
          "internalType": "uint256",
          "name": "amount",
          "type": "uint256"
        }
      ],
      "name": "Tip",
      "type": "event"
    },
    {
      "anonymous": false,
      "inputs": [
        {
          "indexed": true,
          "internalType": "address",
          "name": "recipient",
          "type": "address"
        },
        {
          "indexed": false,
          "internalType": "uint256",
          "name": "amount",
          "type": "uint256"
        }
      ],
      "name": "Withdraw",
      "type": "event"
    },
    {
      "inputs": [],
      "name": "MAX_DEADLINE",
      "outputs": [
        {
          "internalType": "uint256",
          "name": "",
          "type": "uint256"
        }
      ],
      "stateMutability": "view",
      "type": "function"
    },
    {
      "inputs": [
        {
          "internalType": "uint256",
          "name": "",
          "type": "uint256"
        }
      ],
      "name": "amounts",
      "outputs": [
        {
          "internalType": "uint256",
          "name": "",
          "type": "uint256"
        }
      ],
      "stateMutability": "view",
      "type": "function"
    },
    {
      "inputs": [],
      "name": "client",
      "outputs": [
        {
          "internalType": "address",
          "name": "",
          "type": "address"
        }
      ],
      "stateMutability": "view",
      "type": "function"
    },
    {
      "inputs": [],
      "name": "deadline",
      "outputs": [
        {
          "internalType": "uint256",
          "name": "",
          "type": "uint256"
        }
      ],
      "stateMutability": "view",
      "type": "function"
    },
    {
      "inputs": [
        {
          "internalType": "address",
          "name": "_token",
          "type": "address"
        },
        {
          "internalType": "uint256",
          "name": "_amount",
          "type": "uint256"
        }
      ],
      "name": "depositTokens",
      "outputs": [],
      "stateMutability": "nonpayable",
      "type": "function"
    },
    {
      "inputs": [],
      "name": "details",
      "outputs": [
        {
          "internalType": "bytes32",
          "name": "",
          "type": "bytes32"
        }
      ],
      "stateMutability": "view",
      "type": "function"
    },
    {
      "inputs": [],
      "name": "fulfilled",
      "outputs": [
        {
          "internalType": "bool",
          "name": "",
          "type": "bool"
        }
      ],
      "stateMutability": "view",
      "type": "function"
    },
    {
      "inputs": [],
      "name": "getTotalDue",
      "outputs": [
        {
          "internalType": "uint256",
          "name": "",
          "type": "uint256"
        }
      ],
      "stateMutability": "view",
      "type": "function"
    },
    {
      "inputs": [
        {
          "internalType": "address",
          "name": "_recipient",
          "type": "address"
        },
        {
          "internalType": "uint256[]",
          "name": "_amounts",
          "type": "uint256[]"
        },
        {
          "internalType": "bytes",
          "name": "_data",
          "type": "bytes"
        }
      ],
      "name": "init",
      "outputs": [],
      "stateMutability": "nonpayable",
      "type": "function"
    },
    {
      "inputs": [],
      "name": "initLock",
      "outputs": [],
      "stateMutability": "nonpayable",
      "type": "function"
    },
    {
      "inputs": [],
      "name": "lateFee",
      "outputs": [
        {
          "internalType": "uint256",
          "name": "",
          "type": "uint256"
        }
      ],
      "stateMutability": "view",
      "type": "function"
    },
    {
      "inputs": [],
      "name": "lateFeeTimeInterval",
      "outputs": [
        {
          "internalType": "uint256",
          "name": "",
          "type": "uint256"
        }
      ],
      "stateMutability": "view",
      "type": "function"
    },
    {
      "inputs": [],
      "name": "provider",
      "outputs": [
        {
          "internalType": "address",
          "name": "",
          "type": "address"
        }
      ],
      "stateMutability": "view",
      "type": "function"
    },
    {
      "inputs": [],
      "name": "token",
      "outputs": [
        {
          "internalType": "address",
          "name": "",
          "type": "address"
        }
      ],
      "stateMutability": "view",
      "type": "function"
    },
    {
      "inputs": [],
      "name": "total",
      "outputs": [
        {
          "internalType": "uint256",
          "name": "",
          "type": "uint256"
        }
      ],
      "stateMutability": "view",
      "type": "function"
    },
    {
      "inputs": [],
      "name": "totalFulfilled",
      "outputs": [
        {
          "internalType": "uint256",
          "name": "",
          "type": "uint256"
        }
      ],
      "stateMutability": "view",
      "type": "function"
    },
    {
      "inputs": [],
      "name": "withdraw",
      "outputs": [],
      "stateMutability": "nonpayable",
      "type": "function"
    },
    {
      "inputs": [
        {
          "internalType": "address",
          "name": "_token",
          "type": "address"
        }
      ],
      "name": "withdrawTokens",
      "outputs": [],
      "stateMutability": "nonpayable",
      "type": "function"
    },
    {
      "inputs": [],
      "name": "wrappedNativeToken",
      "outputs": [
        {
          "internalType": "address",
          "name": "",
          "type": "address"
        }
      ],
      "stateMutability": "view",
      "type": "function"
    },
    {
      "stateMutability": "payable",
      "type": "receive"
    }
  ],
  "bytecode": "0x608060405260006009556000600a556000600c556000600d5534801561002457600080fd5b50600180556113c2806100386000396000f3fe6080604052600436106101185760003560e01c80633f4de62f116100a05780636f0e530f116100645780636f0e530f146103945780637a548ace146103ac578063e2d46f98146103c2578063e38f4861146103ec578063fc0c546a14610401576101ec565b80633f4de62f1461030857806345f0a44f1461031e57806349df728c1461033e578063565974d31461035e57806366168bd714610374576101ec565b806317fcb39b116100e757806317fcb39b146102925780631fccd9df146102b257806329dcb0cf146102c75780632ddbd13a146102dd5780633ccfd60b146102f3576101ec565b80630721711d146101f1578063085d48831461021157806308f14aed1461024e578063109e94cf14610272576101ec565b366101ec576002546005546001600160a01b039081169116146101785760405162461bcd60e51b815260206004820152601360248201527210bbb930b83832b22730ba34bb32aa37b5b2b760691b60448201526064015b60405180910390fd5b600260009054906101000a90046001600160a01b03166001600160a01b031663d0e30db0346040518263ffffffff1660e01b81526004016000604051808303818588803b1580156101c857600080fd5b505af11580156101dc573d6000803e3d6000fd5b50505050506101ea34610421565b005b600080fd5b3480156101fd57600080fd5b506101ea61020c3660046110af565b610524565b34801561021d57600080fd5b50600454610231906001600160a01b031681565b6040516001600160a01b0390911681526020015b60405180910390f35b34801561025a57600080fd5b50610264600d5481565b604051908152602001610245565b34801561027e57600080fd5b50600354610231906001600160a01b031681565b34801561029e57600080fd5b50600254610231906001600160a01b031681565b3480156102be57600080fd5b5061026461065a565b3480156102d357600080fd5b5061026460075481565b3480156102e957600080fd5b5061026460095481565b3480156102ff57600080fd5b506101ea6106c0565b34801561031457600080fd5b50610264600c5481565b34801561032a57600080fd5b506102646103393660046111a8565b6106f6565b34801561034a57600080fd5b506101ea610359366004611023565b610717565b34801561036a57600080fd5b5061026460065481565b34801561038057600080fd5b506101ea61038f36600461115d565b610840565b3480156103a057600080fd5b506102646303c30ab081565b3480156103b857600080fd5b50610264600a5481565b3480156103ce57600080fd5b50600b546103dc9060ff1681565b6040519015158152602001610245565b3480156103f857600080fd5b506101ea6108cc565b34801561040d57600080fd5b50600554610231906001600160a01b031681565b600061042b61065a565b905081600a600082825461043f91906112ac565b9091555050600a5481116104eb57600b805460ff191660011790556104613390565b6001600160a01b03167fbb026e4b53af5bd87e552e30bbd22b8d50b2d5e5ee91467a987c069fc9390cf260405160405180910390a280600a5411156104eb57336001600160a01b03167f1af16f7c72ca21f49bc9d9aa30cca41db8727f5d70816fe8914d9ac828a1026682600a546104d99190611303565b60405190815260200160405180910390a25b60405182815233907fe1fffcc4923d04b559f4d29a8bfc6cda04eb5b0d3c460751c2402c5c5cc9109c9060200160405180910390a25050565b60006105306001610939565b90508015610548576000805461ff0019166101001790555b6001600160a01b0386166105915760405162461bcd60e51b815260206004820152601060248201526f34b73b30b634b210383937bb34b232b960811b604482015260640161016f565b61059b83836109bf565b600480546001600160a01b0319166001600160a01b0388161790556000805b85811015610608578686828181106105e257634e487b7160e01b600052603260045260246000fd5b90506020020135826105f491906112ac565b91508061060081611346565b9150506105ba565b506009558015610652576000805461ff0019169055604051600181527f7f26b83ff96e1f2b6a682f133852f6798a09c465da95921460cefb38474024989060200160405180910390a15b505050505050565b60075460009081904211156106ac576000600754426106799190611303565b9050600d5481106106a557600d5461069190826112c4565b600c5461069e91906112e4565b91506106aa565b600091505b505b806009546106ba91906112ac565b91505090565b600260015414156106e35760405162461bcd60e51b815260040161016f90611275565b60026001556106f0610bc2565b60018055565b6008818154811061070657600080fd5b600091825260209091200154905081565b6002600154141561073a5760405162461bcd60e51b815260040161016f90611275565b60026001556005546001600160a01b03828116911614156107625761075d610bc2565b610839565b6040516370a0823160e01b81523060048201526000906001600160a01b038316906370a082319060240160206040518083038186803b1580156107a457600080fd5b505afa1580156107b8573d6000803e3d6000fd5b505050506040513d601f19601f820116820180604052508101906107dc91906111c0565b90506000811161081d5760405162461bcd60e51b815260206004820152600c60248201526b062616c616e636520697320360a41b604482015260640161016f565b600454610837906001600160a01b03848116911683610ce1565b505b5060018055565b600260015414156108635760405162461bcd60e51b815260040161016f90611275565b60026001556005546001600160a01b038381169116146108ae5760405162461bcd60e51b815260206004820152600660248201526510ba37b5b2b760d11b604482015260640161016f565b6108c36001600160a01b038316333084610d49565b61083781610421565b60006108d86001610939565b905080156108f0576000805461ff0019166101001790555b8015610936576000805461ff0019169055604051600181527f7f26b83ff96e1f2b6a682f133852f6798a09c465da95921460cefb38474024989060200160405180910390a15b50565b60008054610100900460ff1615610980578160ff16600114801561095c5750303b155b6109785760405162461bcd60e51b815260040161016f90611227565b5060006109ba565b60005460ff8084169116106109a75760405162461bcd60e51b815260040161016f90611227565b506000805460ff191660ff831617905560015b919050565b60008080808080806109d3888a018a61103f565b965096509650965096509650965060006001600160a01b0316876001600160a01b03161415610a355760405162461bcd60e51b815260206004820152600e60248201526d1a5b9d985b1a590818db1a595b9d60921b604482015260640161016f565b6001600160a01b038616610a7b5760405162461bcd60e51b815260206004820152600d60248201526c34b73b30b634b2103a37b5b2b760991b604482015260640161016f565b42851180610a87575084155b610ac45760405162461bcd60e51b815260206004820152600e60248201526d191d5c985d1a5bdb88195b99195960921b604482015260640161016f565b610ad26303c30ab0426112ac565b851115610b155760405162461bcd60e51b81526020600482015260116024820152706475726174696f6e20746f6f206c6f6e6760781b604482015260640161016f565b6001600160a01b038316610b6b5760405162461bcd60e51b815260206004820152601a60248201527f696e76616c696420777261707065644e6174697665546f6b656e000000000000604482015260640161016f565b600380546001600160a01b039889166001600160a01b03199182161790915560058054978916978216979097179096556007949094556006929092556002805491909516931692909217909255600c55600d555050565b6005546040516370a0823160e01b81523060048201526000916001600160a01b0316906370a082319060240160206040518083038186803b158015610c0657600080fd5b505afa158015610c1a573d6000803e3d6000fd5b505050506040513d601f19601f82011682018060405250810190610c3e91906111c0565b905060008111610c7f5760405162461bcd60e51b815260206004820152600c60248201526b062616c616e636520697320360a41b604482015260640161016f565b600454600554610c9c916001600160a01b03918216911683610ce1565b6004546040518281526001600160a01b03909116907f884edad9ce6fa2440d8a54cc123490eb96d2768479d49ff9c7366125a94243649060200160405180910390a250565b6040516001600160a01b038316602482015260448101829052610d4490849063a9059cbb60e01b906064015b60408051601f198184030181529190526020810180516001600160e01b03166001600160e01b031990931692909217909152610d87565b505050565b6040516001600160a01b0380851660248301528316604482015260648101829052610d819085906323b872dd60e01b90608401610d0d565b50505050565b6000610ddc826040518060400160405280602081526020017f5361666545524332303a206c6f772d6c6576656c2063616c6c206661696c6564815250856001600160a01b0316610e599092919063ffffffff16565b805190915015610d445780806020019051810190610dfa9190611188565b610d445760405162461bcd60e51b815260206004820152602a60248201527f5361666545524332303a204552433230206f7065726174696f6e20646964206e6044820152691bdd081cdd58d8d9595960b21b606482015260840161016f565b6060610e688484600085610e72565b90505b9392505050565b606082471015610ed35760405162461bcd60e51b815260206004820152602660248201527f416464726573733a20696e73756666696369656e742062616c616e636520666f6044820152651c8818d85b1b60d21b606482015260840161016f565b6001600160a01b0385163b610f2a5760405162461bcd60e51b815260206004820152601d60248201527f416464726573733a2063616c6c20746f206e6f6e2d636f6e7472616374000000604482015260640161016f565b600080866001600160a01b03168587604051610f4691906111d8565b60006040518083038185875af1925050503d8060008114610f83576040519150601f19603f3d011682016040523d82523d6000602084013e610f88565b606091505b5091509150610f98828286610fa3565b979650505050505050565b60608315610fb2575081610e6b565b825115610fc25782518084602001fd5b8160405162461bcd60e51b815260040161016f91906111f4565b60008083601f840112610fed578182fd5b50813567ffffffffffffffff811115611004578182fd5b60208301915083602082850101111561101c57600080fd5b9250929050565b600060208284031215611034578081fd5b8135610e6b81611377565b600080600080600080600060e0888a031215611059578283fd5b873561106481611377565b9650602088013561107481611377565b95506040880135945060608801359350608088013561109281611377565b9699959850939692959460a0840135945060c09093013592915050565b6000806000806000606086880312156110c6578081fd5b85356110d181611377565b9450602086013567ffffffffffffffff808211156110ed578283fd5b818801915088601f830112611100578283fd5b81358181111561110e578384fd5b8960208260051b8501011115611122578384fd5b60208301965080955050604088013591508082111561113f578283fd5b5061114c88828901610fdc565b969995985093965092949392505050565b6000806040838503121561116f578182fd5b823561117a81611377565b946020939093013593505050565b600060208284031215611199578081fd5b81518015158114610e6b578182fd5b6000602082840312156111b9578081fd5b5035919050565b6000602082840312156111d1578081fd5b5051919050565b600082516111ea81846020870161131a565b9190910192915050565b600060208252825180602084015261121381604085016020870161131a565b601f01601f19169190910160400192915050565b6020808252602e908201527f496e697469616c697a61626c653a20636f6e747261637420697320616c72656160408201526d191e481a5b9a5d1a585b1a5e995960921b606082015260800190565b6020808252601f908201527f5265656e7472616e637947756172643a207265656e7472616e742063616c6c00604082015260600190565b600082198211156112bf576112bf611361565b500190565b6000826112df57634e487b7160e01b81526012600452602481fd5b500490565b60008160001904831182151516156112fe576112fe611361565b500290565b60008282101561131557611315611361565b500390565b60005b8381101561133557818101518382015260200161131d565b83811115610d815750506000910152565b600060001982141561135a5761135a611361565b5060010190565b634e487b7160e01b600052601160045260246000fd5b6001600160a01b038116811461093657600080fdfea264697066735822122035bc5bb6306ebc969c10430a6d6468cdc35a79d78f02177bca168d58c6849b0064736f6c63430008030033",
  "linkReferences": {},
  "deployedLinkReferences": {}
}